:020000040800F2
:1000000000000120FD020008692800086B28000894
:100010006D2800086F280008712800080000000003
:10002000000000000000000000000000732800082D
:1000300075280008000000007728000879280008CB
:100040004503000845030008450300084503000870
:1000500045030008450300087B2800084503000805
:1000600093280008450300084503000845030008DD
:100070004503000845030008450300084503000840
:100080004503000845030008450300080000000080
:100090000000000000000000000000004503000810
:1000A0004503000845030008450300084503000810
:1000B000450300086D290008C12900084503000810
:1000C00045030008450300084503000845030008F0
:1000D00045030008FD290008450300080000000052
:1000E000AD28000845030008450300080000000093
:1000F00000000000000000000000000045030008B0
:1001000000000000450300084503000845030008FF
:1001100000000000000000000000000000000000DF
:10012000450300084503000845030008450300088F
:10013000450300080000000000000000000000006F
:10014000000000000000000000000000450300085F
:10015000450300084503000845030008450300085F
:1001600045030008450300080000000000000000EF
:10017000000000000000000000000000000000007F
:10018000000000004503000800000000000000001F
:04019000450300081B
:1001940010B5054C237833B9044B13B10448AFF3BD
:1001A40000800123237010BD6C04002000000000B7
:1001B4006037000808B5034B1BB103490348AFF38C
:1001C400008008BD000000007004002060370008B3
:1001D40070B50D4E0D4D761BB61006D0002455F8A3
:1001E400043B01349847A642F9D1094E094D761BC8
:1001F40003F0B4FAB61006D0002455F8043B0134D9
:100204009847A642F9D170BD58A5010858A5010820
:1002140060A5010858A50108024B13B1024800F07B
:1002240005B87047000000003D02000800230146A5
:100234001A46184600F01AB838B5084B084D5B1B2F
:100244009C1007D0043B1D44013C55F804399847E1
:10025400002CF9D1BDE8384003F086BA64A5010842
:1002640060A50108704700BF704700BF2DE9F04743
:10027400DFF880A00646DAF8000098460F4691465B
:10028400FFF7F0FF1A4B1B68D3F8484124B36568A5
:100294001F2D26DC5EB96B1C0235DAF800006360A2
:1002A40044F82570FFF7E0FF0020BDE8F08704EB79
:1002B40085010123C1F88890D4F88821AB401A4302
:1002C400022EC4F88821C1F80881E4D1D4F88C2125
:1002D4001343C4F88C31DEE703F5A674C3F8484130
:1002E400D5E7DAF80000FFF7BFFF4FF0FF30DCE797
:1002F4007837000828040020002103E00B4B5B58EA
:10030400435004310A480B4B42189A42F6D30A4A26
:1003140002E0002342F8043B084B9A42F9D302F06E
:1003240003FAFFF755FF02F099FA704764A5010834
:10033400000000206C0400206C040020AC040020A9
:10034400FEE730B58BB001214FF4807001F04CFE14
:100354000024069408944FF44033079306A801F050
:1003640059FC00948DF804408DF8054002940494DF
:1003740001258DF81450039404F1804404F590345D
:100384006946204601F01CFC2946204601F058FC31
:100394000BB030BD10B50146094C0723012220469D
:1003A40001F059FC204601F0A2FC0221044801F0AE
:1003B400A6FC0028F9D0024801F09EFC10BD00BF45
:1003C400002001402DE9F04186B00121022001F016
:1003D400EFFD01214FF4804001F006FE0D210120C4
:1003E40001F09AFF0223049303268DF8146000257C
:1003F4008DF8175001248DF81540DFF85C8004A9AE
:10040400404601F0DBFC8DF814508DF816508DF841
:1004140017404FF4005704978DF8155004A940462F
:1004240001F0CCFC01978DF80A408DF80850102398
:100434008DF8093001A801F069FC8DF80F402823DC
:100444008DF80C308DF80D608DF80E4003A801F086
:1004540075FB06B0BDE8F0810004024038B5002405
:10046400254606E00920FFF795FF0544ADB20134A7
:10047400E4B2102CF6D107EE905AF8EE677A9FEDAD
:10048400077A67EE877A9FED067A87EE870ADFEDB3
:10049400057A20EE270A30EE000A38BD0000803DC0
:1004A40000F07F4500604C4530B587B00121084617
:1004B40001F07EFD01214FF4804001F095FD0C21F7
:1004C400002001F029FF00248DF814408DF8164017
:1004D4004FF4805504958DF817408DF8154004A904
:1004E4000E4801F06BFC019501258DF80A508DF83A
:1004F400084010238DF8093001A801F007FC2823D7
:100504008DF80C308DF80F5003238DF80D308DF8D5
:100514000E4003A801F012FB07B030BD00000240FA
:1005240070B586B00121082001F042FD01214FF48D
:10053400804001F059FD0221032001F0EDFE002569
:100544008DF814508DF816500426049601248DF865
:10055400174002238DF8153004A90F4801F02EFC32
:1005640001968DF80A408DF808500C238DF8093057
:100574000DEB060001F0CAFB08238DF80C308DF852
:100584000F408DF80D508DF80E4003A801F0D6FAF7
:1005940000F02EFF06B070BD000C0240F0B585B02F
:1005A40000F04AFF2A2001F007F800F08DFF032035
:1005B40001F002F800F088FF00F03EFF2B2000F06D
:1005C400FBFF00F081FF012001F02EF805468DF8B5
:1005D4000400012001F028F806468DF805000120EA
:1005E40001F022F804468DF80600012001F01CF801
:1005F40007468DF8070000F043FF2D0205F47065EF
:100604003543240204F470643C43EF2D07D8B4F559
:100614008C7F04D2ADF80850ADF80A4005E04FF6DF
:10062400FF73ADF80830ADF80A30029B0393002045
:10063400BDF80C3063F30F00BDF80E3063F31F40B8
:1006440005B0F0BD08B5FFF7A9FF3F4B1880C0F314
:100654000F4058803D4B1B789BB93B4A1188A1F150
:10066400460292B2642A10D882B2952A0DD9FA2988
:100674000BD8374A13700120344B187000F0FEFA7F
:1006840003E0012B09D0022B32D0304B187801F053
:10069400C5F9642000F0C0F808BD2B4A1188A1F107
:1006A4000A0292B2642A05D8274A5288952A01D9A7
:1006B400FA2915D9244B1A88A2F182039BB2642B20
:1006C400E3D8214B5B88952BDFD9FA2ADDD81F4B61
:1006D40019781F4A11700020187000F0CFFAD4E77F
:1006E4001B4A13700220194B187000F0C7FAE1E797
:1006F400154A1188A1F10A0292B2642A05D8124A55
:100704005288952A01D9FA2915D90F4B1A88A2F1D2
:1007140082039BB2642BB8D80B4B5B88952BB4D95E
:10072400FA2AB2D8094B1978094A117000201870B6
:1007340000F0A4FAA9E7064A13700120034B1870CD
:1007440000F09CFAE1E700BF9C040020960400201E
:100754009504002008B56FF0040001F021FA084B5D
:10076400D3ED007AF8EE677ADFED066A87EEA67AB3
:10077400054B83ED007A054B42F604121A8008BD3E
:10078400680400200024F44A8C0400208A04002019
:1007940007EE900AF8EE677A0F4B93ED007A67EE56
:1007A400877AFCEEE77A4FF0E023C3ED057A002266
:1007B4009A611A6942F001021A614FF0E0231B6941
:1007C40003F00113012BF8D04FF0E022136923F05A
:1007D40001031361704700BF8C0400200D4B1B887C
:1007E40003FB00F04FF0E023586100229A611A697C
:1007F40042F001021A614FF0E0231B6903F0011378
:10080400012BF8D04FF0E022136923F001031361A8
:10081400704700BF8A04002038B5840AC0F3090574
:1008240005E04FF48060FFF7D9FF013CE4B2002CEF
:10083400F7D105B938BD2846FFF7D0FFFAE708B568
:1008440000F044FB002000F08FFB08BD38B52DED0F
:10085400088B0AEE100A09EE901A08EE902A09EEA7
:10086400103ABDF830300AEE903ABDF83450F8EE44
:10087400688A33E0B8EEEA8ADFED1D7A88EEA7BA1B
:10088400DFED1C7A2BEE27BAB0EE4B0A02F0FEF82D
:1008940028EE000AF8EECA7A77EE807AF6EE00BA0D
:1008A40077EEAB7AFCEEE77A17EE903A9CB2B0EEB4
:1008B4004B0A02F023F928EE008AF8EEE97A77EE83
:1008C400887A77EEAB7AFCEEE77A2A4617EE903A0E
:1008D40099B2204600F055FB78EEAB8AF8EEC97A5F
:1008E400F4EEE87AF1EE10FAC4DABDEC088B38BD08
:1008F40000003443DA0F49402DE9F04F85B0BDF8CC
:10090400384001948046A2EB000A8946A3EB010B10
:10091400BAF1000F0DDD01220292BBF1000F14DDCC
:1009240001230393DA451CDD564600252F462C4649
:100934001BE0BAF1000F05D0A0EB020A4FF0FF3222
:100944000292EAE7CDF808A0E7E7BBF1000F05D073
:10095400A1EB030B4FF0FF330393E3E7CDF80CB0A7
:10096400E0E75E46E1E70134A4B2731C9C4213DC69
:10097400019A1FFA89F11FFA88F000F002FB57442C
:100984005D44BE4202DABF1B029B9844AE42EADADF
:10099400AD1B039B9944E6E705B0BDE8F08F2DE954
:1009A400F04F85B083460C4692469846BDF83850C1
:1009B400BDF83C6000EB05091FFA89F9571BBFB26B
:1009C40000960B463A464846FFF796FF2C44A4B2DD
:1009D400CDF80C80A8EB05081FFA88F8009643466A
:1009E4005A4621465846FFF787FF0096434652462B
:1009F40021465046FFF780FF0096039B3A4619466E
:100A04004846FFF779FF019600954FF48773B422A7
:100A140021464846FFF71AFF01960095B4235A224F
:100A240041464846FFF712FF019600954FF4B47310
:100A34004FF4877221463846FFF708FF0196009568
:100A44005A23002241463846FFF700FF05B0BDE8AF
:100A5400F08F2DE9F04184B005460E46144601237B
:100A64000293102301932523009300234FF4FC6287
:100A74000721AA2000F090FA2F19BFB206EB540305
:100A84004FF6FF78CDF80480002200929BB23A46DC
:100A940031462846FFF783FF07EE906AF8EEE76ACF
:100AA40007EE904AB8EEE77AB4EE005A27EE056AEC
:100AB40076EE865A2B1907EE103AB8EEC77A37EE5F
:100AC400067A04EB440307EE903AF8EEE77A67EE11
:100AD400857A76EEA76AFCEEE66ABCEEC77AFCEE8F
:100AE400E57ACDF8008016EE903A9BB217EE102A04
:100AF40092B217EE901A89B2384600F00EFA04B09A
:100B0400BDE8F081F8B517461E46069D821892B2DC
:100B1400CB189BB2013B013A9BB292B200F0DEF9D2
:100B2400002409E0610015F8140001316B5C40EA0F
:100B3400032000F085FE013406FB07F1A142F1DC3D
:100B4400F8BD00002DE9F04387B006AC04E90C00C1
:100B540084B28DB205F15807BFB204F1200000261B
:100B640003964FF02009CDF808904FF00208CDF815
:100B7400048000964FF6FF739DF81120394680B229
:100B840000F068FB04F140000296CDF804902F2396
:100B9400009333464FF6FF72394680B200F0FCF9F9
:100BA40004F150000396CDF80890CDF80480009627
:100BB4004FF6FF739DF81220394680B200F04AFBCD
:100BC4009DF81020013A02EB420204F180000296E3
:100BD400CDF8049000964FF6FF73274901EB4202CB
:100BE400394680B200F0F8FA7835ADB204F123004A
:100BF40003963C230293CDF8048000964FF6FF73CE
:100C04009DF81420294680B200F024FB9DF816308C
:100C140013F0010F21D104F15F00334602963C2208
:100C240001923A2200924FF6FF72294680B200F0F8
:100C3400B3F904F17D00002303933C2202920222C3
:100C4400019200934FF6FF739DF81520294680B258
:100C540000F000FB07B0BDE8F08304F15F0000235F
:100C640002933C220192202200924FF6FF72294601
:100C740080B200F091F9DCE72C04002000B583B0C9
:100C8400F8B1012830D002282BD12E4B1B78002B31
:100C94004ED10093FA23AA229621462000F03DF972
:100CA400294B009364231A4696218220FFF72AFFDA
:100CB400264B009364231A4696210A20FFF722FF4D
:100CC4000FE000230093FA23E62296210A2000F085
:100CD40024F91E4B009364231A4696214620FFF7FD
:100CE40011FF03B05DF804FB164B1B78BBB90093EE
:100CF400FA23AA229621462000F00FF9124B009302
:100D040064231A4696218220FFF7FCFE104B0093C1
:100D140064231A4696210A20FFF7F4FEE1E7002334
:100D24000093FA236E2296210A2000F0F6F8EDE7EC
:100D340000230093FA236E2296210A2000F0EDF896
:100D4400B6E700BF9504002028B7000868530108DF
:100D54004805010810B52DED028B84B0FFF77EFB2A
:100D6400DFED2D7A30EE670AB5EEC00AF1EE10FA27
:100D74004BD4F1EE0C7AC0EE278AF6EE007A78EEC8
:100D8400A78A9FED268A28EE888AF3EE047AF4EE89
:100D9400E78AF1EE10FA3BD54FF47843DFED207A81
:100DA40078EE277AFCEEE77A0093132317EE902A65
:100DB40092B20621BF2000F0B0F8DFED1A7A38EEC7
:100DC400278AF7EE007A38EE278ABCEEC88A002418
:100DD40000941323DB22062118EE100A80B200F0DF
:100DE4009CF80394102302930223019300944FF47C
:100DF400FC63FCEEE87A17EE902A07219A2000F0B3
:100E040029FA04B0BDEC028B10BD9FED070AB0E7D0
:100E14004FF4FC63C2E700BF00C05A459A99993E5B
:100E240000003F4300003E430000000030B58BB09B
:100E34000121084601F0CAF80121084601F0B8F87A
:100E4400214D01220221284601F017F804230893BA
:100E540002238DF8243000248DF825408DF8264097
:100E64008DF8274008A9284600F0A8FFADF81C40DB
:100E7400ADF816405323ADF814306323069305A947
:100E84004FF0804001F064FA6023ADF80030012592
:100E9400ADF80250ADF80C406423029369464FF05C
:100EA400804001F0AFFA08214FF0804001F0F4FADD
:100EB40029464FF0804001F089FA29464FF08040DE
:100EC40001F092FA0BB030BD0000024008B500F00A
:100ED400AFFCFFF7ABFFFFF723FB08BDF8B50746F0
:100EE4000D4616461C462A2000F06EFC384600F0DB
:100EF400A7FC304600F0A4FC2B2000F065FC05F1B3
:100F0400140080B200F09CFC04F1140080B200F0E4
:100F140097FC2C2000F058FCF8BD2DE9F0418046E8
:100F24000C4617461D46BDF81860824201D3074699
:100F34009046A54202D32B4625461C4623464246EC
:100F440029463846FFF7CAFFA8EB0702651B01359F
:100F540002FB0555002403E0304600F071FC013427
:100F6400AC42F9D1BDE8F08100B583B0009040F205
:100F74001713EF2200210846FFF7CFFF03B05DF8F7
:100F840004FB10B50B4614460246FFF7A7FF2046A4
:100F940000F056FC10BD00002DE9F04F85B0039021
:100FA400009191469B469DF83CA09DF840404FEA35
:100FB4005A0700EB5A0292B20B4653449BB2013BD0
:100FC400013A9BB292B2FFF789FF9DF83830203B7B
:100FD400DBB202930AFB0AF3C3F30713534538BF8A
:100FE40053460193002C74D14FF00008FF25464668
:100FF400B3E0029B03EB4303734A02EB830313F84E
:101004000850002600241DE0704B029A03EB0213E3
:1010140013F808500026F5E76D4B029A03EB821390
:1010240013F8085008F101081FFA88F813F808307B
:1010340045EA03250026E5E76D0845EAC675760806
:101044000134A4B2A7420CD015F0010FF4D008EB80
:101054000B0104EB0900009A89B280B2FFF791FFFB
:10106400EAE708F101081FFA88F8BDF8043043459F
:1010740000F0A680BAF10C0FBBD0BAF1100FC3D0A8
:10108400BAF1200FC8D0BAF13C0FBBD1514A029833
:10109400C0EB001302EB031313F8085008F101012D
:1010A40089B2595C45EA012508F1020189B25B5C09
:1010B40045EA034508F103081FFA88F8C0EB00135A
:1010C40002EB031212F8086045EA066546F3C016FF
:1010D40098E74FF0000845464646DDF800B0CDF8E5
:1010E4000090DDF80C90C0E7029B03EB4303364A03
:1010F40002EB830313F808500026002420E0334B4E
:10110400029A03EB021313F808500026F5E7304B5C
:10111400029A03EB821313F8085008F101081FFA2E
:1011240088F813F8083045EA03250026E5E7584611
:1011340000F086FB6D0845EAC67576080134A4B252
:10114400A74206D015F0010FF1D0484600F078FB15
:10115400F0E708F101081FFA88F8BDF804304345A8
:101164002ED9BAF10C0FBFD0BAF1100FC7D0BAF113
:10117400200FCCD0BAF13C0FBFD1164A0298C0EB75
:10118400001302EB031313F8085008F1010189B2AC
:10119400595C45EA012508F1020189B25B5C45EA24
:1011A400034508F103081FFA88F8C0EB001302EBAB
:1011B400031212F8086045EA066546F3C0169CE778
:1011C40005B0BDE8F08F00BF7C370008F03B000895
:1011D400E0410008A05900082DE9F04784B0044616
:1011E4000D4616469846BDF830A09DF834709DF81B
:1011F400389012E0C7F58B72013295421CDCCDF8B1
:101204000890019700935346424629462046FFF72B
:10121400C3FE04EB5704A4B201363378A3F12000D3
:10122400C0B25E2808D8EF2CE4D9B5F58C7FE1D2A2
:101234003D44ADB20024E2E704B0BDE8F0870246C5
:10124400012002E002FB00F019464B1EDBB200292C
:10125400F8D170472DE9F04F87B08146049190464C
:101264000593BDF840B09DF844509DF848609DF842
:101274004CA000273C461FE0700800FB0490CDF80A
:1012840008A00196302300935B46059A049980B226
:10129400FFF782FE0EE0700800FB0490CDF808A072
:1012A40001963033DBB200935B46059A049980B211
:1012B400FFF772FE0134E4B2AC421AD2291BC9B260
:1012C4000139C9B20A20FFF7BAFFB8FBF0F00A4BA4
:1012D400A3FB0023DB0803EB8303A0EB4303DBB294
:1012E400002FD8D16A1E9442D5DA002BC4D001272E
:1012F400D1E707B0BDE8F08FCDCCCCCC00B583B03E
:101304000121042000F054FE0223009303238DF8EE
:10131400043000238DF8073001238DF80530694629
:10132400024800F04BFD03B05DF804FB00080240E6
:1013340008B50B20FFF72EF807EE900AF8EE677A4F
:10134400B0F5805F01D3DFED057A9FED057A87EE76
:10135400870ADFED047A20EE270A08BD9A3F1C466F
:1013640000F07F4500604C45F0B583B004460D465F
:1013740016461F4640238DF807309DF820308DF81F
:1013840004309DF824308DF805309DF828308DF810
:10139400063001A9012000F0A3FE8DF800708DF83D
:1013A40002608DF801508DF803406946012000F079
:1013B4000BFF03B0F0BD08B501214FF0805000F0E1
:1013C40005FE012000F074FD08BD10B582B004468E
:1013D40001A9002000F0D6FE6946002000F03EFF7F
:1013E4006B4603CB20606160204602B010BD000054
:1013F40010B582B00121022000F0DAFDC023009371
:1014040001238DF8043000228DF806208DF8053074
:101414008DF80730074C6946204600F0CFFC402188
:10142400204600F025FD8021204600F021FD02B079
:1014340010BD00BF0004024010B5104C236823F413
:1014440040432360236843F4804323608021204683
:1014540000F00EFD4021204600F00AFD0420FFF7B5
:1014640097F98021204600F005FD0420FFF790F94C
:101474004021204600F0FEFC10BD00BF00040240E5
:1014840010B5104C236823F440432360236843F4CD
:10149400804323604021204600F0ECFC802120465C
:1014A40000F0E8FC0420FFF773F94021204600F027
:1014B400DFFC8021204600F0DBFC0420FFF768F904
:1014C40010BD00BF0004024038B5164C236823F455
:1014D40040432360236823608021204600F0C8FC39
:1014E4000120FFF755F94021204600F0C1FC0120FE
:1014F400FFF74EF9002480210A4800F0B2FC0546AB
:1015040038B10134E4B2FA2CF5D9FFF7B9FF01255B
:1015140006E0402100F1804000F5013000F0AAFC13
:10152400284638BD0004024010B5104C4021204626
:1015340000F0A0FC236823F440432360236843F4B1
:10154400804323608021204600F094FC0220FFF7B2
:101554001FF94021204600F08BFC0220FFF718F908
:101564004021204600F086FC10BD00BF000402406C
:1015740010B5104C4021204600F07CFC236823F475
:1015840040432360236843F4804323608021204642
:1015940000F06EFC0220FFF7FBF84021204600F02B
:1015A40067FC0220FFF7F4F84021204600F062FCBB
:1015B40010BD00BF0004024070B50446194803681A
:1015C40023F440430360036843F4804303604021F1
:1015D40000F050FC002519E08021124800F04AFC7C
:1015E4006400E4B20220FFF7D3F80E4E40213046E7
:1015F40000F03EFC0220FFF7CBF84021304600F01B
:1016040039FC0220FFF7C4F80135EDB2072D07D8E5
:1016140014F0800FE0D08021024800F029FCDFE7BD
:1016240070BD00BF00040240F8B50746174B1A68A6
:1016340022F440421A601A681A600024254604E025
:101644000120FFF7A5F80135EDB2072D16D80F4E8E
:101654004021304600F00EFC0220FFF799F84021AB
:10166400304600F005FC6400E4B28021304600F00E
:10167400F8FB0028E4D00134E4B2E1E71FB9FFF736
:1016840077FF2046F8BDFFF74FFFFAE7000402405A
:10169400F0B589B00121084600F08AFC01214FF41D
:1016A400805000F0A1FC204E05221146304600F087
:1016B400E4FB05220721304600F0DFFBA02306935C
:1016C40002278DF81C7000248DF81E4003238DF82A
:1016D4001D3001258DF81F5006A9304600F06EFB21
:1016E4004FF44043ADF804304FF48273ADF8063044
:1016F400ADF80840ADF80A70ADF80C504FF4007323
:10170400ADF80E30ADF81040ADF812400723ADF837
:101714001430064C01A9204600F0C0FD294620469D
:1017240000F0E3FD09B0F0BD0000024000300140CC
:1017340010B504460221054800F0E7FD0028F9D061
:101744002146024800F0DFFD10BD00BF003001401B
:1017540010B582B00121032000F02AFC022300937B
:1017640001238DF8043000248DF8064003228DF8FF
:1017740005208DF807306946064800F01FFB4FF43A
:10178400007300938DF805406946034800F016FB8A
:1017940002B010BD000002400004024010B5094C24
:1017A4004FF40071204600F065FB7820FFF734F811
:1017B4004FF40071204600F05BFB7820FFF72CF813
:1017C40010BD00BF0004024010B5044602210348C6
:1017D40000F050FB2046FFF7ABFF10BD00000240B5
:1017E40010B504460221034800F042FB2046FFF7EF
:1017F4009FFF10BD0000024008B5FFF7CFFF212076
:10180400FFF7E2FF2620FFF7DFFF0420FFF7E8FFE2
:101814003A20FFF7D9FF5520FFF7E2FF1120FFF729
:10182400D3FF0520FEF7F8FF2920FFF7CDFF08BD01
:1018340008B5FFF72DFFFFF78BFFFFF7DDFF08BDAE
:1018440010B504460221054800F012FB200AFFF7F8
:101854006FFFE0B2FFF76CFF10BD00BF0000024055
:1018640070B586B00121084600F0A2FB01214FF4B7
:10187400804000F0B9FB0021084600F04DFD002532
:101884008DF814508DF816500124049402268DF816
:1018940017608DF8155004A9104800F08FFA0194D0
:1018A4008DF80A408DF808500C238DF8093001A8F2
:1018B40000F02CFA0A4A136823F00103136006238C
:1018C4008DF80C308DF80F4003238DF80D308DF812
:1018D4000E6003A800F032F906B070BD00000240AB
:1018E400003C014008B5012000F0FEFA012000F0A0
:1018F400E5FA00F0E9FA08BD30B585B0012104200D
:1019040000F064FB4AF20F43029340F2CF73ADF848
:1019140004300024ADF80640ADF80C400E4D01A98A
:10192400284600F015FD1E238DF8003002238DF8A3
:1019340001308DF8024001248DF80340684600F020
:10194400FDF822462146284600F0ADFD21462846F2
:1019540000F04AFD05B030BD0008004030B585B048
:101964000121022000F032FB40F61F5302937C2336
:10197400ADF804300024ADF80640ADF80C400C4D31
:1019840001A9284600F0E4FC1D238DF800308DF8F1
:1019940001408DF8024001248DF80340684600F0B0
:1019A400CDF82146284600F01FFD05B030BD00BF2C
:1019B4000004004008B50F2000F0A6F808BD08B5E3
:1019C400F02000F0A1F808BD10B582B08DED010A39
:1019D400002408E004F108036B4413F8040C00F03D
:1019E40093F80134E4B2042CF4D102B010BD08B56C
:1019F4002DED028BF0EE408AB0EE608AFFF7DAFF3D
:101A0400B0EE680AFFF7E0FFB0EE480AFFF7DCFF2C
:101A1400FFF7D5FFBDEC028B08BD000008B520B16F
:101A240001280BD002280FD008BD0022012109484B
:101A340000F039FD084B00221A60F5E70122114637
:101A4400044800F030FDEFE700220121014800F0D6
:101A54002AFDE9E7000400409804002070B588B02E
:101A64000121084600F0A4FA0121102000F0BCFA7C
:101A7400244E07220921304600F0FFF907220A21EB
:101A8400304600F0FAF94FF4C063069302238DF850
:101A94001C3000248DF81D408DF81E4001258DF862
:101AA4001F5006A9304600F089F94FF4E133029340
:101AB400ADF80C40ADF80E40ADF81040ADF8144050
:101AC4000C23ADF81230A6F5704602A9304600F09A
:101AD40007FD25238DF804308DF807508DF8055047
:101AE4008DF8064001A800F029F82946304600F098
:101AF4005DFD2A4640F22551304600F06DFD08B0E8
:101B040070BD00BF0000024010B5044680210548A6
:101B140000F07DFD0028F9D02146024800F054FD74
:101B240010BD00BF0010014040F0BF6040F4003021
:101B3400014BD860704700BF00ED00E0C378FBB1F3
:101B4400154BDB68DB43C3F30222C2F10401C9B2C3
:101B54000F23134142788A40D2B281780B40134359
:101B64001B01DBB202780D490A4482F80033037882
:101B740003F01F005B090122824041F823207047D3
:101B8400037803F01F015B0901228A4020330349D3
:101B940041F82320704700BF00ED00E000E100E0C1
:101BA400042806D04FF0E022136923F004031361E4
:101BB40070474FF0E022136943F004031361704748
:101BC40010B4426822F0407222F4807291F804C08A
:101BD4000B6843EA0C231343436083680C4A1A409E
:101BE4000B69CC6823438C68234391F805C043EA0E
:101BF4004C0313438360C36A23F470030A7D013AE0
:101C0400D2B243EA0253C3625DF8044B704700BF8B
:101C1400FDF7FFC010B408494B68084A1A4003682E
:101C24004468234384682343C068034313434B60DD
:101C34005DF8044B704700BF00230140E030FCFF17
:101C440021B1836843F0010383607047836823F004
:101C540001038360704710B509291DD9C468A1F137
:101C64000A0C0CEB4C0C4FF0070E0EFA0CFE24EA97
:101C74000E0403FA0CF32343C360062A1BD8436BF8
:101C8400013A02EB82021F24944023EA040301FA7E
:101C940002F21A43426310BD046901EB410E4FF096
:101CA400070C0CFA0EFC24EA0C0C03FA0EF34CEAB3
:101CB40003030361E1E70C2A0CD8036B073A02EB38
:101CC40082021F24944023EA040301FA02F21A4315
:101CD4000263E0E7C36A0D3A02EB82021F249440D8
:101CE40023EA040301FA02F21A43C262D3E78368C7
:101CF40043F0804383607047C06C80B270470368D0
:101D0400194201D001207047002070478379002BCD
:101D140036D010B4204B1A68016822EA01021A6016
:101D24005A68016822EA01025A60027902F180428B
:101D340002F59E3211680468214311609A680168B3
:101D440022EA01029A60DA68016822EA0102DA6092
:101D54004379102B0AD003F1804303F59E331A68AC
:101D640001680A431A605DF8044B70470A4B9A688D
:101D740001680A439A60DA6801680A43DA60F2E7A4
:101D8400037903F1804303F59E331A68016822EA5C
:101D940001021A60704700BF003C0140034B5B69BD
:101DA400034201D00120704700207047003C0140ED
:101DB400014B5861704700BF003C014000230F2BCA
:101DC4004ED830B516E0C2681FFA83FE4FEA4E04BF
:101DD4004FF0030E0EFA04FE22EA0E02C260C2683D
:101DE40091F807E00EFA0CFC42EA0C02C2600133DF
:101DF4000F2B34D801229A400C68A243F7D104680F
:101E04004FEA430C032202FA0CF26FEA020E24EAB0
:101E14000202026002680C7904FA0CF422430260A4
:101E24000A79013AD2B2012ACDD882680EEA0202B6
:101E3400826082684C7904FA0CF42243826044681C
:101E44009DB24FF0010E0EFA05FE24EA0E04446022
:101E540044688A79AA4092B222434260B3E730BD13
:101E640070470369194201D0012070470020704770
:101E74008161704709048161704700B501F007036F
:101E84009B0002FA03FCC908083150F821204FF0E6
:101E94000F0E0EFA03F322EA030340F8213050F840
:101EA400212042EA0C0240F821205DF804FB0000E6
:101EB400014B1862704700BF00000E42014BC3F88B
:101EC400A000704700000E42054A136843F0020365
:101ED4001360044A136943F00403136130BF70476D
:101EE4000070004000ED00E0024A136843EA8003FA
:101EF400136070470070004010B4294B9B6803F0D6
:101F04000C03042B23D0082B24D013B1254B0360DE
:101F140001E0244B0360224CA368C3F3031322495A
:101F2400CB5CDAB20368D3404360A268C2F3822276
:101F34008A5CD2B223FA02F28260A268C2F342320D
:101F44008A5CD2B2D340C3605DF8044B7047174B30
:101F54000360E0E7124B59685A6802F03F0211F43B
:101F6400800F12D0114BB3FBF2F30D4A5268C2F347
:101F7400881202FB03F30A4A5268C2F30142013297
:101F84005200B3FBF2F30360C5E7064BB3FBF2F375
:101F9400034A5268C2F3881202FB03F3EBE700BF63
:101FA400003802400024F4005804002000127A0093
:101FB40021B1054A136B184310637047024A136B2F
:101FC40023EA0000106370470038024021B1054A3B
:101FD400136C184310647047024A136C23EA000020
:101FE400106470470038024021B1054A536C18430D
:101FF40050647047024A536C23EA000050647047EF
:1020040000380240002303E00133DBB20A38C0B2D7
:102014000928F9D81B01DBB218437047030903EB05
:10202400830300F00F0000EB4300C0B270470000D0
:1020340082B000230193114BDB6813F0400F17D1DA
:102044000E4B4FF0FF32DA600C4BDA6802F04002BC
:10205400019B01330193019BB3F5803F01D0002A1A
:10206400F2D0064BDB6813F0400F04D0012000E0EF
:10207400012002B070470020FBE700BF00280040A9
:10208400024AD36823F08003D360704700280040DD
:1020940082B000230193114BCA225A6253225A621E
:1020A400DA6822F0A002DA600C4BDA6802F020024F
:1020B400019B01330193019BB3F5003F01D0002A3A
:1020C400F2D0064BDB6813F0200F05D00120034B40
:1020D400FF225A6202B070470020F8E7002800404F
:1020E40038B50D460346E8B9254A926812F0400F08
:1020F40001D10022CA70EBB12B786C78240244EA37
:102104000344A8780443E87844EA00441C4BCA22F8
:102114005A6253225A62FFF78BFFE0B9184BFF2231
:102124005A6238BD164A926812F0400FE3D1002279
:10213400CA70E0E72878FFF765FF04046878FFF7C2
:1021440061FF44EA0024A878FFF75CFF0443E878C1
:1021540044EA0044DAE704F07F3424F0FE44084DF6
:102164002C60FFF78DFFAB6813F0200F01D0012026
:10217400D4E7FFF78DFF0028D0D00120CEE700BFC1
:102184000028004070B50C460E4B1D68C5F306428E
:10219400C5F305412170C5F30626667005F07F0579
:1021A400A57002F04003E37058B90846FFF736FF04
:1021B40020703046FFF732FF60702846FFF72EFF8D
:1021C400A07070BD0028004038B50D46024638B9ED
:1021D4004B7813F0100F03D003F0EF030A334B7066
:1021E400AAB1EB786C78240244EA0344A878044347
:1021F400287844EA4034184BCA225A6253225A625D
:10220400FFF716FFA0B9144BFF225A6238BDE878D5
:10221400FFF7F8FE04046878FFF7F4FE44EA0024AC
:10222400A878FFF7EFFE0443287844EA4034E2E755
:1022340024F07F4424F0C004074D6C60FFF720FFB6
:10224400AB6813F0200F01D00120DCE7FFF720FF7B
:102254000028D8D00120D6E70028004070B50E4BE6
:102264005B68C3F30742CA70C3F304264E7003F0DD
:102274003F058D70C3F342330B7060B90C461046B2
:10228400FFF7CCFEE0703046FFF7C8FE60702846CA
:10229400FFF7C4FEA07070BD002800402DE9F04196
:1022A400038803F441520F88B1F802808E88CD88E8
:1022B4000C89B1F80AE0B1F80CC0CB8947EA0807E9
:1022C4003E4335432C434EEA040E4CEA0E0C43EADB
:1022D4000C0313430380838B9BB223F400639BB2F0
:1022E40083830B8A0382BDE8F08129B103889BB202
:1022F40043F040030380704703889BB223F04003FC
:102304009BB203807047818170470389194201D0D1
:10231400012070470020704710B401F003029200BE
:102324000F2404FA02FC8908084B023153F82140B7
:1023340024EA0C0443F8214053F82140904004431C
:1023440043F821405DF8044B704700BF003801405A
:1023540003889BB21B4A904212D002F580629042DD
:102364000ED0B0F1804F0BD0A2F58032904207D04E
:1023740002F58062904203D002F58062904203D15C
:1023840023F070034A8813430F4A904208D002F5A1
:102394008062904204D023F440739BB20A891343B1
:1023A40003804B68C3620B880385064B984203D0B5
:1023B40003F58063984201D18B7A038601238382DB
:1023C400704700BF000001400010004029B103889D
:1023D4009BB243F080030380704703889BB223F0D1
:1023E40080039BB20380704729B103889BB243F0FA
:1023F40001030380704703889BB223F001039BB25F
:102404000380704700B5038C9BB223F480739BB2A6
:102414000384038C9BB2B0F804E01FFA8EFEB0F87C
:102424001CC01FFA8CFC2CF0730C0A884CEA020CBA
:1024340023F400738A89120292B21A434B881B0256
:102444009BB21343134A904203D002F58062904238
:1024540017D123F40063CA89120292B2134323F4FE
:1024640080628B881B029BB213432EF4405E0A8A5F
:10247400120192B24EEA020E4A8A120192B242EA62
:102484000E0EA0F804E0A0F81CC08A68C26303849E
:102494005DF804FB00000140838B9BB223F008032A
:1024A4000B438383704722B183899BB21943818193
:1024B40070478389C94389B2194081817047028A70
:1024C40083890B40114202D01BB9002070470020C1
:1024D400704701207047C94389B2018270470000E8
:1024E40030B585B004460D46038A9BB223F44053AD
:1024F400CA881343038283899BB223F4B05323F025
:102504000C03898828896A8901430A431343A381F8
:10251400A38A9BB223F44073AA891343A382684617
:10252400FFF7EAFC1F4B9C4205D003F580639C42F5
:1025340001D0029B00E0039BA28912F4004F1FD13B
:1025440003EB830303EB83032A689200B3FBF2F3E8
:10255400154AA2FB031252091101642002FB103335
:10256400A28912F4004F14D11B0132330E4AA2FB8C
:102574000323C3F343130B439BB2238105B030BD44
:1025840003EB830303EB83032A685200B3FBF2F3E8
:10259400DEE7DB003233044AA2FB0323C3F3421316
:1025A4000B43E9E7001001401F85EB5129B18389F2
:1025B4009BB243F400538381704783899BB223F415
:1025C40000539BB283817047C1F308018180704737
:1025D4008088C0F308007047C1F3421C01F01F015A
:1025E400012303FA01F19C4508D0BCF1020F07D086
:1025F40014303AB103681943016070470C30F8E7AE
:102604001030F6E7036823EA01010160704703888C
:10261400194201D00120704700207047C1F34212D3
:1026240001F01F0C012303FA0CF3012A0FD0022A34
:1026340011D0828A92B21340090A012202FA01F1EE
:10264400028892B20A4053B15AB900207047828975
:1026540092B21340F0E7028A92B21340ECE70020F2
:10266400704701207047000082B00023019300935B
:10267400294A136843F480331360274B1B6803F41F
:1026840000330093019B01330193009B1BB9019B11
:10269400B3F5A04FF1D1204B1B6813F4003F06D0D3
:1026A40001230093009B012B04D002B07047002348
:1026B4000093F7E7184B1A6C42F080521A641749DA
:1026C4000A6842F440420A609A689A609A689A607A
:1026D4009A6842F480529A60114A5A601A6842F029
:1026E40080721A600C4B1B6813F0007FFAD00D4BFC
:1026F40040F202721A60A3F580639A6822F0030222
:102704009A609A6842F002029A60034B9B6803F055
:102714000C03082BF9D1C8E70038024000700040D0
:1027240008544107003C024010B5104CD4F88830DE
:1027340043F47003C4F888300D4B1A6842F0010268
:102744001A60002199601A6822F0847222F480329F
:102754001A60084A5A601A6822F480221A60D96002
:10276400FFF782FF4FF00063A36010BD00ED00E0AF
:10277400003802401030002400B583B04FF4A0604C
:10278400FFF7D2F9FDF7E6FFFEF715FEFFF766F94E
:10279400FFF7E4F8FDF7D5FDFFF762F8FDF784FED7
:1027A400FDF710FEFEF7AAFDFEF749F8FFF7A4F8BF
:1027B4001E220521BE20FEF74CF94FF400511F489C
:1027C400FFF74FFB20BB1E4B00930F23082207216A
:1027D400B520FEF797F94FF480511A48FFF741FBF3
:1027E400F8B1194B00930F231A460A210846FEF745
:1027F40089F9164B01221A70154B1878FEF73EFA28
:10280400144A136843F00103136003B05DF804FB3A
:10281400002300931923BD220721B520FEF77DFB79
:10282400D9E70D4B00930F231A460A210846FEF7F9
:1028340069F9064B00221A70DEE700BF000402406B
:1028440038B6000800000240B0B20008940400202A
:1028540096040020003C014074B4000808B5FFF75A
:102864008BFFFEE77047FEE7FEE7FEE7FEE77047F3
:1028740070477047704708B50120FFF78FFA18B901
:102884000120FFF795FA08BDFFF72CF8F8E708B523
:102894000420FFF783FA18B90420FFF789FA08BD6A
:1028A400FDF7D0FEF8E7000000B583B04FF4805088
:1028B400FFF774FA38B94FF40050FFF76FFA40BBD2
:1028C40003B05DF804FB4FF480512048FFF7C9FAC8
:1028D40078B11F4B00930F231A460A210846FEF7CE
:1028E40011F91C4B01221A704FF48050FFF760FA63
:1028F400E1E7194B00930F231A460A210846FEF715
:1029040001F90022134B1A7001211448FFF7CBFD83
:10291400EAE74FF400511248FFF7A3FA60B9114BEC
:1029240000930F2308220721B520FEF7EBF84FF49C
:102934000050FFF73DFAC3E7002300931923BD229B
:102944000721B520FEF7E9FAF1E700BF00000240D5
:10295400B0B200089404002074B4000800040040DD
:102964000004024038B6000810B501210F48FFF7F3
:10297400A6FD20B901210D48FFF7ADFD10BDFEF7FE
:10298400D7FC9FED0B7AC0EE070A0A4BC3ED000A91
:10299400094CD4ED007AB8EE670A80EE070AFFF717
:1029A40026F8236805332360E4E700BF00040040F1
:1029B40000007A44900400209804002010B582B0EE
:1029C40001210C48FFF77BFD28B901210948FFF7D5
:1029D40082FD02B010BD6C462046FEF7F6FCFEF701
:1029E400B9F994E80C006FF031010A20FEF7AAF857
:1029F400EBE700BF0008004000B585B040F2255168
:102A04001F48FFF70BFE10B905B05DF804FB1C4826
:102A1400FFF7DEFDC2B2742A02D01A4B1B783BB317
:102A2400184801784B1CDBB20370174842540A2B38
:102A3400EAD1037A0D2B02D1437A0A2B07D0FF2166
:102A44000F48FFF7C1FD0F4B00221A70DCE7C37972
:102A5400029383790193437900930379C27881784F
:102A64004078FEF781FCAA210548FFF7ADFDEAE7AF
:102A7400044B00221A70C1B20148FFF7A5FDC3E759
:102A840000100140AA040020A004002010EE103A17
:102A9400184A23F0004393421BDDB3F1FF4F02DBDE
:102AA40030EE400A704700B583B0684600F060F825
:102AB40000F003000128DDED010A9DED000A0CD0B1
:102AC400022812D070B1012000F040FD03B05DF87F
:102AD40004FBDFED090A00F07DB900F037FDB1EE2B
:102AE400400AF3E700F076F9F0E700F073F9B1EE8D
:102AF400400AEBE7D80F493F0000000010EE103AFF
:102B0400194A23F0004393421CDDB3F1FF4F02DB6B
:102B140030EE400A704700B583B0684600F028F8EC
:102B240000F003000128DDED010A9DED000A0ED03E
:102B3400022813D070B100F04DF9B1EE400A03B091
:102B44005DF804FBDFED090A002000F0FFBC00F093
:102B540041F9F4E7012000F0F9FCF0E7012000F06E
:102B6400F5FCB1EE400AEAE7D80F493F0000000047
:102B740070B510EE103A894A23F00044944286B0AE
:102B8400054670DD864A944210EE106A22DC002B62
:102B9400DFED847A844A24F00F04B0EE407A40F3E7
:102BA400E480944270EE677A09BFDFED806A9FED9E
:102BB400807A9FED807A77EEE67A012077EEC76A15
:102BC40077EEE67AC5ED006A77EEC77AC5ED017A4D
:102BD40006B070BD784A944254DDB4F1FF4F49DA2F
:102BE400E215863AA4EBC25307EE903ABDEEE77ABB
:102BF400DFED726AB8EEC77A77EEC77A8DED037AA5
:102C040067EEA67ABDEEE77AB8EEC77A77EEC77AB2
:102C14008DED047A67EEA67AF5EE407AF1EE10FABD
:102C2400CDED057A40F09080B5EE407AF1EE10FAE1
:102C340014BF02230123624901910221009103A8D8
:102C4400294600F049F9002EC2DA95ED007AD5ED57
:102C5400017AB1EE477AF1EE677A85ED007AC5ED37
:102C6400017A4042B4E7002285ED000A4260002068
:102C740006B070BD70EE407A0020C5ED017AC5ED56
:102C8400007AA5E700F0AAFC9FED4E7A9FED456A15
:102C9400F6EE007AE0EE077A9FED457AFDEEE77AEC
:102CA40017EE900AF8EEE76A1F28A6EEC60A66EE4B
:102CB400877AB1EE666A1EDC434A411E24F0FF03A4
:102CC40052F82120934216D030EE677A85ED007ACF
:102CD40030EE470A002E30EE670A85ED010ABFF692
:102CE40077AFB1EE477AB1EE400A85ED007A85ED13
:102CF400010A40426CE730EE677AE21517EE103AAB
:102D0400C3F3C753C3EBD454082CDFDDDFED277ABC
:102D14009FED287AF0EE405AE6EE275A30EE650A27
:102D2400A6EE270AF0EE407AD6EE877A35EEE77AF9
:102D340017EE103AC3F3C753D21A192A06DCB0EEC1
:102D4400650A85ED007AC3E7032374E79FED1F7AD4
:102D54009FED1F5AB0EE650AA6EE070A75EEC07A1B
:102D6400E6EE077AD6EE857AAEE7944270EE277ADD
:102D740009BFDFED0E6A9FED0E7A9FED0E7A77EEB6
:102D8400A67A4FF0FF3077EE876A77EEE67AC5EDE4
:102D9400006A77EE877AC5ED017A19E7D80F493FC3
:102DA400E3CB1640800FC93FD00FC93F00443537ED
:102DB4004344353708A3852E800F494300008043E0
:102DC40008A2010884F9223F88A1010800A3852EE6
:102DD40032318D2410EE103A23F00043B3F1485FF2
:102DE4002CDAFDEEC07A17EE903A002B60D020EE7C
:102DF400007ADFED317A9FED315ADFED315A9FEDE4
:102E0400316ADFED316AA7EE275ADFED307AE7EE5B
:102E1400055AA7EE256AE7EE067AE7EE276A67EE1B
:102E2400266A60EEC00AF6EE007AE7EE260AB7EEEE
:102E3400000AD7EE270A30EE600A704720EE007AC7
:102E4400DFED1D7A9FED1D5ADFED1D5A9FED1D6AC2
:102E5400DFED1D6A1E4AA7EE275A9342DFED1B7A67
:102E6400E5EE075AA5EE876AE6EE077AE7EE876A8B
:102E740066EE876AD5DD174A934214DC03F17F437B
:102E840007EE903AB7EE006A36EE676A60EEC00A63
:102E9400F6EE005AD7EE257AE7EE260A77EEE00A38
:102EA40036EE600A7047B6EE076AF5EE027AEDE791
:102EB400B7EE000A704700BF4ED747ADF6740F3126
:102EC4007CF293B4010DD037ABAA2A3D610BB6BA9C
:102ED4009999993E0000483F2DE9F04F2DED048B60
:102EE400DBB01C4603930691A24B6899089253F8F1
:102EF4002150111D824604F1FF38C0F2A382D31E73
:102F040048BF131DDB1002930133DB000793DDE997
:102F140007239B1A0593029B15EB0801A3EB0803F7
:102F240016D401319FED947A699819441EAA002B96
:102F3400A4BF50F8234007EE904A03F10103ACBF4D
:102F4400F8EEE77AF0EE477A8B42E2EC017AEED1C2
:102F5400002DC0F2E782039B1EAA02EB830446AE57
:102F64004FEA830C4046EF180AEB8301B8F1000FD7
:102F7400DFED817A09DB22465346F3EC016A32ED38
:102F8400017A8B42E6EE877AF7D10130B842E6EC5B
:102F9400017A04F10404E9D109AB0AAF03EB850912
:102FA40007EB8503083B9FED769ADFED748A05985D
:102FB40004930AEB0C0446AE00955AAB03EB85036D
:102FC400002D13ED140A4FEA850B16DD06EB85037D
:102FD4003A4660EE097AB0EE407AFDEEE77A73ED98
:102FE400016AF8EEE77AB342A7EEE87A37EEA60A6A
:102FF400BDEEC77AA2EC017AEBD1019000F03CFB64
:10300400B0EE408AB4EE000A28EE000A00F0EEFAB0
:10301400F2EE007AA0EE678A01980028FDEEC89AC5
:10302400F8EEE97A38EE678A79DD05F1FF3EC0F102
:10303400080357F82E1041FA03FC0CFA03F3CB1AD9
:10304400C0F1070219EE901A43FA02F26144002A11
:1030540047F82E3009EE901A69DCB5EE408AF1EE9D
:1030640010FA40F0C080009B05F1FF3B5B4510DC8B
:1030740005F18043013B07EB83030021944653F899
:1030840004294B4541EA0201F9D16246002940F086
:10309400F280009B013B57F82330002B40F0E7807F
:1030A400049B4FF0010C53F804290CF1010C002A85
:1030B400F9D06B1CAC449E46039A5119029A02EB58
:1030C400030B0BF1804B699A0BF1FF3B06EB830575
:1030D4001EAB02EB8B0B03EB8101DBED017A9FED61
:1030E400267AF8EEE77AB8F1000F0BF1040BC1ED84
:1030F400007A0A4601F1040109DB534601E072ED4E
:10310400017AF3EC016AA342A6EEA77AF7D10EF195
:10311400010EE645A5EC017ADFDD65464DE740F09A
:103124009C806B1E57F82320D211002A95DD19EEDE
:10313400903A002D03F1010309EE903A40F398818F
:10314400396800297FD1012D26D03B464FF0010C70
:1031540053F8041F00297AD00CF10103C1F58071E2
:103164009D4247F82C1016DD57F82310BB4407EB9B
:1031740083030AE04CA5010800000000000080431E
:103184000000803B0000C93F1968C1F1FF0143F80A
:10319400041B5B45F8D1012100280CDD012800F057
:1031A4004881022807D105F1FF3C57F82C3003F081
:1031B4003F0347F82C30022A7FF44FAFB7EE000AE2
:1031C40030EE488A00293FF448AF0992019000F09C
:1031D40053FA38EE408A099A0198B5EE408AF1EE26
:1031E40010FA3FF440AF0292DDE90732B0EE480A2C
:1031F400981A0195009D00F03FFA1FED207AB4EE75
:10320400C70AF1EE10FADDE90132C0F259815FED2F
:10321400247A059960EE277A0831FDEEE77A059164
:10322400F8EEE77A03F1010BA7EEC70AFDEEE77AA1
:10323400BDEEC00A10EE101A47F8231017EE903AAC
:1032440047F82B302EE001234FF0000C86E70CF1F9
:10325400010CAC457FF47CAF9EE7F6EE007AB4EE49
:10326400E78AF1EE10FA80F2F2800022F5E66B1C98
:103274009E469C4620E70599A1F1080057F82B10BB
:1032840005902B46009D69B903F18043023B07EB8F
:103294008303014653F804090BF1FF3B0839002866
:1032A400F8D0059105980092B7EE000A00F0E4F911
:1032B400BBF1000F009AC0F228814FEA8B0E46AB97
:1032C40003EB0E060EF1040C1FED537A07EB0C030F
:1032D400311D73ED017AF8EEE77ABB4267EE807A2E
:1032E40020EE070A61ED017AF3D1002D1FED5B6A30
:1032F4004FF0000420DB9348DFED937AB0EE467A7A
:103304003146002303E09C4208DBB0EC017AF1EC87
:10331400016A01339D42E6EE877AF4DA5AAB03EB95
:103324008403A34543ED287AA6F1040604F10103BE
:1033340005D0002D1C46DEDADFED837AEEE76899CE
:1033440002291CDC002900F395800FD132ABDFED9C
:103354007E7A9C443CED017A634577EE877AF9D115
:103364000AB1F1EE677A069BC3ED007A19EE903A42
:1033740003F007005BB0BDEC048BBDE8F08F689BE5
:10338400032BF3D1BBF1000F00F0D4800EF5B4731E
:103394006B4432A913ED287A01EB8B0373ED017AA8
:1033A400F0EE476A37EE277A994277EEC77A83EDD3
:1033B400007A77EEA67AC3ED017AEFD1BBF1010F63
:1033C40040F3B8800BF1804B0EF5B4730BF1FF3B67
:1033D4000DEB030E4FEA8B0B0BF104031EED287A61
:1033E4000B4433A873ED017AF0EE476A37EE277A7F
:1033F400984277EEC77A83ED007A77EEA67AC3ED2A
:10340400017AEFD10BF1080BDFED4F7A01EB0B03DF
:10341400083133ED017A994277EE877AF9D1002A9F
:1034240056D10699329A339B0A604B60C1ED027AF9
:103434009CE705F1FF3C57F82C3003F07F0347F875
:103444002C30B8E608230793002302935FE519EEB6
:10345400903A002D03F1010309EE903AC8BF02220D
:103464003FF76EAEF7EE007A37EEC88A0222F4E533
:10347400002191E632A9DFED347A01EB830333EDC9
:10348400017A994277EE877AF9D19DED327A8ABB37
:10349400069BBBF1000FC3ED007A77EE677A0BDD74
:1034A40033A90123B1EC017A01339B4577EE877A86
:1034B400F8DA0AB1F1EE677A069BC3ED017A55E7B3
:1034C400BDEEC00A9B4610EE101A47F82310E9E639
:1034D400DDED326A9DED337A069BF1EE666AB1EE5C
:1034E400477AF1EE677AC3ED006A83ED017AC3EDA2
:1034F400027A3BE7069BF1EE676ABBF1000F77EEB9
:10350400677AC3ED006ACBDCD4E7689B022B0DDC41
:10351400002B14DC7FF42AAFDFED0B7A002A3FF492
:1035240022AF1EE7039B4FEA830C35E5689B032B10
:103534007FF41CAFDFED047A002AC9D171E7DFED17
:10354400027AA2E724A501080000000010EE103A58
:1035540023F00043B3F1485F04DAFDEEC07A17EEBE
:10356400903A5BB360EE007A9FED157ADFED155A61
:103574009FED156ADFED156AE7EE875A9FED147A21
:10358400A5EEA76A20EE275AE6EE276AA6EEA77AEA
:1035940030B9DFED106AE7EE876AA6EE850A704758
:1035A40027EE457AF6EE006AA0EEA67ADFED0A6A07
:1035B400D7EE270AE5EE260A30EE600A704700BF10
:1035C400D3C92E2F342FD7B21BEF3836010D50B983
:1035D4008988083CABAA2ABEABAA2A3E10EE103A50
:1035E40023F0004300EE103A704700BF10EE102A9B
:1035F400C2F3C7537F3B162B22F0004128DC002B7B
:1036040018DB1A4919410A4221D0DFED197A70EE0C
:10361400277AF5EEC07AF1EE10FA18DD002A04DA02
:103624004FF4000040FA03F31A4422EA010300EEC7
:10363400103A7047DFED0E7A70EE277AF5EEC07A15
:10364400F1EE10FA03DD002A08DB9FED0A0A704749
:10365400B1F1FF4FFBD330EE000A7047FFEE007A62
:10366400002918BFB0EE670A704700BFFFFF7F0054
:10367400CAF249710000000082B08DED010A019B7D
:1036840033F000422AD0B2F1FF4F23D213F0FF4FA0
:1036940028D19DED017ADFED2A7A2A4B67EE277A4D
:1036A4009842CDED017A37DB019BC3F3C752193A37
:1036B4000244FE2A1ADD9FED240A9FED247A019B21
:1036C400002BF0EE407AB8BFB0EE470A20EE270A8E
:1036D40002B0704730EE000A02B070479DED010A57
:1036E40002B07047D20D0244FE2AE4DC002A0BDC4F
:1036F40012F1160F17DA4CF250339842DBDC9FEDCF
:10370400140A9FED147ADAE723F0FF4343EAC25325
:1037140000EE103A02B070479FED0D0ADDED017A1C
:1037240027EE800AD8E7193223F0FF4343EAC25355
:10373400DFED097A07EE103A27EE270ACCE700BF3F
:103744000000004CB03CFFFFCAF24971CAF249F1D3
:103754006042A20D6042A28D00000033F8B500BFA4
:10376400F8BC08BC9E467047F8B500BFF8BC08BC5E
:043774009E467047B6
:103778000000002000000000000000000000000021
:103788000008080808080800000808000014140ABF
:1037980000000000000000000014143E141414146B
:1037A800143E141400081C2A2A0C18282A2A1C085B
:1037B80000242A1A140808142C2A120000040A0AE1
:1037C80004042A2A12122C00000C0804000000002D
:1037D800000000000010080804040404040808108D
:1037E8000004080810101010100808040000000851
:1037F8002A2A1C2A2A0800000000000808083E0897
:10380800080800000000000000000000000C080488
:103818000000000000001E00000000000000000082
:1038280000000000000C0C00002020101008080800
:103838000404020200000C121212121212120C00DE
:103848000000080C080808080808080000000C1206
:103858001210080404021E0000000C1212100C10B2
:1038680012120C0000001018181414123E10100048
:1038780000001E02020E121012120C0000000C12A0
:1038880012020E1212120C0000001E101008080876
:103898000404040000000C1212120C1212120C0084
:1038A80000000C1212121C1012120C000000000072
:1038B8000C0C0000000C0C00000000000C0C0000B8
:1038C800000C08040000201008040204081020005E
:1038D800000000001E00001E00000000000002049E
:1038E800081020100804020000000C12121008082A
:1038F8000008080000001C222E2A2A2E12221C0072
:1039080000000808141414223E22220000001E227F
:1039180022221E2222221E0000001C222202020253
:1039280022221C0000000E122222222222120E0045
:1039380000003E0202021E0202023E0000003E0299
:1039480002021E020202020000001C2222020232AF
:1039580022322C000000222222223E222222220091
:1039680000001C080808080808081C0000001010BF
:103978001010101012120C00000012120A0A060A87
:103988000A121200000002020202020202023E00B3
:10399800000022223636362A2A2A2A000000222649
:1039A800262A2A2A3232220000001C22222222221F
:1039B80022221C0000001E2222221E0202020200F5
:1039C80000001C22222222222A122C0000001E2281
:1039D80022221E122222220000001C222204081089
:1039E80022221C0000003E080808080808080800F1
:1039F800000022222222222222221C00000022224F
:103A0800221414140808080000002A2A2A2A2A1452
:103A18001414140000002222141408141422220082
:103A280000002222141408080808080000003E209C
:103A38001010080404023E000038080808080808A6
:103A4800080808380002020404080808101020209A
:103A5800000E0808080808080808080E00081400DE
:103A6800000000000000000000000000000000004E
:103A78000000003F000408000000000000000000F3
:103A880000000000000C121C12122C0000000202A0
:103A9800021E222222221E0000000000001C220218
:103AA80002221C0000002020203C222222223C006E
:103AB80000000000001C223E02221C000000180426
:103AC800040E04040404040000000000002C120C7E
:103AD800021C221C00000202021E222222222200B4
:103AE800000008080008080808080800000008087E
:103AF8000008080808080806000002020222120A44
:103B08000E12220000000808080808080808080023
:103B18000000000000162A2A2A2A2A0000000000B5
:103B2800001E22222222220000000000001C222265
:103B380022221C0000000000001E2222221E020277
:103B480000000000003C2222223C2020000000004F
:103B580000340C040404040000000000001C220CC3
:103B680010221C0000000404040E040404041800BD
:103B7800000000000022222222223C000000000057
:103B8800002222141408080000000000002A2A2A33
:103B98001414140000000000002214080814220065
:103BA800000000000022221414080806000000008B
:103BB800003E201008043E00001808080808040801
:103BC800080808180808080808080808080808085D
:103BD800000C0808080810080808080C002C120037
:103BE80000000000000000000000000000000000CD
:103BF8000000000000000000000808080808080885
:103C080008080000181800006C24120000000000CA
:103C1800000000000000000000242424247F121269
:103C280012123F1212121200081C2A49490A0C18D3
:103C3800284849492A1C080000464929291610081D
:103C480004344A4A49310000000C121212120C04C2
:103C58002A291111294600000C0C08040000000054
:103C680000000000000000002010080804040404FC
:103C7800040404080810200002040808101010109A
:103C8800101010080804020000000008492A1C0847
:103C98001C2A490800000000000000000808087FEE
:103CA80008080800000000000000000000000000F4
:103CB8000000000C0C080400000000000000003E9A
:103CC80000000000000000000000000000000000EC
:103CD800000000000C0C00000040402020101008DC
:103CE8000404020201010000000C122121212121FB
:103CF80021212121120C000000080E0808080808DC
:103D08000808080808080000000C122121201010DB
:103D180008040402013F0000000C12212120100CAD
:103D280010202121120C0000001010181814141271
:103D380012113F1010100000003F0101010D132166
:103D480020202021120C0000000C122121010D134B
:103D580021212121120C0000003F20201010100802
:103D68000808040404040000000C12212121120C8C
:103D780012212121120C0000000C122121212132D4
:103D88002C202121120C000000000000000C0C0067
:103D98000000000C0C00000000000000000C0C00EB
:103DA8000000000C0C0804000000201008040201A8
:103DB800020408102000000000000000003E00007F
:103DC800003E00000000000000000102040810206E
:103DD8001008040201000000000C12212120100824
:103DE800040400000C0C0000001C224159555555D4
:103DF80055553901423C00000008081414141422D7
:103E080022223E4141410000001F21414141211F22
:103E180021414141211F0000001C224141010101B3
:103E280001014141221C0000001F21414141414143
:103E380041414141211F0000007F01010101013F73
:103E480001010101017F0000007F01010101013F23
:103E58000101010101010000001C22414101010191
:103E680071414141625C0000004141414141417F53
:103E78004141414141410000001C08080808080868
:103E880008080808081C0000002020202020202006
:103E980020202121120C00000041212111090905CF
:103EA8000B11112141410000000101010101010133
:103EB80001010101017F0000004141636363635513
:103EC8005555554949490000004141434345454935
:103ED8004951516161410000001C22414141414169
:103EE80041414141221C0000001F21414141211F45
:103EF8000101010101010000001C22414141414131
:103F080041414951225C0000001F21414141211FCC
:103F18001111212141410000001C224141010618D4
:103F280020404141221C0000007F080808080808BA
:103F38000808080808080000004141414141414182
:103F480041414141221C00000041414122222222DC
:103F580014141408080800000049494949555555E2
:103F68005522222222220000004141222214140854
:103F78001414222241410000004141222214140855
:103F88000808080808080000007F402020101008D2
:103F980004040202017F00003E0202020202020241
:103FA8000202020202023E00004141222214143E93
:103FB80008083E08080800003E2020202020202075
:103FC8002020202020203E000814220000000000AD
:103FD80000000000000000000000000000000000D9
:103FE80000000000000000FF0408100000000000AE
:103FF80000000000000000000000000000001E217A
:10400800203C2221316E00000001010101011D2325
:1040180041414141231D00000000000000003C42D6
:1040280001010101423C00000040404040405C6208
:1040380041414141625C00000000000000001C2278
:10404800417F0101423C00000018040404041F04DD
:1040580004040404040400000000000000005C22C2
:10406800221C023E41413E000001010101011D23C5
:104078004141414141410000000008080000080892
:1040880008080808080800000000080800000808D8
:1040980008080808080806000001010101012111AB
:1040A80009050B1121410000000808080808080844
:1040B8000808080808080000000000000000354B48
:1040C80049494949494900000000000000001D23F2
:1040D80041414141414100000000000000001C2214
:1040E80041414141221C00000000000000001D2346
:1040F800414141231D0101000000000000005C62F5
:10410800414141625C404000000000000000740C26
:1041180004040404040400000000000000003E4100
:1041280001063840413E00000000040404041F0456
:1041380004040404041800000000000000004141C9
:1041480041414141625C0000000000000000414123
:104158002222141408080000000000000000494949
:10416800495555222222000000000000000041228B
:10417800140808142241000000000000000041411A
:1041880022221414080403000000000000007F200D
:1041980010080402017F000038080808080808040D
:1041A800080808080808380008080808080808085F
:1041B80008080808080808080E0808080808081069
:1041C8000808080808080E0026190000000000006A
:1041D80000000000000000000000000000000000D7
:1041E80000000000000000000000000000000000C7
:1041F80000000000000000000000000000000000B7
:1042080000000000000000000000000000000000A6
:104218000000000000000000000000000000000096
:1042280000000000C003C003C003C003C003C003F4
:10423800800380018001800180018001800180016C
:1042480080010000000000008001C003C00380015D
:10425800000000000000000000000000C018E01C82
:10426800E01C700E300618038C018400000000006A
:104278000000000000000000000000000000000036
:104288000000000000000000000000000000000026
:104298000000000000000000000000000000000016
:1042A8000000000020102010201020102010FE7F99
:1042B800FE7FFE7F1008100810081008100810086C
:1042C800FE7FFE7FFE7F180C08040804080408041B
:1042D80000000000000000000000000000000000D6
:1042E80080008000C003B00C90189818981C981C87
:1042F800B800B000F000E000C0038007800F800C19
:10430800801C80189C189C188C188C0C9806E0034C
:104318008000800080000000000000000000000015
:10432800000000001C0836082204630463026302CC
:104338006302630163012201B61C9C36402240637C
:104348004063206320631063106310220836081C42
:104358000000000000000000000000000000000055
:1043680000000000F00098008C018C018C018C0189
:104378008C00CC005C0038001C3E3C0832087308F6
:104388006304E304C3048303834306678C3E781CF9
:104398000000000000000000000000001C003C00BD
:1043A8003C003000300010000C0006000000000047
:1043B80000000000000000000000000000000000F5
:1043C80000000000000000000000000000000000E5
:1043D8000000000000000000000000000040002075
:1043E80000100018000C000400060002000300037F
:1043F80080018001800180018001800180018001AD
:10440800800100030003000200060004000C0018ED
:10441800001000200040000000000000020004001E
:10442800080018003000200060004000C000C000F4
:10443800800180018001800180018001800180016C
:104448008001C000C000C0006000200030001800DB
:104458000800040002000000000000000000000046
:1044680000000000000000000003800380030C63CC
:104478001C713839600D80038003600D38391C7158
:104488008C618003800380030000000000000000AE
:104498000000000000000000000000000000000014
:1044A8000000000000000000000000010001000101
:1044B8000001000100010001FC7F00010001000172
:1044C80000010001000100010000000000000000E0
:1044D80000000000000000000000000000000000D4
:1044E80000000000000000000000000000000000C4
:1044F80000000000000000000000000000000000B4
:1045080000000000000000001C003C003C003000DF
:10451800300010000C000600000000000000000041
:104528000000000000000000000000000000000083
:104538000000000000000000FE7F000000000000F6
:104548000000000000000000000000000000000063
:104558000000000000000000000000000000000053
:104568000000000000000000000000000000000043
:104578000000000000000000000000000000000033
:10458800000000000000000018003C003C0018007B
:1045980000000000000000000000000000000040D3
:1045A800006000200030001000180008000C000413
:1045B800000600020003000180018000C0004000E6
:1045C8006000200030001000180008000C000400F3
:1045D80006000200000000000000000000000000CB
:1045E80000000000C0036004300C181818181810D8
:1045F8000C300C300C300C300C300C300C300C30D3
:104608000C300C30181018181818300C6004C0033F
:104618000000000000000000000000000000000092
:104628000000000000018001F80180018001800184
:10463800800180018001800180018001800180016A
:10464800800180018001800180018001C003F81F82
:104658000000000000000000000000000000000052
:1046680000000000E007101C0818043004300C306B
:104678000C30003000180018000C00060003800100
:10468800C00040002020102008200430FC1FFC1F20
:104698000000000000000000000000000000000012
:1046A80000000000E00318060C0C0C180C180C187D
:1046B80000180018000C0006C003000E00180010B7
:1046C800003000300C300C300C100C18180CE003C3
:1046D80000000000000000000000000000000000D2
:1046E800000000000006000600070007800680069C
:1046F8004006200620061006100608060C060406CA
:104708000206FE3F00060006000600060006C03F3F
:104718000000000000000000000000000000000091
:1047280000000000F03FF03F080008000800080003
:1047380008000800C807280C1818081000300030B6
:10474800003000300C300C3004180418180CE0034A
:104758000000000000000000000000000000000051
:1047680000000000800760183018101818000800B2
:1047780008000C00CC076C0C1C181C100C300C30FA
:104788000C300C300C30183018103018700CC00772
:104798000000000000000000000000000000000011
:1047A80000000000F83FF83F08100C080408040453
:1047B80000040002000200020001000180008000E5
:1047C80080008000C000C000C000C000C000C00061
:1047D80000000000000000000000000000000000D1
:1047E80000000000E007300C18180C300C300C30BA
:1047F8001C301C107818F004E003180F0C1E0C1C59
:10480800063806300630063006300C18180CE0035F
:104818000000000000000000000000000000000090
:1048280000000000E00318040C080C1806100630FD
:1048380006300630063006300E380C341836F031A3
:1048480000300018001800080C0C0C060C03F001CE
:104858000000000000000000000000000000000050
:104868000000000000000000000000000000000040
:1048780000008001C003C0038001000000000000A8
:1048880000000000000000008001C003C003800198
:104898000000000000000000000000000000000010
:1048A8000000000000000000000000000000000000
:1048B80000000000C001C001C001000000000000AD
:1048C80000000000000000000000C001C001C0019D
:1048D8008001C000C00000000000000000000000CF
:1048E8000000000000200010000800040002000181
:1048F8008000400020001000080008001000200080
:1049080040008000000100020004000800100020A0
:10491800000000000000000000000000000000008F
:10492800000000000000000000000000000000007F
:104938000000FE7F00000000000000000000FE7F75
:10494800000000000000000000000000000000005F
:10495800000000000000000000000000000000004F
:104968000000000004000800100020004000800043
:1049780000010002000400080010001000080004F4
:104988000002000180004000200010000800040020
:10499800000000000000000000000000000000000F
:1049A80000000000C0073018183008600C601C6058
:1049B8001C601C6000300018000E0003000100019C
:1049C80000010001000000008001C003C003800155
:1049D80000000000000000000000000000000000CF
:1049E80000000000C0076008301018200C2B8C4D08
:1049F800844CC64CC644664466446644664666268D
:104A080066266417CC0C0C40082018303018C007F4
:104A1800000000000000000000000000000000008E
:104A280000000000C001C001C001C0012003200334
:104A38002003200330021006100610061804F80F91
:104A4800080C080C080C04180418041806381F7CF5
:104A5800000000000000000000000000000000004E
:104A680000000000FE07181C1818183018301830FD
:104A7800183018301818180CF8071818183018209B
:104A88001860186018601860186018301818FE0F41
:104A9800000000000000000000000000000000000E
:104AA80000000000C0076038103018600C400C404F
:104AB8000C000600060006000600060006000600B8
:104AC800060006000C400C40082018103008C007EB
:104AD80000000000000000000000000000000000CE
:104AE80000000000FE03180E1818181018301830AF
:104AF80018601860186018601860186018601860EE
:104B08001860182018301830181818181806FE03DE
:104B1800000000000000000000000000000000008D
:104B280000000000FE3F18301820184018401800F8
:104B3800180018081808180CF80F180C1808180886
:104B48001800180018001840184018201830FE3FA8
:104B5800000000000000000000000000000000004D
:104B680000000000FE3F18381820184018401800B0
:104B7800180018081808180CF80F180C1808180846
:104B880018081800180018001800180018007E00EF
:104B9800000000000000000000000000000000000D
:104BA80000000000C003300C100818180C100C107E
:104BB800040006000600060006000600067E061829
:104BC800061804180C180C18081818183004E003F4
:104BD80000000000000000000000000000000000CD
:104BE800000000003FFC0C300C300C300C300C3056
:104BF8000C300C300C300C30FC3F0C300C300C30CE
:104C08000C300C300C300C300C300C300C303FFCBD
:104C1800000000000000000000000000000000008C
:104C280000000000F81F80018001800180018001E0
:104C38008001800180018001800180018001800164
:104C48008001800180018001800180018001F81FBE
:104C5800000000000000000000000000000000004C
:104C680000000000E07F00060006000600060006BF
:104C780000060006000600060006000600060006FC
:104C880000060006000600060006000600060006EC
:104C98000E060E038E01FC0000000000000000005C
:104CA800000000007E3E180C1804180618021801AF
:104CB800180198009800D800B801B8011803180323
:104CC80018061806180C180C180C181818187E7CDA
:104CD80000000000000000000000000000000000CC
:104CE800000000007E0018001800180018001800C6
:104CF80018001800180018001800180018001800EC
:104D08001800180018001840184018201830FE3FE6
:104D1800000000000000000000000000000000008B
:104D2800000000000FF01C381C381C381C381C34DC
:104D380034343434343434323432643264326432A5
:104D480064314431C431C431C430C43084308FFC40
:104D5800000000000000000000000000000000004B
:104D6800000000000FF81C201C2034203420642090
:104D78006420C420C420842184210423042304261D
:104D88000426042C042C04380438043004301F2072
:104D9800000000000000000000000000000000000B
:104DA80000000000C003300C181808100C300C303C
:104DB80006200660066006600660066006600660FB
:104DC800066004600C300C3008101818300CC00352
:104DD80000000000000000000000000000000000CB
:104DE80000000000FE0F18181830186018601860CE
:104DF80018601860186018301818F807180018009C
:104E080018001800180018001800180018007E0074
:104E1800000000000000000000000000000000008A
:104E280000000000C003300C181808100C300C30BB
:104E3800066006600660066006600660066006603A
:104E480006600660E4211C331C36181E300EC007AD
:104E5800004C003C0038000000000000000000008A
:104E680000000000FE07181C1818183018301830F9
:104E7800183018301818180CF807180318031806F3
:104E880018061806180C180C180C181818187E781C
:104E9800000000000000000000000000000000000A
:104EA80000000000F013181E0C1806180610061053
:104EB80006000E003C00F800E003800F001E0018FA
:104EC800003802300230063004300C181C0CE4079D
:104ED80000000000000000000000000000000000CA
:104EE80000000000FC3F8C218461824182418001E6
:104EF80080018001800180018001800180018001A2
:104F08008001800180018001800180018001E0072B
:104F18000000000000000000000000000000000089
:104F2800000000003F7C0C100C100C100C100C1032
:104F38000C100C100C100C100C100C100C100C1089
:104F48000C100C100C100C100C1018083804E0038E
:104F58000000000000000000000000000000000049
:104F6800000000003E78183018101810181030088B
:104F780030083008300830046004600460046002BF
:104F8800C002C002C002C001800180018000800010
:104F98000000000000000000000000000000000009
:104FA80000000000CFF386618621842104210C23B0
:104FB8008C238C238C138C1388134812581658167C
:104FC800580E380E300E300E300C30041004100419
:104FD80000000000000000000000000000000000C9
:104FE800000000003E7C18101808300830046004E7
:104FF8006002C002C001800180018001800340037B
:1050080040062006200E100C100C181808383E7C9C
:105018000000000000000000000000000000000088
:10502800000000007E7C1C1018101808300830089A
:10503800300460046004C002C002C0018001800125
:105048008001800180018001800180018001E007EA
:105058000000000000000000000000000000000048
:1050680000000000F87F383018300C180418000CC5
:10507800000600060003000380018001C000C00094
:10508800600060003000184018600C200C38FE3FAB
:105098000000000000000000000000000000C03F09
:1050A800C000C000C000C000C000C000C000C000F8
:1050B800C000C000C000C000C000C000C000C000E8
:1050C800C000C000C000C000C000C000C000C000D8
:1050D800C000C03F00000000000000000000000009
:1050E8000000180018001000300020006000600068
:1050F8004000C00080008001800100010003000220
:1051080000060006000C000C000C00180018003007
:105118000030003000600000000000000000FC03C8
:10512800000300030003000300030003000300035F
:10513800000300030003000300030003000300034F
:10514800000300030003000300030003000300033F
:105158000003FC030000000000000000C003C007BB
:1051680060041008000000000000000000000000BB
:105178000000000000000000000000000000000027
:105188000000000000000000000000000000000017
:105198000000000000000000000000000000000007
:1051A80000000000000000000000000000000000F7
:1051B80000000000000000000000000000000000E7
:1051C80000000000000000000000000000000000D7
:1051D800000000000000FFFF000000007800C00091
:1051E80000010000000000000000000000000000B6
:1051F80000000000000000000000000000000000A7
:105208000000000000000000000000000000000096
:105218000000000000000000000000000000000086
:105228000000000000000000000000000000000076
:105238000000E007180C0C180C180C18001CE01BD8
:1052480038180C1806180618061806980C9EF871D7
:105258000000000000000000000000000000000046
:10526800000010001E001800180018001800180090
:1052780018009807581C381838301830183018306B
:10528800183018301830183018103818380CC8076B
:105298000000000000000000000000000000000006
:1052A80000000000000000000000000000000000F6
:1052B8000000C0077008301818180C180C000C00F3
:1052C8000C000C000C000C20182018103008C00727
:1052D80000000000000000000000000000000000C6
:1052E80000000010001E0018001800180018001810
:1052F8000018E01B301C181818180C180C180C187B
:105308000C180C180C180C180818181C307AE0091E
:105318000000000000000000000000000000000085
:105328000000000000000000000000000000000075
:105338000000C003300C101818100C300C300C3062
:10534800FC3F0C000C000C00182018107018C00747
:105358000000000000000000000000000000000045
:1053680000000000003E80618060C060C000C00096
:10537800C000FC1FC000C000C000C000C000C000CA
:10538800C000C000C000C000C000C000C000F80FCE
:105398000000000000000000000000000000000005
:1053A80000000000000000000000000000000000F5
:1053B8000000C077306C1018181818181818101832
:1053C800300CF00718001800F803F01F18380C30DC
:1053D8000C300C301818E007000000000000000036
:1053E800000010001E00180018001800180018000F
:1053F80018009807580C381818181818181818187A
:1054080018181818181818181818181818187E7E48
:105418000000000000000000000000000000000084
:10542800000000008001C0038001000000000000AF
:105438000001F80180018001800180018001800164
:105448008001800180018001800180018001F81FB6
:105458000000000000000000000000000000000044
:1054680000000000001C001E000C000000000000EE
:105478000008C00F000C000C000C000C000C000C05
:10548800000C000C000C000C000C000C000C000CB4
:10549800000C18061802F0010000000000000000CF
:1054A800000010001E00180018001800180018004E
:1054B8001800183E180C1804180218019801D80191
:1054C800780338031806180C180C181818387E7C3E
:1054D80000000000000000000000000000000000C4
:1054E80000000001F8018001800180018001800135
:1054F800800180018001800180018001800180019C
:105508008001800180018001800180018001F81FF5
:105518000000000000000000000000000000000083
:105528000000000000000000000000000000000073
:105538000400F73C8E6386618661866186618661B8
:105548008661866186618661866186618661CFF340
:105558000000000000000000000000000000000043
:105568000000000000000000000000000000000033
:10557800000090075E0C3818181818181818181812
:1055880018181818181818181818181818187E7EC7
:105598000000000000000000000000000000000003
:1055A80000000000000000000000000000000000F3
:1055B8000000C003300C1018181808300C300C30DC
:1055C8000C300C300C300C3018181818300CC00384
:1055D80000000000000000000000000000000000C3
:1055E80000000000000000000000000000000000B3
:1055F800000090075E0C3818181018301830183052
:10560800183018301830183018183818780C9807CF
:105618001800180018007E000000000000000000BC
:105628000000000000000000000000000000000072
:105638000000C013301E181C18180C180C180C1871
:105648000C180C180C180C180818181C301EE01927
:10565800001800180018007E00000000000000007C
:105668000000000000000000000000000000000032
:10567800000060387E666061E001E0006000600064
:105688006000600060006000600060006000FE076D
:105698000000000000000000000000000000000002
:1056A80000000000000000000000000000000000F2
:1056B8000000C02760383030302030207000E00310
:1056C800800F001E00380830083018303818C80F0E
:1056D80000000000000000000000000000000000C2
:1056E8000000000000000000800080008000C00072
:1056F800E000FC1FC000C000C000C000C000C00027
:10570800C000C000C000C000C020C0208011000F31
:105718000000000000000000000000000000000081
:105728000000000000000000000000000000000071
:1057380010101E1E181818181818181818181818E5
:1057480018181818181818181818181C307AE0099A
:105758000000000000000000000000000000000041
:105768000000000000000000000000000000000031
:1057780000003E7C18301810181830083008200433
:1057880060046004C002C002C00380018001800080
:105798000000000000000000000000000000000001
:1057A80000000000000000000000000000000000F1
:1057B8000000DFF3866184218C218C218C138813EF
:1057C80058135812580E700E300E300C3004200446
:1057D80000000000000000000000000000000000C1
:1057E80000000000000000000000000000000000B1
:1057F80000007C3E300870086004C002C0028001CE
:105808008001800340062006200C101818183E7EE0
:105818000000000000000000000000000000000080
:105828000000000000000000000000000000000070
:1058380000003E7C1818180810083008200460047E
:1058480060044002C0028002800180018000800064
:10585800800040007C003C000000000000000000C8
:105868000000000000000000000000000000000030
:105878000000FC1F0C1C0C0C04060407000380012C
:10588800C001C00060007020302018300C18FC1FC8
:1058980000000000000000000000000000300008C8
:1058A80000040004000400040004000400040004D0
:1058B8000004000400040003800100020004000446
:1058C80000040004000400040004000400040004B0
:1058D8000004000800300000000100010001000180
:1058E80000010001000100010001000100010001A8
:1058F8000001000100010001000100010001000198
:105908000001000100010001000100010001000187
:105918000001000100010001000000001800200043
:10592800400040004000400040004000400040006F
:10593800400040004000800100038000400040001B
:10594800400040004000400040004000400040004F
:10595800400020001800000000007800C4008241C8
:1059680002410027001C00000000000000000000A9
:10597800000000000000000000000000000000001F
:10598800000000000000000000000000000000000F
:1059980000000000000000000000000000000000FF
:1059A80000000000000000000000000000000000EF
:1059B80000000000000000000000000000000000DF
:1059C80000000000000000000000000000000000CF
:1059D80000000000000000000000000000000000BF
:1059E80000000000000000000000000000000000AF
:1059F800000000000000000000000000000000009F
:105A0800000000000000000000000000000000008E
:105A1800000000000000000000000000000000007E
:105A2800000000000000000000000000000000006E
:105A3800000000000000000000000000000000005E
:105A4800000000000000000000000000000000004E
:105A5800000000000000000000000000000000003E
:105A6800000000000000000000000000000000002E
:105A7800000000000000000000000000000000001E
:105A8800000000000000000000000000000000000E
:105A980000000000000000000000000000000000FE
:105AA80000000000000000000000000000000000EE
:105AB80000E0010000F0030000F0030000F0030024
:105AC80000F0030000F0030000F0030000F0030002
:105AD80000F0030000E0010000E0010000E0010028
:105AE80000E0010000E0010000E0010000E001002A
:105AF80000C0000000C0000000C0000000C000009E
:105B080000C0000000C0000000C0000000C000008D
:105B180000C0000000C0000000C00000000000003D
:105B2800000000000000000000000000000000006D
:105B3800000000000000000000E0000000F001008C
:105B480000F8030000F8030000F8030000F001006B
:105B580000E000000000000000000000000000005D
:105B6800000000000000000000000000000000002D
:105B7800000000000000000000000000000000001D
:105B88000000000000000000000000000038700065
:105B9800007CF800007CF800007EFC00003E7C00E1
:105BA800001F3E00000F1E0080070F008003070043
:105BB800C0810300E0C0010060C000003060000048
:105BC800102000000000000000000000000000009D
:105BD80000000000000000000000000000000000BD
:105BE80000000000000000000000000000000000AD
:105BF800000000000000000000000000000000009D
:105C0800000000000000000000000000000000008C
:105C1800000000000000000000000000000000007C
:105C2800000000000000000000000000000000006C
:105C3800000000000000000000000000000000005C
:105C4800000000000000000000000000000000004C
:105C5800000000000000000000000000000000003C
:105C6800000000000000000000000000000000002C
:105C7800000000000000000000000000000000001C
:105C8800000000000000000000000000000000000C
:105C9800000000000006C0000006C0000006C000AA
:105CA8000006C0000006C0000006C0000006C000D4
:105CB8000003600000036000FCFFFF0FFCFFFF0F04
:105CC800FCFFFF0FFCFFFF0F0003600000036000F4
:105CD8000003600000036000000360000003600030
:105CE8000003600080013000800130008001300036
:105CF800800130008001300080013000FCFFFF0F80
:105D0800FCFFFF0FFCFFFF0FFCFFFF0F80013000BF
:105D18008001300080013000C0001800C000180069
:105D2800C0001800C0001800C0001800C00018000B
:105D3800C000180000000000000000000000000083
:105D4800000000000000000000000000000000004B
:105D5800000000000000000000000000000000003B
:105D6800000000000000000000000000000000002B
:105D78000000000000C0000000C0000000C00000DB
:105D880000C0000000F0070000DC180000C7700029
:105D980080C3E00080C3E000C0C1E001E0C1E001D1
:105DA800E0C1F001E0C1F001E0C1F001E0C3E000B2
:105DB800E0C30000C0C70000C0CF000080DF0000C3
:105DC80000FF000000FE000000FC010000F80300D6
:105DD80000F0070000C00F0000C01F0000C03F0017
:105DE80000C07E0000C0FC0000C0F80000C0F00148
:105DF80000C0F001E0C1E001E0C3E001F0C3E00150
:105E0800F0C3E001F0C3E001F0C1E000E0C0E00051
:105E1800E0C07000C0C0700080C1380000C70E002C
:105E280000F8030000C0000000C0000000C000002F
:105E380000C0000000C0000000C00000000000001A
:105E4800000000000000000000000000000000004A
:105E5800000000000000000000000000000000003A
:105E6800000000000000000000000000000000002A
:105E780000000000E003C0003006C000180CC0009D
:105E88001C1C60000C1860000C1830000E38300024
:105E98000E3818000E3818000E3808000E380C009E
:105EA8000E380C000E3806000E3806000E380200B8
:105EB8000C1803001C1801001C9C0100188CF1012F
:105EC80030C61803E0C30C0600400C0600600E0E36
:105ED8000020060C0030071C0030071C0018071CA7
:105EE8000018071C0008071C000C071C0004071CEE
:105EF8000006071C0006071C0003071C0003060C0D
:105F080000010E0C80010C0E80000C06C000180366
:105F1800C000F001000000000000000000000000C8
:105F28000000000000000000000000000000000069
:105F38000000000000000000000000000000000059
:105F48000000000000000000000000000000000049
:105F58000000000000000000000000000000000039
:105F680000000000007E000000E3000080C1010086
:105F7800C0C00100C0C00300E0C00300E0C00300CF
:105F8800E0C00300E0C00300E0C00300E0C001007F
:105F9800E0E00100E0E10100E0E10000C071000084
:105FA800C03B0000C01F0000C0070000C007FC0382
:105FB800E007F000F0076000300F6000380F600065
:105FC8001C1E60001C1E20001C3C20001E3C3000D3
:105FD8001E7830001EF810001EF018001EF0190080
:105FE8001EE00F001EC00F003C8007103C800F1001
:105FF8007C001F1878803F08F0C17C0CE07FF80710
:10600800800FE00100000000000000000000000018
:106018000000000000000000000000000000000078
:106028000000000000000000000000000000000068
:10603800000000000000000000000000E001000077
:10604800F0030000F0070000F0070000F007000070
:10605800E0070000800700008007000080030000C0
:1060680080030000C0010000C0010000E000000043
:106078007800000010000000000000000000000090
:106088000000000000000000000000000000000008
:1060980000000000000000000000000000000000F8
:1060A80000000000000000000000000000000000E8
:1060B80000000000000000000000000000000000D8
:1060C80000000000000000000000000000000000C8
:1060D80000000000000000000000000000000000B8
:1060E80000000000000000000000000000000000A8
:1060F8000000000000000000000000000000000098
:106108000000000000000000000000000000000087
:106118000000000000000000000000000000000077
:106128000000000000000000000000000000000265
:1061380000000007000080030000C0010000C0004C
:1061480000006000000070000000380000003C0003
:1061580000001C0000001E0000000E0000000F00E0
:10616800000007000080070000800700008003008F
:1061780000C0030000C0030000C0030000C001000D
:1061880000E0010000E0010000E0010000E0010083
:1061980000E0010000E0010000E0010000E0010073
:1061A80000E0010000E0010000E0010000C0030081
:1061B80000C0030000C0030000C003000080070007
:1061C800008007000000070000000F0000000E001C
:1061D80000001E0000001C0000003C000000380009
:1061E80000007000000060000000E0000000C00136
:1061F800000080030000000700000002000000000B
:106208000000000000000000000000000000000086
:10621800000000000000000000000000080000006E
:106228001C0000003800000070000000E0000000C2
:10623800C001000080030000800300000007000088
:10624800000E0000000E0000001C0000003C0000D2
:10625800003800000078000000780000007000009E
:1062680000F0000000F0000000F0000000E0000076
:1062780000E0010000E0010000E0010000E0010092
:1062880000E0010000E0010000E0010000E0010082
:1062980000E0010000E0010000E0000000F0000064
:1062A80000F0000000F0000000700000007800001E
:1062B8000078000000380000003C0000001C0000CE
:1062C800001E0000000E000000070000800700000C
:1062D80080030000C0010000E00000007000000022
:1062E800380000001C00000008000000000000004A
:1062F8000000000000000000000000000000000096
:106308000000000000000000000000000000000085
:106318000000000000000000000000000000000075
:106328000000000000000000000000000000000065
:106338000000000000C0010000E0030000E00300CE
:1063480000E0030000E0030000C0010000C00100FD
:1063580078C0010FF8C0C10FF8C3E10FF8C7F10FFB
:10636800E08FF803809FFC0000BC1E0000F00700CF
:106378000080000000F0070000BC1E00809FFC00A9
:10638800E08FF803F8C7F10FF8C3E10FF8C1810FE8
:1063980078C0010F00C0010000C0010000E0030048
:1063A80000E0030000E0030000E0030000C001007B
:1063B80000000000000000000000000000000000D5
:1063C80000000000000000000000000000000000C5
:1063D80000000000000000000000000000000000B5
:1063E80000000000000000000000000000000000A5
:1063F8000000000000000000000000000000000095
:106408000000000000000000000000000000000084
:106418000000000000000000000000000000000074
:1064280000000000000000000000000000C00000A4
:1064380000C0000000C0000000C0000000C0000054
:1064480000C0000000C0000000C0000000C0000044
:1064580000C0000000C0000000C0000000C0000034
:10646800FCFFFF0FFCFFFF0F00C0000000C0000092
:1064780000C0000000C0000000C0000000C0000014
:1064880000C0000000C0000000C0000000C0000004
:1064980000C0000000C0000000C0000000000000B4
:1064A80000000000000000000000000000000000E4
:1064B80000000000000000000000000000000000D4
:1064C80000000000000000000000000000000000C4
:1064D80000000000000000000000000000000000B4
:1064E80000000000000000000000000000000000A4
:1064F8000000000000000000000000000000000094
:106508000000000000000000000000000000000083
:106518000000000000000000000000000000000073
:106528000000000000000000000000000000000063
:106538000000000000000000000000000000000053
:106548000000000000000000000000000000000043
:106558000000000000000000000000000000000033
:106568000000000000000000000000000000000023
:106578000000000000000000000000000000000013
:10658800000000000000000000000000E001000022
:10659800F0030000F0070000F0070000F00700001B
:1065A800E00700008007000080070000800300006B
:1065B80080030000C0010000C0010000E0000000EE
:1065C800780000001000000000000000000000003B
:1065D80000000000000000000000000000000000B3
:1065E80000000000000000000000000000000000A3
:1065F8000000000000000000000000000000000093
:106608000000000000000000000000000000000082
:106618000000000000000000000000000000000072
:106628000000000000000000000000000000000062
:106638000000000000000000000000000000000052
:10664800FCFFFF0FFCFFFF0F000000000000000030
:106658000000000000000000000000000000000032
:106668000000000000000000000000000000000022
:106678000000000000000000000000000000000012
:106688000000000000000000000000000000000002
:1066980000000000000000000000000000000000F2
:1066A80000000000000000000000000000000000E2
:1066B80000000000000000000000000000000000D2
:1066C80000000000000000000000000000000000C2
:1066D80000000000000000000000000000000000B2
:1066E80000000000000000000000000000000000A2
:1066F8000000000000000000000000000000000092
:106708000000000000000000000000000000000081
:106718000000000000000000000000000000000071
:106728000000000000000000000000000000000061
:106738000000000000000000000000000000000051
:106748000000000000000000000000000000000041
:106758000000000000000000000000000000000031
:106768000000000000000000C0010000E00300007D
:10677800F0070000F0070000F0070000E003000049
:10678800C001000000000000000000000000000040
:1067980000000000000000000000000000000000F1
:1067A80000000000000000000000000000000000E1
:1067B80000000000000000000000000000000004CD
:1067C8000000000E000000060000000700000003A3
:1067D80000008003000080010000C0010000C0002C
:1067E8000000E000000060000000700000003000C1
:1067F80000003000000018000000180000001C0015
:1068080000000C0000000E00000006000000070059
:1068180000000300008003000080010000C00100A8
:1068280000C0000000E000000060000000700000F0
:10683800003000000038000000180000001C0000B4
:10684800000C0000000E000000060000000600001A
:106858000003000000030000800300008001000026
:10686800C0010000C0000000E0000000600000005F
:106878007000000030000000380000001800000020
:106888001C000000080000000000000000000000DC
:1068980000000000000000000000000000000000F0
:1068A80000000000000000000000000000000000E0
:1068B80000000000000000000000000000000000D0
:1068C8000000000000F00300001C0E00000E18007D
:1068D8000007300080037000C003E000C001E00042
:1068E800E001E001E000C001E000C003F000C003E7
:1068F800F000C003F0008003700080077800800774
:106908007800800778008007780080077800800783
:106918007800800778008007780080077800800773
:106928007800800778008007780080077800800763
:10693800F0008003F000C003F000C003F000C003C3
:10694800E000C001E001E001C001E000C003E00098
:106958008003700000073000000E1800001C0E00B5
:1069680000F003000000000000000000000000002C
:10697800000000000000000000000000000000000F
:1069880000000000000000000000000000000000FF
:1069980000000000000000000000000000000000EF
:1069A80000000000000000000000000000000000DF
:1069B80000000000000001000080010000C001008C
:1069C80000F00100C0FF010000F0010000E001003C
:1069D80000E0010000E0010000E0010000E001002B
:1069E80000E0010000E0010000E0010000E001001B
:1069F80000E0010000E0010000E0010000E001000B
:106A080000E0010000E0010000E0010000E00100FA
:106A180000E0010000E0010000E0010000E00100EA
:106A280000E0010000E0010000E0010000E00100DA
:106A380000E0010000E0010000E0010000E00100CA
:106A480000E0010000E0010000F0030000F807008A
:106A5800C0FFFF0000000000000000000000000070
:106A6800000000000000000000000000000000001E
:106A7800000000000000000000000000000000000E
:106A880000000000000000000000000000000000FE
:106A980000000000000000000000000000000000EE
:106AA8000000000000F00700000E3E000003780020
:106AB8008001F000C000E001E000E0016000C003D8
:106AC8007000C003F000C003F000C003F001C00371
:106AD800F001C003F001C003E000E0010000E001A4
:106AE8000000E0010000F0000000780000007800DD
:106AF80000003C0000001E0000000E00000007001F
:106B08000080010000C000000060000000300000AC
:106B180000180000000C000000060002000300033B
:106B280080030003C0010003E000800170008001C1
:106B38003000E001F8FFFF01F8FFFF01F8FFFF0157
:106B4800F8FFFF0100000000000000000000000046
:106B5800000000000000000000000000000000002D
:106B6800000000000000000000000000000000001D
:106B7800000000000000000000000000000000000D
:106B880000000000000000000000000000000000FD
:106B98000000000000F80300000E1E00000338008B
:106BA80080017800C001F000E001F000E001E001A0
:106BB800E003E001E003E001E003E001C001E001DF
:106BC8000000E0010000E0000000F000000070009C
:106BD8000000780000003C0000000F0000F00700F3
:106BE80000001E00000078000000E0000000E00146
:106BF8000000C0010000C0030000800300008007FF
:106C08000000800700008007E0008007E00180079F
:106C1800F0018007F0018003F001C003F000C0011B
:106C2800E000E001C000E0008001700000071C00E7
:106C380000F807000000000000000000000000004D
:106C4800000000000000000000000000000000003C
:106C5800000000000000000000000000000000002C
:106C6800000000000000000000000000000000001C
:106C7800000000000000000000000000000000000C
:106C8800000000000000380000003C0000003E004A
:106C980000003E0000003F0000803D0000803D00F5
:106CA80000C03C0000C03C0000603C0000303C00DC
:106CB80000303C0000183C00000C3C00000C3C007C
:106CC80000063C0000063C0000033C0080013C003C
:106CD80080013C00C0003C0060003C0060003C00BB
:106CE80030003C0018003C0018003C00FCFFFF0F7F
:106CF800FCFFFF0F00003C0000003C0000003C00CF
:106D080000003C0000003C0000003C0000003C008B
:106D180000003C0000003C0000003E000000FF00B6
:106D280000F0FF0700000000000000000000000065
:106D3800000000000000000000000000000000004B
:106D4800000000000000000000000000000000003B
:106D5800000000000000000000000000000000002B
:106D6800000000000000000000000000000000001B
:106D78000000000080FFFF0380FFFF0380FFFF018A
:106D880080000000800000008000000080000000FB
:106D9800800000008000000080000000400000002B
:106DA80040000000400000004000000040E00F00EC
:106DB80040FC3F00401E78004007F000C003E0019F
:106DC800C001C003C000C0030000C003000080076A
:106DD800000080070000800700008007000080078F
:106DE80000008007E0008007F0018007F0018007BD
:106DF800F0018003F001C003F000C003E000C0010F
:106E0800E000E001C000F0008001780000061C00EE
:106E180000F807000000000000000000000000006B
:106E2800000000000000000000000000000000005A
:106E3800000000000000000000000000000000004A
:106E4800000000000000000000000000000000003A
:106E5800000000000000000000000000000000002A
:106E68000000000000C01F0000387800000CF0008F
:106E78000006F0000003F0018001F001C001F001FC
:106E8800C000E000E0000000E0000000E0000000BA
:106E9800F0000000700000007000000070000000AA
:106EA80078E00F0078F83F00781EFC007806F000C4
:106EB8007803E001F801C003F800C003F800C0033C
:106EC80078008007780080077800800778008007BE
:106ED800780080077000800770008007F000800746
:106EE800F0008003E0008003E001C003C001C0019E
:106EF800C003C0018007E000000F7000001C1C00E8
:106F080000F0070000000000000000000000000082
:106F18000000000000000000000000000000000069
:106F28000000000000000000000000000000000059
:106F38000000000000000000000000000000000049
:106F48000000000000000000000000000000000039
:106F580000000000C0FFFF07E0FFFF07E0FFFF039E
:106F6800E0018003E00080016000C0016000C00013
:106F78003000600030006000300030000000300059
:106F8800000018000000180000000C0000000C00B1
:106F980000000600000006000000070000000300D3
:106FA800008003000080030000C0010000C0010051
:106FB80000C0010000E0000000E0000000E0000068
:106FC80000F0000000F0000000F0000000F00000F9
:106FD80000F8000000F8000000F8000000F80000C9
:106FE80000F8000000F8000000F8000000F80000B9
:106FF8000070000000000000000000000000000019
:107008000000000000000000000000000000000078
:107018000000000000000000000000000000000068
:107028000000000000000000000000000000000058
:107038000000000000000000000000000000000048
:107048000000000000F80F00000E38008007F00074
:10705800C003E001C001C001E001C003F0008007E7
:10706800F0008007F0008007F0008007F00080073C
:10707800F0018007E0038003E007C003C00FC001F0
:10708800C01FE000807F700000FE390000FC0F0088
:1070980000FE1F0000C73F0080037F00C001FE0004
:1070A800E001F801F000F003F000E003F000C00791
:1070B8007800C0077800800778008007780080078C
:1070C800780080077800800770008003F000C00314
:1070D800E000C001C001E00080037000000E3C0029
:1070E80000F8070000000000000000000000000099
:1070F8000000000000000000000000000000000088
:107108000000000000000000000000000000000077
:107118000000000000000000000000000000000067
:107128000000000000000000000000000000000057
:107138000000000000F80300000E0C00800330007F
:10714800C0017000E001E000E000C000F000C001F4
:10715800F000C0017000800378008003780080038D
:10716800780080037800800778008007780080071F
:10717800780080077800C007F800C007F000E00733
:10718800F001E007E001B007E0039807C00F8E07A1
:1071980000FF870700FC81030000C0030000C00354
:1071A8000000C0030000C0030000C0010000E001AF
:1071B8000000E000C001E000E0037000E0037000A0
:1071C800E0033800E0031C00C0030E008007030042
:1071D80000FE0000000000000000000000000000A9
:1071E8000000000000000000000000000000000097
:1071F8000000000000000000000000000000000087
:107208000000000000000000000000000000000076
:107218000000000000000000000000000000000066
:107228000000000000000000000000000000000056
:107238000000000000000000000000000000000046
:107248000000000000000000000000000000000036
:107258000000000000E0000000F0010000F803005A
:1072680000F8030000F8030000F0010000E000004F
:107278000000000000000000000000000000000006
:1072880000000000000000000000000000000000F6
:1072980000000000000000000000000000000000E6
:1072A800000000000000000000E0000000F0010005
:1072B80000F8030000F8030000F8030000F00100E4
:1072C80000E00000000000000000000000000000D6
:1072D80000000000000000000000000000000000A6
:1072E8000000000000000000000000000000000096
:1072F8000000000000000000000000000000000086
:107308000000000000000000000000000000000075
:107318000000000000000000000000000000000065
:107328000000000000000000000000000000000055
:107338000000000000000000000000000000000045
:1073480000000000000000000000000000F0010044
:1073580000F0010000F0010000F0010000F0010061
:107368000000000000000000000000000000000015
:107378000000000000000000000000000000000005
:1073880000000000000000000000000000000000F5
:1073980000000000000000000000000000000000E5
:1073A80000F0010000F0010000F0010000F0010011
:1073B80000F0010000C0010000C0000000E0000073
:1073C80000600000006000000030000000000000C5
:1073D80000000000000000000000000000000000A5
:1073E8000000000000000000000000000000000095
:1073F8000000000000000000000000000000000085
:1074080000000001000080030000C0010000E0004F
:10741800000070000000380000001C0000000E0092
:10742800000007000080030000C0010000E0000029
:107438000070000000380000001C0000000E000072
:107448000007000080030000C0010000E000000009
:1074580070000000E0000000C00100008003000090
:1074680000070000000E0000001C000000380000AB
:107478000070000000E0000000C001000080030070
:107488000000070000000E0000001C00000038008B
:10749800000070000000E0000000C0010000800350
:1074A80000000001000000000000000000000000D3
:1074B80000000000000000000000000000000000C4
:1074C80000000000000000000000000000000000B4
:1074D80000000000000000000000000000000000A4
:1074E8000000000000000000000000000000000094
:1074F8000000000000000000000000000000000084
:107508000000000000000000000000000000000073
:107518000000000000000000000000000000000063
:1075280000000000FCFFFF0FFCFFFF0F0000000041
:107538000000000000000000000000000000000043
:107548000000000000000000000000000000000033
:1075580000000000FCFFFF0FFCFFFF0F0000000011
:107568000000000000000000000000000000000013
:107578000000000000000000000000000000000003
:1075880000000000000000000000000000000000F3
:1075980000000000000000000000000000000000E3
:1075A80000000000000000000000000000000000D3
:1075B80000000000000000000000000000000000C3
:1075C80000000000000000000000000000000000B3
:1075D80000000000000000000000000000000000A3
:1075E8002000000070000000E0000000C001000062
:1075F8008003000000070000000E0000001C0000CF
:10760800003800000070000000E0000000C0010029
:10761800008003000000070000000E0000001C00AE
:1076280000003800000070000000E0000000C00109
:10763800000080030000C0010000E00000007000AE
:107648000000380000001C0000000E0000000700C9
:107658000080030000C0010000E00000007000008E
:1076680000380000001C0000000E000000070000A9
:1076780080030000C0010000E0000000700000006E
:1076880020000000000000000000000000000000D2
:1076980000000000000000000000000000000000E2
:1076A80000000000000000000000000000000000D2
:1076B80000000000000000000000000000000000C2
:1076C80000000000000000000000000000000000B2
:1076D80000F8070000FE3F0080077C00C001F000B2
:1076E800E000E0016000C0033000C0033000800704
:1076F8003800800778008007F8008007F8018007C5
:10770800F8018007F001C007F000C0030000E003A3
:107718000000F0010000F80000007E0000001F00DB
:107728000080070000C0030000E0000000E0000047
:1077380000600000006000000060000000600000C1
:107748000060000000600000000000000000000071
:10775800000000000000000000E0000000F0010050
:1077680000F8030000F8030000F8030000F001002F
:1077780000E0000000000000000000000000000021
:1077880000000000000000000000000000000000F1
:1077980000000000000000000000000000000000E1
:1077A80000000000000000000000000000000000D1
:1077B80000000000000000000000000000000000C1
:1077C8000000000000E0070000383800000E6000EC
:1077D8000007C00080038001C0010003E000000230
:1077E800E0007706F0C0790670C07806706038044B
:1077F8007870380C7830380C3838380C3C18380C1D
:107808003C18380C3C1C180C3C1C1C0C3C0C1C0C6C
:107818003C0E1C0C3C0E1C0C3C0E1C0C3C0E1C04A0
:107828003C0E0E063C0E0E063C0E0E06380E0F03DE
:10783800780E0D01789C8D0178FCFC00707878003A
:10784800F000000CE0000004E0010006C0010003A5
:10785800800380018007C000001E780000FC3F0004
:1078680000F0070000000000000000000000000019
:107878000000000000000000000000000000000000
:1078880000000000000000000000000000000000F0
:1078980000000000000000000000000000000000E0
:1078A80000000000000000000000000000000000D0
:1078B80000C0000000F0000000F0000000F8010027
:1078C80000F8010000F8010000F8010000CC0300F6
:1078D80000CC030000CC030000CC030000860300AA
:1078E80000860700008607000086070000030700DF
:1078F80000030F0000030F0000030F0000030F0038
:1079080080011E0080011E0080011E0080011E00F3
:10791800C0003C00C0FF3F00C0003C00C0003C006D
:1079280060003C006000780060007800600078002B
:10793800300078003000F0003000F0003000F00037
:107948003800F0003800E0013800E0013C00F003A6
:10795800FF01FC0F00000000000000000000000014
:10796800000000000000000000000000000000000F
:1079780000000000000000000000000000000000FF
:1079880000000000000000000000000000000000EF
:1079980000000000000000000000000000000000DF
:1079A80000000000FCFF0F00E0033E00E001F800CB
:1079B800E001F001E001E001E001C001E001C003E5
:1079C800E001C003E001C003E001C003E001C0031F
:1079D800E001C003E001C003E001E001E001E001D3
:1079E800E001F000E0017800E0011E00E0FF070080
:1079F800E0013C00E001F000E001C001E001C0034B
:107A0800E0018003E0018007E0010007E001000FCA
:107A1800E001000FE001000FE001000FE001000F9E
:107A2800E001000FE001000FE0018007E00180079E
:107A3800E001C003E001C003E001E000E0037800DA
:107A4800FCFF0F0000000000000000000000000024
:107A5800000000000000000000000000000000001E
:107A6800000000000000000000000000000000000E
:107A780000000000000000000000000000000000FE
:107A880000000000000000000000000000000000EE
:107A98000000000000E00F020038F003000EC003F1
:107AA8000007800380030007C0010007E00100060B
:107AB800E0000006F000000C7000000C7000000CE4
:107AC8007800000078000000380000003C0000004A
:107AD8003C0000003C0000003C0000003C000000AE
:107AE8003C0000003C0000003C0000003C0000009E
:107AF8003C0000003C0000003C0000003C0000008E
:107B0800780000007800000C7800000C7800000471
:107B1800F0000006F0000006E0010003E0010003A9
:107B2800C00380018007E000001F780000FC3F00D0
:107B380000F0070000000000000000000000000046
:107B4800000000000000000000000000000000002D
:107B5800000000000000000000000000000000001D
:107B6800000000000000000000000000000000000D
:107B780000000000000000000000000000000000FD
:107B880000000000FCFF0100E0030F00E0011C0002
:107B9800E0017800E001F000E001E000E001C00150
:107BA800E001C003E0018003E0018007E0018007F5
:107BB800E0018007E0010007E001000FE001000F8D
:107BC800E001000FE001000FE001000FE001000FED
:107BD800E001000FE001000FE001000FE001000FDD
:107BE800E001000FE001000FE001000FE0010007D5
:107BF800E0018007E0018007E0018007E0018003E1
:107C0800E001C003E001C001E001C001E001E000C3
:107C1800E0017000E0013800E0011E00E083070089
:107C2800FCFF000000000000000000000000000051
:107C3800000000000000000000000000000000003C
:107C4800000000000000000000000000000000002C
:107C5800000000000000000000000000000000001C
:107C6800000000000000000000000000000000000C
:107C780000000000FCFFFF01E003F001E001C0018B
:107C8800E0018003E0010003E0010003E0010006D9
:107C9800E0010004E0010000E0010000E001000054
:107CA800E0010000E0011000E0011000E001100018
:107CB800E0011000E0011800E0011C00E0FF1F00D7
:107CC800E0011C00E0011800E0011000E0011000D4
:107CD800E0011000E0011000E0010000E0010000F8
:107CE800E0010000E0010000E0010000E001000800
:107CF800E001000CE0010004E0010006E0010006DC
:107D0800E0010007E0018003E001C003E003F003A5
:107D1800FCFFFF030000000000000000000000005E
:107D2800000000000000000000000000000000004B
:107D3800000000000000000000000000000000003B
:107D4800000000000000000000000000000000002B
:107D5800000000000000000000000000000000001B
:107D680000000000FCFFFF03E003E007E0018007DC
:107D7800E0010007E001000EE001000CE001000C4A
:107D8800E0010018E0010010E0010000E00100003F
:107D9800E0010000E0010000E0014000E0014000D7
:107DA800E0014000E0014000E0016000E0017000F7
:107DB800E0FF7F00E0017000E0016000E0014000AA
:107DC800E0014000E0014000E0014000E001000067
:107DD800E0010000E0010000E0010000E001000017
:107DE800E0010000E0010000E0010000E001000007
:107DF800E0010000E0010000E0010000E0010000F7
:107E0800FC0F00000000000000000000000000005F
:107E1800000000000000000000000000000000005A
:107E2800000000000000000000000000000000004A
:107E3800000000000000000000000000000000003A
:107E4800000000000000000000000000000000002A
:107E58000000000000F08300001CFC00000EF80089
:107E68000007F0008003E000C001C000C000C000AF
:107E7800E0008001F0008001700080017000800146
:107E8800780000007800000038000000380000008A
:107E98003C0000003C0000003C0000003C000000EA
:107EA8003C0000003C0000003C0000003C00FE1FBD
:107EB8003C00F0033C00E0013C00E0013800E00138
:107EC8007800E0017800E0017800E0017000E0014E
:107ED800F000E001E000E001E000E001C001E001A5
:107EE800C001E0018003F00100073000001E1C0003
:107EF80000F0070000000000000000000000000083
:107F08000000000000000000000000000000000069
:107F18000000000000000000000000000000000059
:107F28000000000000000000000000000000000049
:107F38000000000000000000000000000000000039
:107F480000000000FE07FC0FF001E003F000E00174
:107F5800F000E001F000E001F000E001F000E001D5
:107F6800F000E001F000E001F000E001F000E001C5
:107F7800F000E001F000E001F000E001F000E001B5
:107F8800F000E001F000E001F000E001F0FFFF0187
:107F9800F000E001F000E001F000E001F000E00195
:107FA800F000E001F000E001F000E001F000E00185
:107FB800F000E001F000E001F000E001F000E00175
:107FC800F000E001F000E001F000E001F000E00165
:107FD800F000E001F000E001F000E001F001E00352
:107FE800FE07FC0F00000000000000000000000079
:107FF8000000000000000000000000000000000079
:108008000000000000000000000000000000000068
:108018000000000000000000000000000000000058
:108028000000000000000000000000000000000048
:1080380000000000E0FFFF0100E0030000E0010095
:1080480000E0010000E0010000E0010000E00100A4
:1080580000E0010000E0010000E0010000E0010094
:1080680000E0010000E0010000E0010000E0010084
:1080780000E0010000E0010000E0010000E0010074
:1080880000E0010000E0010000E0010000E0010064
:1080980000E0010000E0010000E0010000E0010054
:1080A80000E0010000E0010000E0010000E0010044
:1080B80000E0010000E0010000E0010000E0010034
:1080C80000E0010000E0010000E0010000E0030022
:1080D800E0FFFF01000000000000000000000000B9
:1080E8000000000000000000000000000000000088
:1080F8000000000000000000000000000000000078
:108108000000000000000000000000000000000067
:108118000000000000000000000000000000000057
:108128000000000000FEFF1F00003E0000001E00CF
:1081380000001E0000001E0000001E0000001E00BF
:1081480000001E0000001E0000001E0000001E00AF
:1081580000001E0000001E0000001E0000001E009F
:1081680000001E0000001E0000001E0000001E008F
:1081780000001E0000001E0000001E0000001E007F
:1081880000001E0000001E0000001E0000001E006F
:1081980000001E0000001E0000001E0000001E005F
:1081A80000001E0000001E0000001E0000001E004F
:1081B80000001E0000001E0000001E0000001E003F
:1081C80000001E0038001E007C000E007C000F001E
:1081D8007C0007007C80030038800100F0E000008C
:1081E800C01F0000000000000000000000000000A8
:1081F8000000000000000000000000000000000077
:108208000000000000000000000000000000000066
:1082180000000000FC0FFC0FE001F003E001E000AB
:10822800E0016000E0013000E0013800E0011C00DE
:10823800E0010C00E0010E00E0010700E00103008E
:10824800E0810100E0C10100E0C10000E061000040
:10825800E0F10000E0F90000E0F90100E0FD0100B4
:10826800E0EF0100E0C70300E0C30300E0C307003C
:10827800E0810700E0810F00E0010F00E0011F002E
:10828800E0011E00E0013E00E0013C00E0013C008E
:10829800E0017C00E0017800E001F800E001F00076
:1082A800E001F001E001E001E001E003E001E007A6
:1082B800FC0FF81F00000000000000000000000094
:1082C80000000000000000000000000000000000A6
:1082D8000000000000000000000000000000000096
:1082E8000000000000000000000000000000000086
:1082F8000000000000000000000000000000000076
:1083080000000000F81F0000C0030000C0030000C8
:10831800C0030000C0030000C0030000C003000049
:10832800C0030000C0030000C0030000C003000039
:10833800C0030000C0030000C0030000C003000029
:10834800C0030000C0030000C0030000C003000019
:10835800C0030000C0030000C0030000C003000009
:10836800C0030000C0030000C0030000C0030000F9
:10837800C0030000C0030000C0030000C0030010D9
:10838800C0030018C0030018C0030008C003000C95
:10839800C003000EC003000EC0038007C007C0075B
:1083A800F8FFFF07000000000000000000000000C8
:1083B80000000000000000000000000000000000B5
:1083C80000000000000000000000000000000000A5
:1083D8000000000000000000000000000000000095
:1083E8000000000000000000000000000000000085
:1083F80000000000FE00C03FF000C00FF001E007E1
:10840800F001E007F001E007F001E007F003B00732
:10841800D003B007D003B007D003B007D003980744
:1084280090079807900798079007980790078C0778
:10843800900F8C07100F8C07100F8C07100F8607F2
:10844800100F8607101E8607101E8607101E870746
:10845800101E8307103E8307103C830710BC830758
:1084680010BC810710BC810710F8810710F881073C
:1084780010F8800710F8800710F8800710F08007C0
:108488001070800710708007107080073060800FB0
:10849800FE20F03F00000000000000000000000087
:1084A80000000000000000000000000000000000C4
:1084B80000000000000000000000000000000000B4
:1084C80000000000000000000000000000000000A4
:1084D8000000000000000000000000000000000094
:1084E800000000007E00E00FF0000001F000000135
:1084F800F0010001F0030001D0030001D0070001E2
:1085080090070001900F0001100F0001101F0001DB
:10851800101E0001103C0001103C00011078000101
:108528001078000110F0000110F0000110E00101C6
:1085380010E0010110C0030110C0070110800701FD
:1085480010800F0110000F0110001F0110001E0104
:1085580010003E0110003C01100078011000780165
:108568001000F0011000F0011000E0011000E0011F
:108578001000C0011000C00110008001100080012F
:10858800FE000001000000000000000000000000E4
:1085980000000000000000000000000000000000D3
:1085A80000000000000000000000000000000000C3
:1085B80000000000000000000000000000000000B3
:1085C80000000000000000000000000000000000A3
:1085D8000000000000F00300000C0C000007380049
:1085E80080037000C001E000C001C000E000C001CD
:1085F800F000C001700080037000800378008007DD
:108608007800800738000007380000073C00000F9A
:108618003C00000F3C00000F3C00000F3C00000F26
:108628003C00000F3C00000F3C00000F3C00000F16
:108638003C00000F3C00000F3C00000F3800000712
:1086480038000007780080077800800770008003F2
:1086580070008003E0008003E000C001C001C0009A
:108668008001E0008003700000073800001C0C0047
:1086780000F00300000000000000000000000000FF
:1086880000000000000000000000000000000000E2
:1086980000000000000000000000000000000000D2
:1086A80000000000000000000000000000000000C2
:1086B80000000000000000000000000000000000B2
:1086C80000000000FCFF0F00E0037800E001E0007C
:1086D800E001C001E0018003E0018007E00100073C
:1086E800E001000FE001000FE001000FE001000FC2
:1086F800E001000FE001000FE001000FE00180073A
:10870800E0018007E001C003E001C001E001F000E2
:10871800E0017C00E0FF0F00E0010000E001000044
:10872800E0010000E0010000E0010000E0010000BD
:10873800E0010000E0010000E0010000E0010000AD
:10874800E0010000E0010000E0010000E00100009D
:10875800E0010000E0010000E0010000E00100008D
:10876800FC0F0000000000000000000000000000F6
:1087780000000000000000000000000000000000F1
:1087880000000000000000000000000000000000E1
:1087980000000000000000000000000000000000D1
:1087A80000000000000000000000000000000000C1
:1087B8000000000000F00300000E0C00000730006D
:1087C80080036000C001E000E001C001E000C001DA
:1087D800F000800370008003700080077800800735
:1087E80078008007380000073800000F3C00000FB1
:1087F8003C00000F3C00000F3C00000F3C00000F45
:108808003C00000F3C00000F3C00000F3C00000F34
:108818003C00000F3C00000F3C00000F3C00000F24
:108828003800000778F8800778FE810778C6830744
:1088380070838703F0038703E001CF01E001CF01D4
:10884800C003EE0080037E0000073E00000C1E00FF
:1088580000F03F0400007C060000F8030000F80365
:108868000000F0010000E00000000000000000002F
:1088780000000000000000000000000000000000F0
:1088880000000000000000000000000000000000E0
:1088980000000000000000000000000000000000D0
:1088A80000000000FCFF0700E0033E00E001780044
:1088B800E001F000E001E001E001E001E001C003B7
:1088C800E001C003E001C003E001C003E001C00310
:1088D800E001C003E001C003E001C001E001E001E4
:1088E800E001E000E001F000E0017800E0011E0096
:1088F800E0FF0700E0C10300E0C10300E0810700DA
:10890800E0810700E0810700E0010F00E0010F00AF
:10891800E0011E00E0011E00E0011E00E0013C0035
:10892800E0013C00E0013C00E0017800E001780053
:10893800E001F000E001F000E001F000E001E001FA
:10894800FC0FE00F00000000000000000000000025
:10895800000000000000000000000000000000000F
:1089680000000000000000000000000000000000FF
:1089780000000000000000000000000000000000EF
:1089880000000000000000000000000000000000DF
:108998000000000000FC030100070E018001F8013F
:1089A800C001F001E000E001F000C0017000C0016A
:1089B80078008001780080017800000178000000CC
:1089C80078000000F8000000F0010000F00300004B
:1089D800E00F0000C03F0000807F000000FE0300A1
:1089E80000F8070000E01F0000803F0000007E0044
:1089F8000000FC000000F8010000F0010000E003A6
:108A08000000E0030800C0031800C0031800C003FA
:108A18001800C0033000C0033000C0017000E0013E
:108A28007000E000F0007000F0033800300E1C0009
:108A380010F0070000000000000000000000000027
:108A4800000000000000000000000000000000001E
:108A5800000000000000000000000000000000000E
:108A680000000000000000000000000000000000FE
:108A780000000000000000000000000000000000EE
:108A880000000000F0FFFF03F0E0810338E0010779
:108A980038E0010618E0010618E0010408E0010CBE
:108AA8000CE0010C0CE0010800E0010000E001000E
:108AB80000E0010000E0010000E0010000E001002A
:108AC80000E0010000E0010000E0010000E001001A
:108AD80000E0010000E0010000E0010000E001000A
:108AE80000E0010000E0010000E0010000E00100FA
:108AF80000E0010000E0010000E0010000E00100EA
:108B080000E0010000E0010000E0010000E00100D9
:108B180000E0010000E0010000E0010000E00100C9
:108B280000FC0F0000000000000000000000000032
:108B3800000000000000000000000000000000002D
:108B4800000000000000000000000000000000001D
:108B5800000000000000000000000000000000000D
:108B680000000000000000000000000000000000FD
:108B780000000000FE07E00FF0010001F000000116
:108B8800F0000001F0000001F0000001F000000119
:108B9800F0000001F0000001F0000001F000000109
:108BA800F0000001F0000001F0000001F0000001F9
:108BB800F0000001F0000001F0000001F0000001E9
:108BC800F0000001F0000001F0000001F0000001D9
:108BD800F0000001F0000001F0000001F0000001C9
:108BE800F0000001F0000001F0000001F0000001B9
:108BF800F0000001F0000001F0008000E0018000BA
:108C0800E0014000C0037000800F3C0000FE0F0030
:108C180000F8030000000000000000000000000051
:108C2800000000000000000000000000000000003C
:108C3800000000000000000000000000000000002C
:108C4800000000000000000000000000000000001C
:108C5800000000000000000000000000000000000C
:108C680000000000FE07F80FF001C003F001C0018A
:108C7800E001C000E001C000E001C000E001E00048
:108C8800C0036000C0036000C0036000C003700040
:108C98008007300080073000800730008007180008
:108CA800000F1800000F1800000F1800001F0C001C
:108CB800001E0C00001E0C00001E0C00003E0600EA
:108CC800003C0600003C0600003C0600007C030057
:108CD800007803000078030000F8030000F00100AA
:108CE80000F0010000F0010000F0010000E00000C9
:108CF80000E0000000E0000000E00000004000008C
:108D0800004000000000000000000000000000001B
:108D1800000000000000000000000000000000004B
:108D2800000000000000000000000000000000003B
:108D3800000000000000000000000000000000002B
:108D4800000000000000000000000000000000001B
:108D580000000000FFF9CF1F7CE003073CE001039F
:108D68003CE0010378C0030378C0030378C0030321
:108D780078C0830178C0830178E08301F0E087013F
:108D8800F0E08701F0E08701F0E08700F0F0C7002D
:108D9800F0B0C700F0B0C700E031CF00E011CF005D
:108DA800E0194F00E0196F00E0196F00E0196F003B
:108DB800E00F7F00C00F7E00C00F3E00C00F3E00D6
:108DC800C00F3E00C0073E00C0073E0080073C00C1
:108DD80080071C0080071C0080031C0080031C0007
:108DE80080031C0080031C00000308000001080029
:108DF8000001080000000000000000000000000062
:108E0800000000000000000000000000000000005A
:108E1800000000000000000000000000000000004A
:108E2800000000000000000000000000000000003A
:108E3800000000000000000000000000000000002A
:108E480000000000F81FF80FE007C001C007C000CD
:108E58008007C00080076000800F6000000F3000AE
:108E6800000F3000001E1800001E1800003C1C00F7
:108E7800003C0C00007C0C0000780600007806001E
:108E880000F0030000F0030000E0010000E0010032
:108E980000E0030000C0030000E0070000E0070056
:108EA80000F0070000300F0000300F0000181F000E
:108EB80000181E00000C3E00000C3C0000063C00A0
:108EC80000067800000378000003F8008001F00035
:108ED8008001F0018000E001C000E003E001E0074C
:108EE800FC07F81F00000000000000000000000060
:108EF800000000000000000000000000000000006A
:108F08000000000000000000000000000000000059
:108F18000000000000000000000000000000000049
:108F28000000000000000000000000000000000039
:108F380000000000FE0FF81FF801C007F001C00193
:108F4800E001C001E001C000E003C000C003E00090
:108F5800C00760008007600080073000800F300085
:108F6800000F3800000F1800001E1800001E0C002B
:108F7800003E0C00003C0E00003C06000078060095
:108F88000078030000F8030000F0030000F001007F
:108F980000E0010000E0010000E0010000E0010045
:108FA80000E0010000E0010000E0010000E0010035
:108FB80000E0010000E0010000E0010000E0010025
:108FC80000E0010000E0010000E0010000E0030013
:108FD80000FE1F000000000000000000000000006C
:108FE8000000000000000000000000000000000079
:108FF8000000000000000000000000000000000069
:109008000000000000000000000000000000000058
:109018000000000000000000000000000000000048
:1090280000000000C0FFFF07E007C003E001E00305
:10903800E000E0017000F0013000F0001800F800D6
:109048001800780000007C0000003C0000003E0092
:1090580000001E0000001F0000000F0000800F002D
:109068000080070000C0070000C0030000E0030004
:1090780000E0010000F0010000F8000000780000A6
:10908800007C0000003C0000003E0000001E0000C4
:10909800001F0000000F0000800F00008007000084
:1090A800C0070006C0030006E0030002E001000359
:1090B800F0018003F0008001F800E0017800F00181
:1090C800FCFFFF010000000000000000000000009D
:1090D8000000000000000000000000000000000088
:1090E8000000000000000000000000000000000078
:1090F80000000000000000000000000000F0FF0376
:1091080000F0FF03003000000030000000300000D5
:109118000030000000300000003000000030000087
:109128000030000000300000003000000030000077
:109138000030000000300000003000000030000067
:109148000030000000300000003000000030000057
:109158000030000000300000003000000030000047
:109168000030000000300000003000000030000037
:109178000030000000300000003000000030000027
:109188000030000000300000003000000030000017
:109198000030000000300000003000000030000007
:1091A80000300000003000000030000000300000F7
:1091B80000300000003000000030000000300000E7
:1091C80000F0FF0300F0FF030000000000000000B3
:1091D8000000000000000000000000000000000087
:1091E8000000000000000000000000000000000077
:1091F800000000000000000070000000E000000017
:10920800E0000000C0010000C0010000C001000033
:109218008003000080030000000300000007000036
:1092280000070000000E0000000E0000000C000007
:10923800001C0000001C000000380000003800007E
:1092480000300000007000000070000000E0000026
:1092580000E0000000C0000000C0010000C00100E4
:1092680000800300008003000000030000000700E6
:109278000000070000000E0000000E0000000C00B7
:1092880000001C0000001C0000003800000038002E
:109298000000300000007000000070000000E000D6
:1092A8000000E0000000C0000000C0010000C00194
:1092B8000000800300008003000000030000000796
:1092C8000000000000000000000000000000000096
:1092D800000000000000000000000000F0FF030094
:1092E800F0FF03000000030000000300000003007B
:1092F800000003000000030000000300000003005A
:109308000000030000000300000003000000030049
:109318000000030000000300000003000000030039
:109328000000030000000300000003000000030029
:109338000000030000000300000003000000030019
:109348000000030000000300000003000000030009
:1093580000000300000003000000030000000300F9
:1093680000000300000003000000030000000300E9
:1093780000000300000003000000030000000300D9
:1093880000000300000003000000030000000300C9
:1093980000000300000003000000030000000300B9
:1093A800F0FF0300F0FF03000000000000000000D1
:1093B80000000000000000000000000000000000A5
:1093C8000000000000F0030000F8030000BC0700E4
:1093D800000E0E0000061C0000031800800020008C
:1093E8000000000000000000000000000000000075
:1093F8000000000000000000000000000000000065
:109408000000000000000000000000000000000054
:109418000000000000000000000000000000000044
:109428000000000000000000000000000000000034
:109438000000000000000000000000000000000024
:109448000000000000000000000000000000000014
:109458000000000000000000000000000000000004
:1094680000000000000000000000000000000000F4
:1094780000000000000000000000000000000000E4
:1094880000000000000000000000000000000000D4
:1094980000000000000000000000000000000000C4
:1094A80000000000000000000000000000000000B4
:1094B80000000000000000000000000000000000A4
:1094C8000000000000000000000000000000000094
:1094D8000000000000000000000000000000000084
:1094E8000000000000000000000000000000000074
:1094F8000000000000000000000000000000000064
:109508000000000000000000000000000000000053
:109518000000000000000000000000000000000043
:109528000000000000000000000000000000000033
:109538000000000000000000000000000000000023
:109548000000000000000000000000000000000013
:109558000000000000000000000000000000000003
:1095680000000000000000000000000000000000F3
:1095780000000000000000000000000000000000E3
:1095880000000000000000000000000000000000D3
:10959800FFFFFF3FFFFFFF3F00000000000000004B
:1095A80000000000E00F0000801F0000003E0000E7
:1095B8000078000000E0000000000100000000004A
:1095C8000000000000000000000000000000000093
:1095D8000000000000000000000000000000000083
:1095E8000000000000000000000000000000000073
:1095F8000000000000000000000000000000000063
:109608000000000000000000000000000000000052
:109618000000000000000000000000000000000042
:109628000000000000000000000000000000000032
:109638000000000000000000000000000000000022
:109648000000000000000000000000000000000012
:109658000000000000000000000000000000000002
:1096680000000000000000000000000000000000F2
:1096780000000000000000000000000000000000E2
:1096880000000000000000000000000000000000D2
:1096980000000000000000000000000000000000C2
:1096A80000000000000000000000000000000000B2
:1096B80000000000000000000000000000000000A2
:1096C8000000000000000000000000000000000092
:1096D8000000000000000000000000000000000082
:1096E80000000000000000000000000000FC07006F
:1096F80000071C00C0017800E0007800F000F000CE
:10970800F000F000F000F000E000F0000000F000D1
:109718000000F0000000FF0000F8F100001FF0005A
:109728008007F000E001F000F000F000F000F00029
:109738007800F0007800F0007800F0007800F01071
:109748007800F010F000F810E000F608C083E10F90
:10975800007FC007000000000000000000000000BB
:1097680000000000000000000000000000000000F1
:1097780000000000000000000000000000000000E1
:1097880000000000000000000000000000000000D1
:1097980000000000000000000000000000010000C0
:1097A80080010000FC010000E0010000E001000071
:1097B800E0010000E0010000E0010000E00100001D
:1097C800E0010000E0010000E0010000E00100000D
:1097D800E0010000E0010000E0010000E0811F005E
:1097E800E0E17F00E039F800E00DE001E005E0018C
:1097F800E007C003E003C003E003C003E001800703
:10980800E0018007E0018007E0018007E0018007B0
:10981800E0018007E0018007E0018007E0018007A0
:10982800E0018007E0018003E001C003E001C0011E
:10983800E003C001E003E000E0067000601C3800AF
:1098480020F00700000000000000000000000000F9
:109858000000000000000000000000000000000000
:1098680000000000000000000000000000000000F0
:1098780000000000000000000000000000000000E0
:1098880000000000000000000000000000000000D0
:1098980000000000000000000000000000000000C0
:1098A80000000000000000000000000000000000B0
:1098B80000000000000000000000000000000000A0
:1098C80000000000000000000000000000E00F00A1
:1098D800003C3800000E70000007E0008003E00143
:1098E800C003E001E001E001E001E001E000C000A8
:1098F800F0000000F0000000F0000000F0000000A0
:10990800F0000000F0000000F0000000F00000008F
:10991800E0010004E0010006E0010002C0030003CA
:10992800C0078001800FC000003F700000FC3F00AE
:1099380000F00F0000000000000000000000000020
:10994800000000000000000000000000000000000F
:1099580000000000000000000000000000000000FF
:1099680000000000000000000000000000000000EF
:1099780000000000000000000000000000000001DE
:10998800000080010000FC010000E0010000E0018F
:109998000000E0010000E0010000E0010000E0013B
:1099A8000000E0010000E0010000E0010000E0012B
:1099B8000000E0010000E0010000E00100F8E10122
:1099C800001EE6010007E8018003F001C003E00182
:1099D800C001E001E001E001E001E001E000E00198
:1099E800F000E001F000E001F000E001F000E0012B
:1099F800F000E001F000E001F000E001F000E0011B
:109A0800F000E001E001E001E001F001E001F00117
:109A1800C003F8018007EC01000FE60100FEE30F28
:109A280000F86100000000000000000000000000D5
:109A3800000000000000000000000000000000001E
:109A4800000000000000000000000000000000000E
:109A580000000000000000000000000000000000FE
:109A680000000000000000000000000000000000EE
:109A780000000000000000000000000000000000DE
:109A880000000000000000000000000000000000CE
:109A980000000000000000000000000000000000BE
:109AA80000000000000000000000000000F00700B7
:109AB800001C3800000E70000007E0008003C001A1
:109AC800C001C003E001C003E0018003E00080079B
:109AD800F0008007F0008007F0008007F0FFFF0724
:109AE800F0000000F0000000F0000000F0000000AE
:109AF800E0000000E0010002E0010003C0030001F3
:109B0800C0038001800FC000003F700000FC3F00D0
:109B180000F00F000000000000000000000000003E
:109B2800000000000000000000000000000000002D
:109B3800000000000000000000000000000000001D
:109B4800000000000000000000000000000000000D
:109B580000000000000000000000000000000000FD
:109B6800000000000000FC010080070700C0010E93
:109B780000E0001E00F0001E0070001E0078000CBF
:109B880000780000007800000078000000780000ED
:109B9800007800000078000000780000F0FFFF0166
:109BA80000780000007800000078000000780000CD
:109BB80000780000007800000078000000780000BD
:109BC80000780000007800000078000000780000AD
:109BD800007800000078000000780000007800009D
:109BE800007800000078000000780000007800008D
:109BF80000780000007800000078000000F80000FD
:109C0800E0FF7F00000000000000000000000000EE
:109C1800000000000000000000000000000000003C
:109C2800000000000000000000000000000000002C
:109C3800000000000000000000000000000000001C
:109C4800000000000000000000000000000000000C
:109C580000000000000000000000000000000000FC
:109C680000000000000000000000000000000000EC
:109C780000000000000000000000000000000000DC
:109C880000000000000000000000000000F80307CA
:109C9800000ECE0F00077C0E8003780EC0037800FC
:109CA800C001F000E001F000E001F000E001F00088
:109CB800E001F000E001F000C0017000C00378008E
:109CC8008003380000073C00000F0E00C0F90300B5
:109CD800C0010000E0010000E0010000E03F0000DA
:109CE800C0FF1F0080FFFF00C0F1FF03E000F80382
:109CF800F000C007780080077800800778008007A8
:109D08007800800770008003F000C003E001E001E4
:109D18008007780000FC0F00000000000000000031
:109D2800000000000000000000000000000000002B
:109D3800000000000000000000000000000100001A
:109D480080010000FC010000E0010000E0010000CB
:109D5800E0010000E0010000E0010000E001000077
:109D6800E0010000E0010000E0010000E001000067
:109D7800E0010000E0010000E0010000E0811F00B8
:109D8800E0F17F00E039F800E00DF000E007E001C5
:109D9800E003E001E001E001E001E001E001E001B1
:109DA800E001E001E001E001E001E001E001E001A3
:109DB800E001E001E001E001E001E001E001E00193
:109DC800E001E001E001E001E001E001E001E00183
:109DD800E001E001E001E001E001E001E003E0036F
:109DE800FC0FFC0F00000000000000000000000055
:109DF800000000000000000000000000000000005B
:109E0800000000000000000000000000000000004A
:109E1800000000000000000000000000000000003A
:109E2800000000000000000000000000000000002A
:109E38000000000000C0030000E0070000E0070089
:109E480000E0070000E0070000C003000000000079
:109E580000000000000000000000000000000000FA
:109E6800000000000000010000E00100C0FF010048
:109E780000F0010000E0010000E0010000E0010046
:109E880000E0010000E0010000E0010000E0010046
:109E980000E0010000E0010000E0010000E0010036
:109EA80000E0010000E0010000E0010000E0010026
:109EB80000E0010000E0010000E0010000E0010016
:109EC80000E0010000E0010000E0010000E0030004
:109ED800C0FFFF00000000000000000000000000BC
:109EE800000000000000000000000000000000006A
:109EF800000000000000000000000000000000005A
:109F08000000000000000000000000000000000049
:109F18000000000000000000000000000000000039
:109F2800000000000000F0000000F8010000F80147
:109F38000000F8010000F8010000F0000000000037
:109F48000000000000000000000000000000000009
:109F580000000000000080000000F00000E0FF00AA
:109F68000000F8000000F0000000F0000000F00021
:109F78000000F0000000F0000000F0000000F00019
:109F88000000F0000000F0000000F0000000F00009
:109F98000000F0000000F0000000F0000000F000F9
:109FA8000000F0000000F0000000F0000000F000E9
:109FB8000000F0000000F0000000F0000000F000D9
:109FC8000000F0000000F0000000F0000000700049
:109FD800C0007800E0013800E0011C00E0030F0039
:109FE800C0FF070000FF00000000000000000000A4
:109FF8000000000000000000000000000000000059
:10A008000000000000000000000000000001000047
:10A0180080010000FC010000E0010000E0010000F8
:10A02800E0010000E0010000E0010000E0010000A4
:10A03800E0010000E0010000E0010000E001000094
:10A04800E0010000E0010000E0010000E001FF0382
:10A05800E001FF03E0013800E0011C00E0010E0010
:10A06800E0010700E0010300E0810100E0C1010018
:10A07800E0E10000E0F10000E0F90100E0FD03008C
:10A08800E0CF0300E0C70700E0830F00E0010F0006
:10A09800E0011F00E0013E00E0013C00E0017C001F
:10A0A800E0017800E001F800E001F001E003F003CE
:10A0B800FC0FFC0F00000000000000000000000082
:10A0C8000000000000000000000000000000000088
:10A0D8000000000000000000000000000000000078
:10A0E8000000000000000000000000000000000068
:10A0F80000000000000000000000000000800100D7
:10A1080000F00100E0FF010000E0010000E00100B4
:10A1180000E0010000E0010000E0010000E00100B3
:10A1280000E0010000E0010000E0010000E00100A3
:10A1380000E0010000E0010000E0010000E0010093
:10A1480000E0010000E0010000E0010000E0010083
:10A1580000E0010000E0010000E0010000E0010073
:10A1680000E0010000E0010000E0010000E0010063
:10A1780000E0010000E0010000E0010000E0010053
:10A1880000E0010000E0010000E0010000E0010043
:10A1980000E0010000E0010000E0010000E0030031
:10A1A800E0FFFF01000000000000000000000000C8
:10A1B8000000000000000000000000000000000097
:10A1C8000000000000000000000000000000000087
:10A1D8000000000000000000000000000000000077
:10A1E8000000000000000000000000000000000067
:10A1F8000000000000000000000000000000000057
:10A208000000000000000000000000000000000046
:10A218000000000000000000000000000000000036
:10A228000000000000000000600000007E7CF001DB
:10A2380078FEFC0378F1C703F8E08307F8E08307AA
:10A2480078E0810778E0810778E0810778E0810786
:10A2580078E0810778E0810778E0810778E0810776
:10A2680078E0810778E0810778E0810778E0810766
:10A2780078E0810778E0810778E0810778E0810756
:10A2880078E0810778E0810778E0810778E0810746
:10A29800FEF9E71F000000000000000000000000B9
:10A2A80000000000000000000000000000000000A6
:10A2B8000000000000000000000000000000000096
:10A2C8000000000000000000000000000000000086
:10A2D8000000000000000000000000000000000076
:10A2E8000000000000000000000000000000000066
:10A2F8000000000000000000000000000000000056
:10A308000000000000000000000000000000000045
:10A31800000000000000000080010000FC811F0018
:10A32800E0E17F00E039F800E01DF000E007F00010
:10A33800E003E001E003E001E001E001E001E00109
:10A34800E001E001E001E001E001E001E001E001FD
:10A35800E001E001E001E001E001E001E001E001ED
:10A36800E001E001E001E001E001E001E001E001DD
:10A37800E001E001E001E001E001E001E003E003C9
:10A38800FC0FFC0F000000000000000000000000AF
:10A3980000000000000000000000000000000000B5
:10A3A80000000000000000000000000000000000A5
:10A3B8000000000000000000000000000000000095
:10A3C8000000000000000000000000000000000085
:10A3D8000000000000000000000000000000000075
:10A3E8000000000000000000000000000000000065
:10A3F8000000000000000000000000000000000055
:10A4080000000000000000000000000000F007004D
:10A41800001C3C00000770008003E000C001C00180
:10A42800E001C003E0008003F0008007F0000007AF
:10A438007800000F7800000F7800000F7800000FF8
:10A448007800000F7800000F7800000F7800000FE8
:10A4580070000007F0008007E0008003E000800340
:10A46800C001C0018003E00000077000001E3C002E
:10A4780000F00700000000000000000000000000DD
:10A4880000000000000000000000000000000000C4
:10A4980000000000000000000000000000000000B4
:10A4A80000000000000000000000000000000000A4
:10A4B8000000000000000000000000000000000094
:10A4C8000000000000000000000000000000000084
:10A4D8000000000000000000000000000000000074
:10A4E8000000000000000000000000000000000064
:10A4F800000000000000000080010000FEC10F0005
:10A50800F0F13F00E0397800E00DF000E007E001ED
:10A51800E003C003E001C003E001C003E0018007DD
:10A52800E0018007E0018007E0018007E001800783
:10A53800E0018007E0018007E0018007E001800773
:10A54800E0018003E001C003E001C003E001C001B5
:10A55800E003E001E003F000E0057000E0193C00D2
:10A56800E0E10F00E0010000E0010000E001000070
:10A57800E0010000E0010000E0010000E00100004F
:10A58800F0030000FE1F00000000000000000000B3
:10A5980000000000000000000000000000000000B3
:10A5A80000000000000000000000000000000000A3
:10A5B8000000000000000000000000000000000093
:10A5C8000000000000000000000000000000000083
:10A5D8000000000000000000000000000000000073
:10A5E80000000000000000000000000000F88101E9
:10A5F800000E86018007C801C003F001C001F00108
:10A60800E000E001F000E001F000E0017000E0018E
:10A618007800E0017800E0017800E0017800E001CE
:10A628007800E0017800E0017800E0017800E001BE
:10A638007800E001F000E001F000E001E000F00146
:10A64800E001F001C003F8018007EE0100FFE70117
:10A6580000FCE1010000E0010000E0010000E00171
:10A668000000E0010000E0010000E0010000E0015E
:10A678000000E0010000FE0F0000000000000000E4
:10A6880000000000000000000000000000000000C2
:10A6980000000000000000000000000000000000B2
:10A6A80000000000000000000000000000000000A2
:10A6B8000000000000000000000000000000000092
:10A6C8000000000000000000000000000000000082
:10A6D8000000000000000000001C0000FC1FF00348
:10A6E800001FF807001E0E0F001E070F009E030F25
:10A6F80000DE010700DE0000007E0000003E0000D2
:10A70800003E0000001E0000001E0000001E0000A9
:10A71800001E0000001E0000001E0000001E0000B9
:10A72800001E0000001E0000001E0000001E0000A9
:10A73800001E0000001E0000001E0000003E000079
:10A74800FCFF0F00000000000000000000000000F7
:10A7580000000000000000000000000000000000F1
:10A7680000000000000000000000000000000000E1
:10A7780000000000000000000000000000000000D1
:10A7880000000000000000000000000000000000C1
:10A7980000000000000000000000000000000000B1
:10A7A80000000000000000000000000000000000A1
:10A7B8000000000000000000000000000000000091
:10A7C80000000000000000000000000000F00F0181
:10A7D800001EF8010007E0018003C001C0038003E8
:10A7E800C0030003C0030003C0030003C007000048
:10A7F800800F0000807F000000FE030000F81F00AB
:10A8080000E07F000000FF010000F8030000E00303
:10A818006000C0076000800760008007E0008007D4
:10A82800E0008003E001C003C003C001C00FF000D6
:10A8380040F01F00000000000000000000000000C1
:10A848000000000000000000000000000000000000
:10A8580000000000000000000000000000000000F0
:10A8680000000000000000000000000000000000E0
:10A8780000000000000000000000000000000000D0
:10A8880000000000000000000000000000000000C0
:10A898000000000000000000004000000040000030
:10A8A8000040000000600000006000000060000040
:10A8B8000070000000780000007E0000F0FFFF013B
:10A8C80000780000007800000078000000780000A0
:10A8D8000078000000780000007800000078000090
:10A8E8000078000000780000007800000078000080
:10A8F8000078000000780000007800000078000070
:10A908000078000000780004007800060078000253
:10A918000070000200F0000100E0C10100C0FF006B
:10A9280000803F0000000000000000000000000060
:10A93800000000000000000000000000000000000F
:10A9480000000000000000000000000000000000FF
:10A9580000000000000000000000000000000000EF
:10A9680000000000000000000000000000000000DF
:10A9780000000000000000000000000000000000CF
:10A9880000000000000000000000000000000000BF
:10A9980000000000000000000000000000000000AF
:10A9A800000000000000000080018001FC01FC01A3
:10A9B800E001E001E001E001E001E001E001E00187
:10A9C800E001E001E001E001E001E001E001E00177
:10A9D800E001E001E001E001E001E001E001E00167
:10A9E800E001E001E001E001E001E001E001E00157
:10A9F800E001E001E001E001E001E001E001F00137
:10AA0800C003F801C003EC018007E60180FFE30FF3
:10AA180000FE6000000000000000000000000000D0
:10AA2800000000000000000000000000000000001E
:10AA3800000000000000000000000000000000000E
:10AA480000000000000000000000000000000000FE
:10AA580000000000000000000000000000000000EE
:10AA680000000000000000000000000000000000DE
:10AA780000000000000000000000000000000000CE
:10AA880000000000000000000000000000000000BE
:10AA9800000000000000000000000000FC1FFC0790
:10AAA800E003E001E003E000C0036000C0036000D1
:10AAB8008007300080073000800F3000000F18003A
:10AAC800000F1800001F1800001E0C00001E0C00CC
:10AAD800003E0E00003C0600003C06000078030023
:10AAE8000078030000F8030000F0010000F0010006
:10AAF80000F0010000E0000000E0000000E00000BD
:10AB080000400000000000000000000000000000FD
:10AB1800000000000000000000000000000000002D
:10AB2800000000000000000000000000000000001D
:10AB3800000000000000000000000000000000000D
:10AB480000000000000000000000000000000000FD
:10AB580000000000000000000000000000000000ED
:10AB680000000000000000000000000000000000DD
:10AB780000000000000000000000000000000000CD
:10AB8800000000000000000000000000FFFFE71FB9
:10AB9800FCF0810778E0010378E08101F8E08101A9
:10ABA800F0E08101F0F0C301F0F0C300F0F1C30060
:10ABB800E0F1C300E0D96700E0996700E09B670017
:10ABC800C09B7700C09B3700C00F3F00800F3F003D
:10ABD800800F1F00800F1F0080071E0000071E0047
:10ABE80000070E0000070E0000070E000002040018
:10ABF8000002040000000000000000000000000047
:10AC0800000000000000000000000000000000003C
:10AC1800000000000000000000000000000000002C
:10AC2800000000000000000000000000000000001C
:10AC3800000000000000000000000000000000000C
:10AC480000000000000000000000000000000000FC
:10AC580000000000000000000000000000000000EC
:10AC680000000000000000000000000000000000DC
:10AC7800000000000000000000000000F83FFE0394
:10AC8800C00F700080073000800F1800000F1800F8
:10AC9800001E0C00001E0E00003C0600007C030095
:10ACA80000F8030000F8010000F0000000E00100D7
:10ACB80000E0030000F0030000F007000098070020
:10ACC800009C0F00000C0F0000061F0000073E004C
:10ACD80000033C0080017C00C0017800E001F8011D
:10ACE800FC07FF0700000000000000000000000053
:10ACF800000000000000000000000000000000004C
:10AD0800000000000000000000000000000000003B
:10AD1800000000000000000000000000000000002B
:10AD2800000000000000000000000000000000001B
:10AD3800000000000000000000000000000000000B
:10AD480000000000000000000000000000000000FB
:10AD580000000000000000000000000000000000EB
:10AD6800000000000000000000000000F83FFC0F99
:10AD7800C007E001C007E0008007600080076000AE
:10AD8800800F6000000F3000000F3000001E300000
:10AD9800001E3800001E1800003C1800003C1C0073
:10ADA800007C0C0000780C0000780E0000F806000B
:10ADB80000F0060000F0070000F0030000E00300C8
:10ADC80000E0030000E0010000C0010000C0010035
:10ADD80000C0000000C0000000E0000000600000AB
:10ADE8000060000000700000C0300000E0190000A2
:10ADF800E00F0000C0070000000000000000000095
:10AE0800000000000000000000000000000000003A
:10AE1800000000000000000000000000000000002A
:10AE2800000000000000000000000000000000001A
:10AE3800000000000000000000000000000000000A
:10AE480000000000000000000000000000000000FA
:10AE5800000000000000000000000000E0FFFF010B
:10AE6800E001F000E000F80060007C0070003C00A9
:10AE780030003E0030001F0030000F0000800F003F
:10AE880000C0070000C0030000E0030000F001005C
:10AE980000F0000000F80000007C0000007C0000CA
:10AEA800003E0002001F0003001F0003800F000186
:10AEB800C0078001C0078001E003C001F001F00174
:10AEC800F0FFFF000000000000000000000000008C
:10AED800000000000000000000000000000000006A
:10AEE800000000000000000000000000000000005A
:10AEF8000000000000000000000000000000C00387
:10AF08000000700000003000000018000000080079
:10AF180000000C0000000C0000000C0000000C00F9
:10AF280000000C0000000C0000000C0000000C00E9
:10AF380000000C0000000C0000000C0000000C00D9
:10AF480000000C0000000C0000000C0000000C00C9
:10AF580000000C0000000C000000060000000600C5
:10AF6800008001000060000000800300000006006F
:10AF78000000060000000C0000000C0000000C009F
:10AF880000000C0000000C0000000C0000000C0089
:10AF980000000C0000000C0000000C0000000C0079
:10AFA80000000C0000000C0000000C0000000C0069
:10AFB80000000C0000000C00000008000000180051
:10AFC80000003800000070000000C003000000000E
:10AFD80000000000000000000040000000400000E9
:10AFE8000040000000400000004000000040000059
:10AFF8000040000000400000004000000040000049
:10B008000040000000400000004000000040000038
:10B018000040000000400000004000000040000028
:10B028000040000000400000004000000040000018
:10B038000040000000400000004000000040000008
:10B0480000400000004000000040000000400000F8
:10B0580000400000004000000040000000400000E8
:10B0680000400000004000000040000000400000D8
:10B0780000400000004000000040000000400000C8
:10B0880000400000004000000040000000400000B8
:10B0980000400000004000000040000000400000A8
:10B0A8000040000000400000004000000040000098
:10B0B8000040000000400000004000000040000088
:10B0C80000400000004000000000000000000000F8
:10B0D800000000000000000000000000F000000078
:10B0E80080030000000200000006000000040000C9
:10B0F800000C0000000C0000000C0000000C000018
:10B10800000C0000000C0000000C0000000C000007
:10B11800000C0000000C0000000C0000000C0000F7
:10B12800000C0000000C0000000C0000000C0000E7
:10B13800000C0000000C00000018000000180000BF
:10B14800006000000080010000700000001800008E
:10B1580000180000000C0000000C0000000C0000AB
:10B16800000C0000000C0000000C0000000C0000A7
:10B17800000C0000000C0000000C0000000C000097
:10B18800000C0000000C0000000C0000000C000087
:10B19800000C0000000C0000000400000006000085
:10B1A8000006000080030000F0000000000000001E
:10B1B800000000000000000000000000800F0000F8
:10B1C800E01F0000303C00001078000808F000087C
:10B1D80008E0010404C003040480070200000F0310
:10B1E8000000FE01000078000000000000000000E0
:10B1F8000000000000000000000000000000000047
:10B208000000000000000000000000000000000036
:10B218000000000000000000000000000000000026
:10B228000000000000000000000000000000000016
:10B238000000000000000000000000000000000006
:10B2480000000000000000000000000000000000F6
:10B2580000000000000000000000000000000000E6
:10B2680000000000000000000000000000000000D6
:10B2780000000000000000000000000000000000C6
:10B2880000000000000000000000000000000000B6
:10B2980000000000000000000000000000000000A6
:10B2A8000000000000000000000000000000000096
:10B2B8000000200000000000000000000000000066
:10B2C8000000000000000000000000000000000076
:10B2D800BB14BB0C000000000000000000000000D0
:10B2E8000000000000000000000000000000BB1487
:10B2F800FD14BB0CAE22000000000000000000009E
:10B30800000000000008000000000000BB14950BBE
:10B318000008DB14BB14000000000000000000005F
:10B328000000DB0CDB3400000000BB14950B0000B0
:10B3380000007C55BB148B4A000000000000000090
:10B348000000BB14BB0C0000BB14950B00000D4B98
:10B35800BB14BA1400000000BA140000000000007A
:10B368000000586DBB14BA1CB50BBB14BB0C000015
:10B3780000009C4D00009B0C947C00000000000025
:10B3880000000008DB14BB141D6E00000000000064
:10B39800BB144529DA24FD65000000000000000008
:10B3A800BA14BA149A14BB14000020000000BB148D
:10B3B8006529BB14D42300000000BB14BB0CB05B90
:10B3C800BB14950BC829BA0C1C7E00002A42200029
:10B3D800BB14000000009B0CBB1400000000BB1451
:10B3E800950B00002000DC149A14200000009B1428
:10B3F800000000002100000000000000BB14950BB5
:10B4080000002100BA14BB14410000000000000035
:10B4180000000000000000000000BB14950B9744DA
:10B42800BA14BC5D0000000000000000000000002D
:10B438000000000000000000BB14BA0CDB14000080
:10B4480000000000000000000000000000000000F4
:10B45800000000000000D9340000000000000000D7
:10B4680000000000000000000000000000000000D4
:10B4780000000000000000007A5D000000000000ED
:10B4880000000000000000000000788500080000AF
:10B49800000000000000BA149B0C0000000000002F
:10B4A8000000000000000000BA34DC1401000000B5
:10B4B80000000000BC0CF844BB0C2E4B0000000040
:10B4C8000000000000002000BEA69B0C68090000D8
:10B4D8000000BB0C0000A410BB0CBA2C000000003C
:10B4E80000000000000000000100BB14D93C20004F
:10B4F8009B65000000000000BA14DB140000000087
:10B5080000000000000000000000BA1C9A1420008F
:10B518000000D66CBB0CB74400000000000000001F
:10B5280000000000000000000000D74C1D15E510C9
:10B5380021000100000000000000000000000000E1
:10B54800000000000000200000008300BC147C867E
:10B5580000000000000000000000000000000000E3
:10B56800010020009B14DB1400002000BA14BA1C50
:10B578000008000000000000000000000000B55CAA
:10B58800BB1439550000DB0C00000000992CBB1CD3
:10B5980020002000000000000000BA14BB140100C5
:10B5A80000000000BB0C000000000000755CBB0C34
:10B5B8000E43000000000000220000000000000010
:10B5C8000000BB0C000020005B4D21006000BA1495
:10B5D800572C2100000000000000000000000000BF
:10B5E800BB0C6500BB149A14200000000000BB14BB
:10B5F8009B1C000000000000000000000000BB14BD
:10B60800BA0C8719200000000000000000000000AC
:10B61800000000000000000000000000DA34000014
:10B628000000000000000000000000000000000012
:10B6380000000000C51FC51FC51FC51FA51F0B574C
:10B6480000002E6FC51FC51FC51FC51FC41F4D6D28
:10B658000000A527C51FC51FC51FC51FA51F0000C2
:10B668000000C41FC51FC51FC51FC41F0000000060
:10B678000000C51FC51FC51FC51F662F000000009D
:10B688000000C51FC51FC51FC51FC51FC51FA6278D
:10B69800B085C51FC51FC51FC51FC51FC41F472FA0
:10B6A800083FC41FC41FC51FC51FC51FC5270000ED
:10B6B8000D6FA527A527C41FC51FC51FE7360000A6
:10B6C800000000000000E417C51FC51F00000000AF
:10B6D800000000004000C51FC51F0B5700000000F8
:10B6E800000000004F7FC51FC51F000000000000BC
:10B6F800000000004837C51FEB5D00000000000097
:10B7080000000000A51FC51F000000000000000089
:10B7180000000000C51FA319000000000000000081
:10B728000000000000000000000000000000000011
:10B738000000000000000000000000000000000001
:10B7480000000000000000000000000000000000F1
:10B7580000000000000000000000000800000000D9
:10B768000100010001000100000000082100440060
:10B778000709280949098B01120BD513D60BF70BBA
:10B78800D60BD60BD60BD60BD60BF60BD60BD61381
:10B7980074138B0168094709C500220001000108DC
:10B7A8000000000000000000210000000000000070
:10B7B8000000000000000000000000000000000081
:10B7C8000000000000002000000000000000000051
:10B7D8000000000000000000000000000000000061
:10B7E8000000000000000000000000000000000051
:10B7F8000000000000000000000000000000000041
:10B808000000000000000000000000000000000030
:10B818000000000000000000000000000000000020
:10B8280000000000000000002000000000004300AD
:10B8380044008A0112135313572C78249924991C15
:10B848009A1C9A14BB149B14BA149A149A14BA1416
:10B85800BA14BA14BA14B914991C991C781C9824EF
:10B86800F51B3213CF1AA600430041004100000027
:10B878000008000000002000000001000000000097
:10B8880000000000000000000000000000000000B0
:10B8980000000000000000000000000000000000A0
:10B8A8000000000000000000000000000000000090
:10B8B8000000000000000000000000000000000080
:10B8C8000000000000000000000000000000000070
:10B8D8000000000000000000000000000000000060
:10B8E80000000000000000000000210001004200EC
:10B8F800420068014D0A931B371C7814BA14BA0C1D
:10B90800DA14DA14DB14BA0CBB14BB14BB14BB1462
:10B91800BB0CBB0CBB0CBB0CBB0CDB0CBB0CDB149F
:10B92800BA149A14BB14BB14BB14BA14991C361459
:10B938001524F0122C0AA500430001002000000085
:10B9480000000000000000000000000000000000EF
:10B9580000000000000000000000010001000000DD
:10B9680000000000000000000000000000000000CF
:10B9780000000000000000000000000000000000BF
:10B9880000000000000000000000000000000000AF
:10B99800000000000000000000000000000000009F
:10B9A800000000000000000000000000000000008F
:10B9B80000002200C5004809111B1624991CBA145E
:10B9C800BA0CDB14BB14DB14BB0CBA0CDA0CBA0CC3
:10B9D800BB14BA0CBA14BA14DB0CDB14BB14BB14BA
:10B9E800BC14BB0CBB14BB0CBB14BB14BC14BC14E4
:10B9F800DB0CDB0CDB0CDB0CBA147A14BA24F61B58
:10BA0800521B49096400010000000000000000000A
:10BA1800000000000000000000000000000000001E
:10BA2800000000000000000000000000000000000E
:10BA380000000000000000000000000000000000FE
:10BA480000000000000000000000000000000000EE
:10BA580000000000000000000000000000000000DE
:10BA680000000000000000000000000000000000CE
:10BA7800000000000100220044006D0A152C771C0C
:10BA8800BA14DB14BB14BB149B14BB14BB14BB1437
:10BA98009A14BB14BB14BB14BB14DC14BB0CBB142E
:10BAA800BB0CBA149A149B149B149B14BB14DB1480
:10BAB800BB14BB14BC14BC14BB14BB14BA14DB14E5
:10BAC800BB14BC149C14BC147A149824321B890926
:10BAD80022002000000000000000000000002000FC
:10BAE800200020000000000000000000000000000E
:10BAF800000000000000000000000000000000003E
:10BB0800000000000000000000000000000000002D
:10BB1800000000000000000000000000000000001D
:10BB280000000000000000000000000000002000ED
:10BB3800000000000100010021002100C5004D0A9D
:10BB4800F61B7914BA1CBA14DB14DB0CBC0CBC143D
:10BB5800BC149B14BB14BB14BB14BB14BB14BB1484
:10BB6800BB14BB14BB14BB14DB0CBA14BA14BB143F
:10BB7800BB14BB14BB0CBB0CBB0CBB14BC149B147C
:10BB88009B149B149A1CBA14BA14BB14DB0CBB0C80
:10BB98009B14BB14DA14571C31138A0923002200A2
:10BBA8002100000020080000200020000000000004
:10BBB800000000000000000000000000000000007D
:10BBC800000000000000000000000000000000006D
:10BBD800000000000000000000000000000000005D
:10BBE800000000000000000000000000000000004D
:10BBF80000000000000000002000000001002200FA
:10BC0800C5002D0AD51B9924991C9A1CBB1CBB1472
:10BC1800BC0CBC0CDB0CDB0CBB0CBB0CBB14BB1492
:10BC2800BB14BB14BB14BB14BA14BA14BA14BA1498
:10BC3800DB0CBB14BB14BB14BB14BB0CBB0CBB0C84
:10BC4800BB0CBB0CDA0CBB0CBB14BB14BB14BB1475
:10BC5800BB14BA14BA14DB0CDB0CDB0CBB14BA141F
:10BC6800BA1C581C5213490944002108000800084E
:10BC780000080000000001000000000000000000B3
:10BC880000000000000000000000000000000000AC
:10BC9800000000000000000000000000000000009C
:10BCA800000000000000000000000000000000008C
:10BCB800000000000000000000000000000000007C
:10BCC800000000006300AE12F51B991CBB1CDB1CB6
:10BCD8009B149B14BB14DB0CDB0CBB0CBB14BB14FC
:10BCE800BB14DB0CBB0CBC14BC14BB14BB14BB14C2
:10BCF800BB0CDA0CDA0CDA0CBB14BB14BB14BB1487
:10BD0800BB14BB14BB14BC14BC14BB14BB0CBB0CC1
:10BD1800BB0CBC0CBC0CBB0CBB0CBA14DA14BA0CB4
:10BD2800BB0CBA14BB14DB0CBB0CDC149A1C582CCF
:10BD38008F0A6400220021000008000800000000AB
:10BD480000000000000000000000000000000000EB
:10BD580000000000000000000000000000000000DB
:10BD680000000000000000000000000000000000CB
:10BD780000000000000000000000000000000000BB
:10BD8800000000000000000002008500F012782486
:10BD9800BA14DB14BB0CBB14BC14BB0CBB0CDB0C03
:10BDA800BB14BB14BB14BB14BB14BB0CDB0CBB1403
:10BDB800BB14BB14BB14BB14BB14BB14BB0CBB0C13
:10BDC800BB14BB14BB14BB14BB14BB0CBB0CBB1403
:10BDD800BB14BB14BB14BB14BB14BB14BB14BB14E3
:10BDE800BB14BB14BB14BB149A14BB14BB14BB14F4
:10BDF800BC14BB14BB149A14991CD41B89014300AE
:10BE08000100000800000000000000000000000021
:10BE1800000000000000000000000000000000001A
:10BE2800000000000000000000000000000000000A
:10BE380000000000000000000000000000000000FA
:10BE480000000000000000000000000000002200C8
:10BE58008909941B791CBB14DB14DB0CDB0CBB0CB1
:10BE68009B14BB14BB14BB14BB14BB14BB0CDB0C62
:10BE7800DB14BB14BB14DB0CBB14BA14BA1C9A1C1D
:10BE88009A24992479247924F61BB41BB41BD5135E
:10BE980077249824991C991C991C9A1CBB149B14F0
:10BEA800BB14BA14BA14BA14BB14BB14BC14BB1414
:10BEB800BB14BB14BB149B14BB14BB14DB14DB14E2
:10BEC800BB14B914371CF0128500010000000000F3
:10BED800200000000000000000000000000000003A
:10BEE800000000000000000000000000000000004A
:10BEF800000000000000000000000000000000003A
:10BF08000000000000000000000000000000000029
:10BF1800000021002100CB01F61BBA1CBB14BB1486
:10BF2800BA14BA14DB0CBB14BB14BB14BB14BB147B
:10BF3800BB14DC14BB0CBB0CDB0CBB149A14BB1C71
:10BF4800791C982C162C2E02CC01CB01CB01AB010D
:10BF5800C5004200430044006801AA01CB01CB019F
:10BF6800CC01110B792C9924791C9A1CBA14DB1476
:10BF7800BA0CBB0CDC14BB14BC14BC149B14BB144F
:10BF8800BA14BA14BA14BB14BB14DB149B0C9A244D
:10BF9800331B8500010000000000200000000000A5
:10BFA8000000000000000000000000000000000089
:10BFB8000000000000000000000000000000000079
:10BFC8000000000000000000000000000000000069
:10BFD80000000000000800002100A4006E0A5714A9
:10BFE800BA149A14BB14BC14BC0CBC14BB14BB14F8
:10BFF800DB0CDB0CDB14BA149A149B1C9B149B1CE3
:10C00800791CB92C721B6D1A0701C500A400220007
:10C0180001000100010001000000000000002100F3
:10C02800010021000100210021006200C300E50099
:10C03800CA09D0121724791C9B1CBB149B14BB146F
:10C048009A14BB14DB0CBB0CBC0CBC14BB14BB1487
:10C05800DB0CBB0CBB149A149A1CF51BEA092100D3
:10C0680000000000000000000000000000000000C8
:10C0780000000000000000000000000000000000B8
:10C0880000000000000000000000000000000000A8
:10C098000000000000000000000000000000010097
:10C0A8008400521B9924DB0CBB0CBB14BB14BC0CC6
:10C0B800BC0CBB14BB14BB14BB14BB14BB0CDA0CF8
:10C0C800BA149A1C381CB5234D124801830042004B
:10C0D8002100200000000000000000000000000017
:10C0E8000000000000000000000000000000000048
:10C0F800000000002000200041002100E600490166
:10C10800321BF61B791CBA14BA14BB149B0CBC0C5A
:10C11800BB14BB14BB14BB14DB0CDC0CBB14BB146E
:10C12800BB0CBB145724EB0942002100010000009E
:10C1380000000000000000000000000000000000F7
:10C1480000000000000000000000000000000000E7
:10C1580000000000000000000000000000000000D7
:10C168000000000001008400B4237914DB14BB1420
:10C17800BA0CDB0CDB0CDC0CBB14BA14BA14BB1401
:10C18800BC14BC0CDC14BA14981C101347016300CF
:10C1980042000100210020000000200000000000F3
:10C1A8000000000000000000000000000000000087
:10C1B8000000000000000000000000002000000057
:10C1C80000000000210021004300A500EA09D32354
:10C1D800B924BA14BB0CBC14BB14BA14DA14BB14BB
:10C1E800BC14BB0CBB0CBB0CDB149B04BB0C982411
:10C1F800EB0923000100000000000000000000001F
:10C208000000000000000000000000000000000026
:10C218000000000000000000000000000000000016
:10C22800000000002000000000000100C50072139B
:10C238009A14DB149B14DA14BA14BB14BB0CBB1489
:10C24800BA149A14BA14BB0CDB0CBB14581CF012A9
:10C2580068016200200000000000000000000000EB
:10C2680000000000000000000000000000000000C6
:10C2780000000000000000000000000000000000B6
:10C2880000000000000000000000000000000000A6
:10C29800000000000000A4000C0AB41B991CBB1489
:10C2A800BB0CBB0CBA14DB14BA14BB14BB0CBB0C10
:10C2B800BB0CDC0CDC0CBB1437240C0A220000007D
:10C2C8000000000000000000000000000000000066
:10C2D8000000000000000000000000000000000056
:10C2E8000000000000000000000000000000000046
:10C2F800210085005213DA149A0CBB149B14BA144B
:10C30800BA14BB14BB14BB14BB14BB14BB14BA14AF
:10C318009814F4230B0A42000000000000000000FB
:10C328000000000000000000000000000000000005
:10C3380000000000000000000000000000000000F5
:10C3480000000000000000000000000000000000E5
:10C3580000000000000000000000000000000000D5
:10C368002200C600311B781CDB14BB0CBC149A14C9
:10C37800BA14BA14BA14BB14BB0CBB14BB14BB1448
:10C38800BB1C361C6C0A420021000000000800009B
:10C398000000000000000000000000000000000095
:10C3A8000000000000000000000000000000000085
:10C3B8000000000020000100A400931BBA14BA0C6E
:10C3C800DA14BB149B14BB14BB14BB0CBB0CBB14FE
:10C3D800BB14BB0CBA1C371C4C02C4002100210042
:10C3E8000000000000000000000000000000000045
:10C3F8000000000000000000000000000000000035
:10C408000000010001000000000000000000000022
:10C418000000000000000000000000000000000014
:10C428000000000000000000000800006200680131
:10C43800320BBA24BB14BB14BB14BA14BB14BB1400
:10C448009B14BB14BB14BB14BA14DA14571CEB09A5
:10C458006300420000000008000000000000000027
:10C4680000000000000000000000000000000000C4
:10C478000000000000000000000000000100C500EE
:10C48800521B7A1CDB14BB0CBB14BA14BB149B14D0
:10C49800BB14BB0CDB0CBB0CBB14991C52138909D5
:10C4A80043000100210000002000000000000000FF
:10C4B8000000000000000000000000000000000074
:10C4C8000000000000000000000000000000000064
:10C4D8000000000000000000000000000000000054
:10C4E8000000000000000000000000000000000044
:10C4F800200020000000210064006D0A16149A1420
:10C508009B14BB14BB14BB149A1CBB14DB0CDB0CB4
:10C51800BA14BB14BB1457240D0A430001000000D1
:10C528000000000000000000000000000000000003
:10C5380000000000000000000000000000000000F3
:10C548000000000021000C0A9924BA149B0C9B14CB
:10C558009B14BB14BA0CBB0CBB14BB14BB14BB148C
:10C5680099248F12840001000000000000000000E0
:10C5780000000000000000000000000000000000B3
:10C5880000000000000000000000000000000000A3
:10C598000000000000000000000000000000000093
:10C5A8000000000000000000000000000000000083
:10C5B8000000000000000000000021000000000052
:10C5C800200821004801F523BB14BC0CBB14BB1484
:10C5D800BB14BB14DB14BB0CBB14BB0CBB0CBB0CDB
:10C5E800372C690102000000000020000000000054
:10C5F8000000000000000000000000000000000033
:10C60800000020000008000000002200CB013714C1
:10C61800BB14BB14BA14BA149B14BC14BB14BA0CC4
:10C62800BA0C9B14BB1C582C6E1A43002100000046
:10C6380000080000000000000000000000000000EA
:10C6480000000000000000000000000000000000E2
:10C6580000000000000000000000000000000000D2
:10C6680000000000000000000000000000000000C2
:10C6780000000000000000000000000000000000B2
:10C688000000000000000000000021002200480116
:10C69800B32B9924BB1CBB14BA0CBB14BB14BB141E
:10C6A800BB0CBB0CBC0CBB0CBA1C9413A500010042
:10C6B80000004000200021080000000000000000E9
:10C6C8000000000000000000000020002000000022
:10C6D8002200AA09F623BA14BB149B0CBA14BA1484
:10C6E800BB14BB14BB14BA0CDB149A1CB41B490151
:10C6F80063000100210000000000000000000000AD
:10C708000000000000000000000000000000000021
:10C718000000000000000000000000000000000011
:10C728000000000000000000000000000000000001
:10C7380000000000000000000000000000000000F1
:10C7480000000000000000000000000000000000E1
:10C758000000000001002200A5006E0A78249A1447
:10C76800BB14BB14BB14BB14BB14BB14BB0CBB0C59
:10C77800BB0C991C111B8400010020004000000024
:10C7880000000000000000000000000000000000A1
:10C798000000000020002000840053139A1C7A1C1B
:10C7A800BA14BB0CBB14BB14BB0CBB0CBB14BB1C1A
:10C7B800BA1CF51B070122002100210020000000FF
:10C7C8000000000000000000000000000000000061
:10C7D8000000000000000000000000000000000051
:10C7E8000000000000000000000000000000000041
:10C7F8000000000000000000000000000000000031
:10C808000000000000000000000000000000000020
:10C8180000000000000000000008000801000100FE
:10C82800420043006D0A78249A14BB14BB14BB144D
:10C838009C14BB14DA14BB14BB0CBA14782CCB09A7
:10C84800010020002100000000000000000000009E
:10C85800000000000000000000000000000062006E
:10C86800CF12BA1CBB14BB1CDB0CBB0CBB14BB1417
:10C87800DB0CBB14BB149A1CB51B0701410000005C
:10C88800000000000000000021000000000000007F
:10C898000000000000000000000000000000000090
:10C8A8000000000000000000000000000000000080
:10C8B8000000000000000000000000000000000070
:10C8C8000000000000000000000000000000000060
:10C8D8000000000000000000000000000000000050
:10C8E80000000008000800000000200042004C0A78
:10C8F8009914BC14BB14BB14BB14BA14BA14BB14DB
:10C90800FC0CBA0CBA1416242701210001000000FF
:10C91800000000000000000000000000000000000F
:10C928000000010021004C0A9824BA14BA0CBB1468
:10C93800BB0CDB0CBB14BA14BA14BB14BB14782C94
:10C948006901210000002000000000000000000034
:10C9580000000000000000000000000000000000CF
:10C9680000000000000000000000000000000000BF
:10C9780000000000000000000000000000000000AF
:10C98800000000000000000000000000000000009F
:10C99800000000000000000000000000000000008F
:10C9A800000000000000000000000000000800086F
:10C9B80000000000000863003113BA14BC14BB1453
:10C9C800DB0CBA0CBB14BB14BB0CDB0CBB0C9A1CE9
:10C9D800F00A6400010000000000000000000000F0
:10C9E800000000000000000000000100A50016245F
:10C9F8009A14DB14BA14DC0CBC0CBB14BA14BA14A9
:10CA0800BB14BA1499248F1A630020000000010097
:10CA1800000000000000000000000000000000000E
:10CA280000000000000000000000000000000000FE
:10CA380000000000000000000000000000000000EE
:10CA480000000000000000000000000000000000DE
:10CA580000000000000000000000000000000000CE
:10CA680000000000000000000000000000000000BE
:10CA780000000000000000000000000000000000AE
:10CA8800E60015249A14DB14BA0CDB14BC14BB148E
:10CA9800BA14DA0CBB14BB14991C2D120100000047
:10CAA800000000000000000000000000000000007E
:10CAB800000021002E0A9A1CBB0CBB0CBA14BC0C3B
:10CAC800BB14BA14BA14BB14BB14991CAF1264007B
:10CAD800010021000000000000000000000000002C
:10CAE800000000000000000000000000000000003E
:10CAF800000000000000000000000000000000002E
:10CB0800000000000000000000000000000000001D
:10CB1800000000000000000000000000000000000D
:10CB280000000000000000000000000000000000FD
:10CB380000000000000000000000000000000000ED
:10CB48000000000000000000000007011514BA14DE
:10CB5800DB14BB14BC0CBC14BA14BA14BA14DB141E
:10CB6800BB14D51BC5000000000000000000000039
:10CB780000000000000000000100C5009513BB1C68
:10CB8800BB14DB0CDB0CBB14BB14BA14BA14BB14F7
:10CB9800BA1C7313640021000100010000000000AA
:10CBA800000000000000000000000000000000007D
:10CBB800000000000000000000000000000000006D
:10CBC800000000000000000000000000000000005D
:10CBD800000000000000000000000000000000004D
:10CBE800000000000000000000000000000000003D
:10CBF800000000000000000000000000000000002D
:10CC0800000000000000000000000000010000001B
:10CC180020082100AA01B8249A14BB14BB0CBB1429
:10CC2800BA14BA14BA14BB0CBC0C991C2C0A2200F6
:10CC380000000000000000000000000000000000EC
:10CC480022000C0A791C9A149B0CDB14BB0CBB1435
:10CC5800BB14BB14DB14BA14371C8A010100000092
:10CC680000000100000000000000000000000000BB
:10CC780000000000000000000000000000000000AC
:10CC8800000000000000000000000000000000009C
:10CC9800000000000000000000000000000000008C
:10CCA800000000000000000000000000000000007C
:10CCB800000000000000000000000000000000006C
:10CCC800000000000000000000000000000000005C
:10CCD8000000200000000100000020008300EF1287
:10CCE8009924DB14DC0CBB0CBB14BB14BB14BC14A4
:10CCF8009B0CDA0CD41B850001000000000000002A
:10CD080000002000000000004300B413991CBB146D
:10CD1800BB0CBB14BB14BB0CBC0C9C14BB0CD91CAB
:10CD28008E022300000800080000200020000000F8
:10CD380000000000000000000000000000000000EB
:10CD480000000000000000000000000000000000DB
:10CD580000000000000000000000000000000000CB
:10CD680000000000000000000000000000000000BB
:10CD780000000000000000000000000000000000AB
:10CD8800000000000000000000000000000000009B
:10CD9800000000000000000000000000000000008B
:10CDA8000000000021008400352CBA14BB0CBB0C19
:10CDB800BB14BB14BB14BC14BB0CBA0C981CEC09F8
:10CDC80022000000000000000008200001002200EE
:10CDD8000C0A791C9B1CBB0CDB14BB14BB0CBB14CE
:10CDE800BC149C14BB141524C400010000000000EE
:10CDF800000000000000000000000000000000002B
:10CE080000000000000001000008000000002100F0
:10CE180021002100000000000000000000000000C8
:10CE280000000000000000000000000000000000FA
:10CE380000000000000000000000000020000000CA
:10CE4800000000000100220022002100200000084C
:10CE58000108000020000008000000000000000099
:10CE68000000000000000000000000002100410058
:10CE78004C129924BC0CBB0CBA149A14BB14BB0CEE
:10CE8800BB0CBB14BA14F71BC5000000010022003C
:10CE9800000820002100E600F42B9A1CBC14BB0CEF
:10CEA800DB0CBB14BB14BB149A0CBB0C581C0C0237
:10CEB8004100200000000000000000000000000009
:10CEC80000000000000000000000200020002100F9
:10CED800010021006300A600C600A600A500A50069
:10CEE800A500A500A500A500A500A500A500A50012
:10CEF800A500A500A500A500A500A500A500A50002
:10CF0800A500A500A600A500A500A500A600A600EE
:10CF1800A5008400010001000000000000000000DE
:10CF280000000000000000000000000000000000F9
:10CF38000000000000004100C500731BDB1CDB146F
:10CF4800DB149B14BB14BB0CDB0CBB14BA149A1C6B
:10CF58002C12010001000100000820004200070116
:10CF68007824BA1CBB14DB0CDB0CBB149B14BA145E
:10CF7800BA14DB1411136300210021000000000023
:10CF88000000000000000000000000000000000099
:10CF980000000100000001002200A500F01A572C33
:10CFA80056241624372437243724372437243724A3
:10CFB8003724372437243724372437243724372491
:10CFC800372437243724372437243724381C382487
:10CFD8003724571C571C7824362CF42BAB016400DB
:10CFE8000100000800082000000000000000000008
:10CFF8000000000000000000000000002000000009
:10D0080042006901982CBA0CDB0CBB14BB14DB0C76
:10D01800DB0CBB14BA0CBA14F01243000000000079
:10D02800000020004200F0129A14BA14BB0CDB0C6A
:10D03800BB14BB0CDB14BA1CBA14781C89010000A1
:10D0480001000000000000000000000000000000D7
:10D058000000000000000000000000080008220096
:10D06800CB09B423791C9A14BA14BA14BB14BB1490
:10D07800BB14BB14BB14BB14BB14BB14BB14BB1430
:10D08800BB14BB14BB14BB14BB14BB14BB14BB1420
:10D09800BB14BB14BB0CBB0CBB14BB14BB14BB1420
:10D0A8009A14BA1C57143013E50001000008000058
:10D0B8000000000000000000000000000000000068
:10D0C800000000000000000800006400F012BA1C14
:10D0D800DB0CBB0CBB14DB14BB0CBB14BA0CBB14B1
:10D0E8005724480121002000000000006701162491
:10D0F800DB14DB14DB0CBB14BB14DB14DC149A1438
:10D108009A1C3213620000000000000000000000BA
:10D118000000000000000000000000000000000007
:10D12800000000002100850094139A14DC0CBC0C4C
:10D138009B14DC14DC0CBB14BB14BB14BB14BB1455
:10D14800BB14BB14BB14BB14BB14BB14BB14BB145F
:10D15800BB14BB14BB14BB14BB14BB14DA0CBA1439
:10D16800BA14BB14BB14BB14BB0CBB0CDB14B82423
:10D17800EB010300000000000000000000000000B8
:10D18800000000000000000000000000000000088F
:10D19800000001002801161CDB149C0CBB14BB14F6
:10D1A8009B0CBB14BB0CDB149A1CF01A4200200029
:10D1B800010001000B0A981CBB14BC0CDB0C9B146F
:10D1C8009B14DB0CDB0CBA1C381C48012100000046
:10D1D8000000000000000000000000000000000047
:10D1E8000000000000000000000000006200D01AEB
:10D1F800991CBB0CDC0CBB0C9A1CBC0CDC0CBB0CCF
:10D20800BB0CBB0CBB0CBB0CBB0CBB0CBB0CBB0CDE
:10D21800BB0CBB0CBB0CBB0CBB0CBB0CBB0CBB0CCE
:10D22800BB0CBB0CBA14BA14BA14BB14BB14BC1490
:10D23800BC0CBC0CBB0CDA14361C690101000000E4
:10D2480000000000000000000000000000000000D6
:10D258000000000000000000000000004300F11280
:10D26800BA1CBC14BB14BA14BB14BB14BB14BB0C3F
:10D27800BB14B41B6300200001002300721BBA1406
:10D288009B14BC0CBB0C9B1C9B14DB0CBB0C9A1C8E
:10D29800D52363000000000000000000000000002B
:10D2A8000000000000000000000000000000000076
:10D2B800000001008400162C9A14BB14BB14BA1485
:10D2C800BA14BB0CDC0CBB14BB14BB14BB14BB14CE
:10D2D800BB14BB14BB14BB14BB14BB14BB14BB14CE
:10D2E800BB14BB14BB14BB14BB14BB149C14BC14DC
:10D2F800BC14BC0CBC0CBC0CBC14BC149C14BB0CE7
:10D30800B91C6D0A220000000000000000000000A7
:10D318000000000000000000000000000000000005
:10D328000000000002000C1299249B14BB14BB14CB
:10D33800BB14BB14BA14BB0CBB0C7824AA01410063
:10D3480000004400D513BA14BB14BB14BB149B14BF
:10D35800BB14BB0CDB14791C4D0A42000000000012
:10D3680000000000000000000000000000000000B5
:10D37800000000000000000000002100A500361C8D
:10D38800BA149A149A1CBB149A1CBB14BB14BB1471
:10D39800BB14BB14BB14BB14BB14BB14BB14BB140D
:10D3A800BB14BB14BB14BB14BB14BB14BB14BB14FD
:10D3B800BB14BB14BB14BB0CDB0CDB0CDB0CDA0C96
:10D3C800BA14BA14BA14BB149A148E0222000000BC
:10D3D8000000000000000000000000000000000045
:10D3E8000000000000000000000000000000A50090
:10D3F800D51B7B149A14DA14BB0CBB14BA14BB14D7
:10D40800BC149A1C2D02220000006901581CDB1470
:10D41800BA0CBB14BC14BB14BB14BB149A14B924A7
:10D42800EA092100000000000000000000000000E0
:10D4380000000000000000000000000000000000E4
:10D448000000200084003624BA14BB14BC0CDC0C89
:10D458009B14BA14BB14BB14BB14BB14BB14BB146D
:10D46800BB14BB14BB14BB14BB14BB14BB14BB143C
:10D47800BB14BB14BB14BB14BB14BB14BB14BB142C
:10D48800BB14BB14BB14BA14BA14BB14DB0CBC1405
:10D498007A1C8D024100000000000000000000001E
:10D4A8000000000000000000000000000000000074
:10D4B8000000000000002200B41BBB1CDA14DA0CC8
:10D4C800DB0CBB14BA14BB14BB14BA14731364007A
:10D4D8000100AF0ABA1C9A0CDB14BB14BC14BB14B1
:10D4E800BA14BB14BA1C7313830021000000000097
:10D4F8000000000000000000000000000000000024
:10D508000000000000000000000000008400162455
:10D51800BB14BB0CBC0CBC0CBB14BA14DA0CBB148B
:10D52800BB14BB14BB14BB14BB14BB14BB14BB147B
:10D53800BB14BB14BB14BB14BB14BB14BB14BB146B
:10D54800BB14BB14BB14BB14BB14BB14BB14BB145B
:10D55800BB14BB14BB0CBC149A248E02210000001F
:10D5680000000000000000000000000000000000B3
:10D578000000000000000000000000000000200083
:10D58800CB01791CBA14DA0CDB0CBB14BA14BB142B
:10D598009B14BA1C772CC7002300F10ABA14DB14B9
:10D5A8007A14BB0CBB0CBB14BB14BB14DB24CE1A03
:10D5B8002100000000000000000000000000000042
:10D5C8000000000000000000000000000000000053
:10D5D8000000000083001624BB14BB14BB14BB144A
:10D5E800BB14BB14BB14BB14BB14BB14BB14BB14BB
:10D5F800BB14BB14BB14BB14BB14BB14BB14BB14AB
:10D60800BB14BB14BB14BB14BB14BB14BB14BB149A
:10D61800BB14BB14BB14BB14BB14BB14BB14BB148A
:10D628009A1C6E02010000000000000000000000CB
:10D6380000000000000000000000000000000000E2
:10D6480000000000000020002609382CBA0CDB0C72
:10D65800BB0CBB14BB14BB14BC149B147824490129
:10D66800E608772CBA14BB14BB14BB0CBB14BB1450
:10D67800BB14BB14791C68012100000000000000E5
:10D688000000000000000000000000000000000092
:10D6980000000000000000000000000083001624C5
:10D6A800BB14BB14BB14BB14BB14BB14BB14BB14FA
:10D6B800BB14BB14BB14BB14BB14BB14BB14BB14EA
:10D6C800BB14BB14BB14BB14BB14BB14BB14BB14DA
:10D6D800BB14BB14BB14BB14BB14BB14BB14BB14CA
:10D6E800BB14BB14BB14BB149A1C6E0201000000CF
:10D6F8000000000000000000000000000000000022
:10D7080000000000000000000000000000002000F1
:10D718004200F20ABA14DB0CBB14BB14BB14BB14D2
:10D72800BC0CBB0CDA1CF00A08017824BB14DB140F
:10D73800BB14BB14BB14BB0CBB14BA14782C070164
:10D7480020000000000000000000000000000000B1
:10D7580000000000000000000000000000000000C1
:10D768000000000083001624BB14BB14BB14BB14B8
:10D77800BB14BB14BB14BB14BB14BB14BB14BB1429
:10D78800BB14BB14BB14BB14BB14BB14BB14BB1419
:10D79800BB14BB14BB14BB14BB14BB14BB14BB1409
:10D7A800BB14BB14BB14BB14BB14BB14BB14BB14F9
:10D7B8009A1C6E020100000000000000000000003A
:10D7C8000000000000000000000000000000000051
:10D7D80000000000000000002200B0129A1CBB0CE0
:10D7E800BB14BB14BB14BB14BB14BB0CB914110B76
:10D7F8004A01791CDB0CBA14BB14BB14BB14BB0C58
:10D80800BB0CBA1C1624260900000000000000000A
:10D818000000000000000000000000000000000000
:10D828000000000000000000000000008300162433
:10D83800BB14BB14BB14BB14BB14BB14BB14BB1468
:10D84800BB14BB14BB14BB14BB14BB14BB14BB1458
:10D85800BB14BB14BB14BB14BB14BB14BB14BB1448
:10D86800BB14BB14BB14BB14BB14BB14BB14BB1438
:10D87800BB14BB14BB14BB149A1C6E02010000003D
:10D888000000000000000000000000000000000090
:10D898000000000000000000000000000000000080
:10D8A80022006E129924BB14BB14BB14BB14BB1406
:10D8B800BB14BB14991C110B120BBA1CDB0CBB1448
:10D8C800BB14BB14BA14DB0CBB0C9A1C8F022200CD
:10D8D8000000000000000000000000000000000040
:10D8E8000000000000000000000000000000000030
:10D8F8000000000083001624BB14BB14BB14BB1427
:10D90800BB14BB14BB14BB14BB14BB14BB14BB1497
:10D91800BB14BB14BB14BB14BB14BB14BB14BB1487
:10D92800BB14BB14BB14BB14BB14BB14BB14BB1477
:10D93800BB14BB14BB14BB14BB14BB14BB14BB1467
:10D948009A1C6E02010000000000000000000000A8
:10D9580000000000000000000000000000000000BF
:10D9680000000000000000000100A600171CBB1406
:10D97800BB14BB14BB14BB14BB14BB14BB14330BB8
:10D98800730BBA14DB0CBA14BB14BB14BA14DB0C3B
:10D99800BB0C9A1C4E0201000000000000000000B1
:10D9A800000000000000000000000000000000006F
:10D9B80000000000000000000000000083001624A2
:10D9C800BB14BB14BB14BB14BB14BB14BB14BB14D7
:10D9D800BB14BB14BB14BB14BB14BB14BB14BB14C7
:10D9E800BB14BB14BB14BB14BB14BB14BB14BB14B7
:10D9F800BB14BB14BB14BB14BB14BB14BB14BB14A7
:10DA0800BB14BB14BB14BB149A1C6E0201000000AB
:10DA180000000000000000000000000000000000FE
:10DA280000000000000000000000000000000000EE
:10DA380000006400161CBB14BB14BB14BB14BB143D
:10DA4800BB14BC14BB0C590C740BBA14BB14BA1419
:10DA5800BB14BB14BA14DB0CBB0C9A1C4E0201009D
:10DA680000000000000000000000000000000000AE
:10DA7800000000000000000000000000000000009E
:10DA88000000000083001624BB14BB14BB14BB1495
:10DA9800BB14BB14BB14BB14BB14BB14BB14BB1406
:10DAA800BB14BB14BB14BB14BB14BB14BB14BB14F6
:10DAB800BB14BB14BB14BB14BB14BB14BB14BB14E6
:10DAC800BB14BB14BB14BB14BB14BB14BB14BB14D6
:10DAD8009A1C6E0201000000000000000000000017
:10DAE800000000000000000000000000000000002E
:10DAF800000000000000000000006300161CBB14BA
:10DB0800BB14BB14BB14BB14BA14BB14BB0CDB0C86
:10DB1800740BBA14BB14BB14BB14BC14BA14DA0CBF
:10DB2800BB149A1C4E020100000000000000000017
:10DB380000000000000000000000000000000000DD
:10DB48000000000000000000000000008300162410
:10DB5800BB14BB14BB14BB14BB14BB14BB14BB1445
:10DB6800BB14BB14BB14BB14BB14BB14BB14BB1435
:10DB7800BB14BB14BB14BB14BB14BB14BB14BB1425
:10DB8800BB14BB14BB14BB14BB14BB14BB14BB1415
:10DB9800BB14BB14BB14BB149A1C6E02010000001A
:10DBA800000000000000000000000000000000006D
:10DBB800000000000000000000000000000000005D
:10DBC80001004300F523BB0CBB14BB14BB14BB14EE
:10DBD800BA14BA14DB14DB0C740B9A1CBB14BB14F8
:10DBE800BC14BC14BB14DA0CBB147A242D0201003B
:10DBF800000000000000000000000000000000001D
:10DC0800000000000000000000000000000000000C
:10DC18000000000083001624BB14BB14BB14BB1403
:10DC2800BB14BB14BB14BB14BB14BB14BB14BB1474
:10DC3800BB14BB14BB14BB14BB14BB14BB14BB1464
:10DC4800BB14BB14BB14BB14BB14BB14BB14BB1454
:10DC5800BB14BB14BB14BB14BB14BB14BB14BB1444
:10DC68009A1C6E0201000000000000000000000085
:10DC7800000000000000000000000000000000009C
:10DC8800000000000000000001004200F523BB0C6A
:10DC9800BB14BB14BB14BB14BB149B14BC0CBB043B
:10DCA800740B9A1CBB14BB14BA14BB14BB14BA145F
:10DCB800BB14F61BE6002000000000000000000076
:10DCC800000000000000000000000000000000004C
:10DCD800000000000000000000000000830016247F
:10DCE800BB14BB14BB14BB14BB14BB14BB14BB14B4
:10DCF800BB14BB14BB14BB14BB14BB14BB14BB14A4
:10DD0800BB14BB14BB14BB14BB14BB14BB14BB1493
:10DD1800BB14BB14BB14BB14BB14BB14BB14BB1483
:10DD2800BB14BB14BB14BB149A1C6E020100000088
:10DD380000000000000000000000000000000000DB
:10DD480000000000000000000000000000000000CB
:10DD5800000021008F0A9A1CBB14BB14BB14BB140F
:10DD6800DB0CBB0CDB0CDB0C540B9A1CBB0CBB0C8C
:10DD7800BA14BB14BB14BB14BB14D61B440000005C
:10DD8800000000000000200000000000000000006B
:10DD9800000000000000000000000000000000007B
:10DDA8000000000083001624BB14BB14BB14BB1472
:10DDB800BB14BB14BB14BB14BB14BB14BB14BB14E3
:10DDC800BB14BB14BB14BB14BB14BB14BB14BB14D3
:10DDD800BB14BB14BB14BB14BB14BB14BB14BB14C3
:10DDE800BB14BB14BB14BB14BB14BB14BB14BB14B3
:10DDF8009A1C6E02010000000000000000000000F4
:10DE0800000000000000000000000000000000000A
:10DE18000000000000000000000021000C029A1C15
:10DE2800BB14BB14BB14BB14BB14BB14BB14BB1472
:10DE3800740BBA14BC0CBB0CBA14BB14BB14BB14C3
:10DE4800BB14F61B64002000200000000000000046
:10DE580000000000000000000000000000000000BA
:10DE680000000000000000000000000083001624ED
:10DE7800BB14BB14BB14BB14BB14BB14BB14BB1422
:10DE8800BB14BB14BB14BB14BB14BB14BB14BB1412
:10DE9800BB14BB14BB14BB14BB14BB14BB14BB1402
:10DEA800BB14BB14BB14BB14BB14BB14BB14BB14F2
:10DEB800BB14BB14BB14BB149A1C6E0201000000F7
:10DEC800000000000000000000000000000000004A
:10DED800000000000000000000000000000000003A
:10DEE800000021000D029A1CBB14BB14BB14BB1408
:10DEF800BB14BB14BB14BB14740BBA14DC0CBB0CE2
:10DF0800BA14BB14BB14BB14BB0CF613A500000059
:10DF180020000000000000000000000000000000D9
:10DF280000000000000000000000000000000000E9
:10DF38000000000083001624BB14BB14BB14BB14E0
:10DF4800BB14BB14BB14BB14BB14BB14BB14BB1451
:10DF5800BB14BB14BB14BB14BB14BB14BB14BB1441
:10DF6800BB14BB14BB14BB14BB14BB14BB14BB1431
:10DF7800BB14BB14BB14BB14BB14BB14BB14BB1421
:10DF88009A1C6E0201000000000000000000000062
:10DF98000000000000000000000000000000000079
:10DFA8000000000000000000000021002E02BA1C42
:10DFB800BB14BB14BB14BB14BB14BB14BB14BC14E0
:10DFC800740BBA14DC0CBB0CBB14BB14BB14BB1411
:10DFD800BB0C791CEB0921000000200000000000A8
:10DFE8000000000000000000000000000000000029
:10DFF800000000000000000000000000830016245C
:10E00800BB14BB14BB14BB14BB14BB14BB14BB1490
:10E01800BB14BB14BB14BB14BB14BB14BB14BB1480
:10E02800BB14BB14BB14BB14BB14BB14BB14BB1470
:10E03800BB14BB14BB14BB14BB14BB14BB14BB1460
:10E04800BB14BB14BB14BB149A1C6E020100000065
:10E0580000000000000000000000000000000000B8
:10E068000000000000000000000000000000200088
:10E078000000420094239A14BB14BB14BB14BB14B5
:10E08800BA14BB14BB0CDB14730B9A14BB0CBB1473
:10E098009A14BB14BB14BB14BB0C991C2D0A0100A9
:10E0A8000000000000000000000000000000000068
:10E0B8000000000000000000000000000000000058
:10E0C8000000000083001624BB14BB14BB14BB144F
:10E0D800BB14BB14BB14BB14BB14BB14BB14BB14C0
:10E0E800BB14BB14BB14BB14BB14BB14BB14BB14B0
:10E0F800BB14BB14BB14BB14BB14BB14BB14BB14A0
:10E10800BB14BB14BB14BB14BB14BB14BB14BB148F
:10E118009A1C6E02010000000000000000000000D0
:10E1280000000000000000000000000000000000E7
:10E13800000000000000000001004200F5239A14CE
:10E14800BB14BB14BB14BB14DA0CDA14DA0CBA0C0B
:10E15800740B9A1CBB0CBB0CBA14BB14BB14BB14B9
:10E16800BB0CBA1C2E0221000000000000000000B9
:10E178000000000000000000000000000000000097
:10E1880000000000000000000000000083001624CA
:10E19800BB14BB14BB14BB14BB14BB14BB14BB14FF
:10E1A800BB14BB14BB14BB14BB14BB14BB14BB14EF
:10E1B800BB14BB14BB14BB14BB14BB14BB14BB14DF
:10E1C800BB14BB14BB14BB14BB14BB14BB14BB14CF
:10E1D800BB14BB14BB14BB149A1C6E0201000000D4
:10E1E8000000000000000000000000000000000027
:10E1F8000000000000000000000000000000000017
:10E2080001006300F523DB14BB0CBB14BB14BB1467
:10E21800BB149A149B14BB14730B9A1CBB14DB1409
:10E22800BA14BB0CBB0CBB14BB149A1C4E022100C5
:10E2380000000000000000000000000000000000D6
:10E2480000000000000000000000000000000000C6
:10E258000000000083001624BB14BB14BB14BB14BD
:10E26800BB14BB14BB14BB14BB14BB14BB14BB142E
:10E27800BB14BB14BB14BB14BB14BB14BB14BB141E
:10E28800BB14BB14BB14BB14BB14BB14BB14BB140E
:10E29800BB14BB14BB14BB14BB14BB14BB14BB14FE
:10E2A8009A1C6E020100000000000000000000003F
:10E2B8000000000000000000000000000000000056
:10E2C800000000000000000001006300F623BB0C02
:10E2D800DB0CBB14BB14BB14BC0CBC0CBC14BB14B3
:10E2E800D10ABA24BA14BB14BA14BB0CBC0CBB14A4
:10E2F800BB149A1C6F0201002000000000000000FF
:10E308000000000000000000000000000000000005
:10E318000000000000000000000000008300162438
:10E32800BB14BB14BB14BB14BB14BB14BB14BB146D
:10E33800BB14BB14BB14BB14BB14BB14BB14BB145D
:10E34800BB14BB14BB14BB14BB14BB14BB14BB144D
:10E35800BB14BB14BB14BB14BB14BB14BB14BB143D
:10E36800BB14BB14BB14BB149A1C6E020100000042
:10E378000000000000000000000000000000000095
:10E388000000000000000000000000000000000085
:10E3980001006400F61BDC0CDB0CBB14BB14BB14C3
:10E3A800BB0CBC0CDB1459144A017924BB14BB14F4
:10E3B800BA14BB0CBB14BB14BB149B14941BC40829
:10E3C8000000000000000000000000000000000045
:10E3D8000000000000000000000000000000000035
:10E3E8000000200084001624BB14BB14BB14BB140B
:10E3F800BB14BB14BB14BB14BB14BB14BB14BB149D
:10E40800BB14BB14BB14BB14BB14BB14BB14BB148C
:10E41800BB14BB14BB14BB14BB14BB14BB14BB147C
:10E42800BB14BB14BB14BB14BB14BB14BB14BB146C
:10E438009A1C6E02010000000000000000000000AD
:10E4480000000000000000000000000000000000C4
:10E4580000000000000000002100CA117824BB0C55
:10E46800DB0CBB14BB14BB14BB14BA1C991C330BB8
:10E478002701781C9B149B14BA0CDA0CBA149B1C49
:10E48800BB14BC0C79240509200000000000000022
:10E498000000000000000000000000000000000074
:10E4A8000000000000000000000020008400172485
:10E4B800BB14DB0CDA0CBB14BB14BB14BB14BB14AD
:10E4C800BB14BB14BB14BB14BB14BB14BB14BB14CC
:10E4D800BB14BB14BB14BB14BB14BB14BB14BB14BC
:10E4E800BB14BB14BB14BB14BB14BB14BB14BB14AC
:10E4F800BB14BB14BB14BB149A1C8E020100000091
:10E508000000000000000000000000000000000003
:10E5180000000000000000000000000000002100D2
:10E528002100EF12BA1CBB0CBB0CBB14BB14BB14F0
:10E53800BB14BA14B91C330B0609782C9B14BB14F2
:10E54800DB14BB14BA149B1CBB14BB0C9A24E60046
:10E558004100000000000000000000000000000072
:10E5680000000000000000000000000000000000A3
:10E578000000200083001624BB14DB0CBA14BB1463
:10E58800BC0CBB0CBB14BB14BB14BB14BB14BB141A
:10E59800BB14BB14BB14BB14BB14BB14BB14BB14FB
:10E5A800BB14BB14BB14BB14BB14BB14BB14BB14EB
:10E5B800BB14BB14BB14BB14BB14BB14BB14BB14DB
:10E5C800991C8E02010000000000000000000000FD
:10E5D8000000000000000000000000000000000033
:10E5E80000000000000021002200D0029A1CDB1469
:10E5F800BB0CBB14BB14BB14BC0CBC04BB14F40A8A
:10E60800840073139A14DC14BB0CBB14BA14BB1427
:10E61800BB14DB0CBA1C4D0A2100000000000000EE
:10E6280000000000000000000000000000000000E2
:10E638000000000000000000000000008300162415
:10E64800BB14BB14BB14BB14BB0CBB0CBB14BB145A
:10E65800BB14BB14BB14BB14BB14BB14BB14BB143A
:10E66800BB14BB14BB14BB14BB14BB14BB14BB142A
:10E67800BB14BB14BB14BB14BB14BB14BB14BB141A
:10E68800BB14BB14BB14BB14991C6E020000000021
:10E698000000000000000000000000000000000072
:10E6A8000000000000000000000000000000200042
:10E6B800E500F51B9A14BB0CBA14BB14BB14BB14AD
:10E6C8009B149A1479248B010200CF0A9914BB0C6D
:10E6D800BB0CBB14BB14BB14BB14DB0CDA14110B3E
:10E6E80022002000000000000000000000000000E0
:10E6F8000000000000000000000000000000000012
:10E70800000000008300361CBB0CBB14BB14BB14F8
:10E71800BB0CBB0CBB0CBB14BB14BB14BB14BB1491
:10E72800BB14BB14BB14BB14BB14BB14BB14BB1469
:10E73800BB14BB14BB14BB14BB14BB14BB14BB1459
:10E74800BB14BB14BB14BB14BB14BB14BB14BB1449
:10E758009A1C6E020100000000000000000000008A
:10E7680000000000000000000000000000000000A1
:10E7780000000000000000006901781CBB14BA14F6
:10E78800BA14BB14BB14BB149A14BA149824C70047
:10E7980001002B0A981CDB0CBB0CBB14BB14BB146C
:10E7A800BB14BA14BA0C782C6811200000000000C1
:10E7B8000000000000000000000000000000000051
:10E7C8000000000000000000000001008400361C6A
:10E7D800DB0CBC149B149B14BB14BB0CBB14BB14E8
:10E7E800BB14BB14BB14BB14BB14BB14BB14BB14A9
:10E7F800BB14BB14BB14BB14BB14BB14BB14BB1499
:10E80800BB14BB14BB14BB14BB14BB14BB14BB1488
:10E81800BB14BB14BB14DC0C9A1C8F022100000033
:10E8280000000000000000000000000000000000E0
:10E83800000000000000000000000000000042008E
:10E84800101B9A1CBB14BB14DA14BB14BB14BB14E6
:10E85800BB14BA14361CA50001006400F51BBA0CE1
:10E86800DC14BB14BB14BB0CBB14BA14BB14791C4A
:10E87800AB012100000000000000000000000000C3
:10E888000000000000000000000000000000000080
:10E8980000000200A500161CDB14BC0C9C14BB1461
:10E8A800BB14BB14BB14BB14BB14BB14BB14BB14E8
:10E8B800BB14BB14BB14BB14BB14BB14BB14BB14D8
:10E8C800BB14BB14BB14BB14BB14BB14BB14BB14C8
:10E8D800BB14BB14BB14BB14BB14BB14BB14DC0C9F
:10E8E8009A1CAF0A4200010000000000000000006E
:10E8F8000000000000000000000000000000000010
:10E908000000000020004300730B9B14DC14BA14B1
:10E91800BA14BB14BB14BB14DB149A146E02220085
:10E9280000004200B323BA1CBB0CBB14BB14DB0CA5
:10E93800BB14BB149A0CBB1C93238400000000007A
:10E9480000000000000000000000000000000000BF
:10E958000000000000000000000022008300152CC9
:10E968009A14BC0CBC14BB14BA14BB14BB14BB144F
:10E97800BB14BB14BB14BB14BB14BB14BB14BB1417
:10E98800BB14BB14BB14BB14BB14BB14BB14BB1407
:10E99800BB14BB14BB14BB14BB14BB14BB14BB14F7
:10E9A800BB14BB14BB14BB149A1C4E0A41002100B3
:10E9B800000000000000000000000000000000004F
:10E9C8000000000000000000000000002100CA094B
:10E9D8007824BB14BB0CBB14BB14BB14BB14BB14F2
:10E9E800BB14791C2C022200200001004D0A991C3E
:10E9F800BB14BB14BB14DB0CBB14BB14BB14BB147F
:10EA0800161CE600010000000000000000000000E5
:10EA180000000000000000000000000000000000EE
:10EA2800000021006200B3339A24DC14BC0CBB1430
:10EA3800BB14BB14BB14BB14BB14BB14BB14BB1456
:10EA4800BB14BB14BB14BB14BB14BB14BB14BB1446
:10EA5800BB14BB14BB14BB14BB14BB14BB14BB1436
:10EA6800BB14BB14BB14BB14BB14BB14BB14BA1427
:10EA7800782C0C12200000000000000000000000AC
:10EA8800000000000000000000000000000000007E
:10EA98000000000042008E0A9A14BB14DB0CBB0C69
:10EAA800BB14BB14BB14BB149B14F61BC50001009C
:10EAB80020002108AA097924DB14BA14BB14BB0C62
:10EAC800BB14BB14DB149B0CBA1C6D122100000094
:10EAD800010000000000000000000000000000002D
:10EAE80000000000000000000000200000002801D5
:10EAF800F71BBB14DC0CBB149B14BB14BB0CBB1462
:10EB0800BB14BB14BB14BB14BB14BB14BB14BB1485
:10EB1800BB14BB14BB14BB14BB14BB14BB14BB1475
:10EB2800BB14BB14BB14BB14BB14BB14BB14BB1465
:10EB3800BB14BB14BB14B91CB00A6400000000006D
:10EB4800000000002000000000000000000000009D
:10EB5800000000000000000020000000A4001524B0
:10EB6800BB14BB14DA0CBB0C9B14BB14BB0CBB143E
:10EB7800BB1C731B620020000000000064007313BC
:10EB8800BA14BA14BC0CDC0CBB0CBB14DB14BA14DE
:10EB9800DA141524E6000000000000000000000060
:10EBA800000000000000000000000000000000005D
:10EBB80000000000210823008F12982CDA14BB0CE7
:10EBC800DC149C0CBC14BB14BB14BB14BB14BB14CA
:10EBD800BB14BB14BB14BB14BB14BB14BB14BB14B5
:10EBE800BB14BB14BB14BB14BB14BB14BB14BB14A5
:10EBF800BB14BB0CBB0CDC0CBB0CBA14991CD42B7F
:10EC08002701220020000000000000000000000092
:10EC180000000000000000000000000000000000EC
:10EC2800010022006C1299249B14BA14DA0CDB0C34
:10EC3800BC14BA14DB0CBB147924CB0121000000EE
:10EC4800010000004100CF129A1C9B14BC14BB0C9D
:10EC5800BA0CBA14DB14BA14BA0CBA248E0A2200FD
:10EC68000008000000000000000000000000000094
:10EC7800000000000000000000002000000001006B
:10EC880084006901B41B99249A1C9A1C9A1C991C2B
:10EC9800991C991C991C991C991C991C991C991CC4
:10ECA800991C991C991C991C991C991C991C991CB4
:10ECB800991C991C991C991C991C991C9A1CBA1C82
:10ECC8009924772CAF0206012100210000000000E2
:10ECD800000000000000000000000000000000002C
:10ECE80001000000200020080200E7001524BB14E2
:10ECF8009B14BA14DA0CDB0CBB0CBA14BA147B0CD8
:10ED0800362C2701220000000000200021002701E6
:10ED1800572CBB14BB14BA0CDB14BB14BB14BB0CB0
:10ED2800BB14BA14F51B28012100200000000000C4
:10ED380000000000000000000000000000000000CB
:10ED4800000020002000000001002200E700CB099D
:10ED5800EB01EB010C02EC01EC01EC01EC01EC0124
:10ED6800EC01EC01EC01EC01EC01EC01EC01EC0133
:10ED7800EC01EC01EC01EC01EC01EC01EC01EB0124
:10ED8800EB01EB01EC01CC01EC09AA0964002200BB
:10ED98002100210000000000000000000000000029
:10EDA800000020000000000000000000200000001B
:10EDB80022008F0AB924BB14BB14BB0CBB14BB14B0
:10EDC800BB14BB149914BB14CF0A430001000008FC
:10EDD8000000200000004200CF12BA14BA14DA145E
:10EDE800BB0CBB14BB14DB0CDB14BA149A1C9423A5
:10EDF80063000000000000000000000000000000A8
:10EE080000000000000000000000000000000000FA
:10EE18000000000021002200220021002100010042
:10EE280001000100010001000100010001000100D2
:10EE380001000100010001000100010001000100C2
:10EE48000100010001000100000001000100220092
:10EE580001000100000800000000000000000000A0
:10EE6800000000000000000000000000000000009A
:10EE78000000000000000000EA015824BB14DB0C6D
:10EE8800BB14BC0CBC0CBB149A14BB14B91C98243E
:10EE980048012100000020002000000000000000C0
:10EEA800C500371CBA14DB14BB0CBB14BB14BC0C58
:10EEB800BB0CBB0CBB0C991CEB0121000000000033
:10EEC800000000000000000000000000000000003A
:10EED80000000008000000002000200020000000C2
:10EEE80000002008000000000000000000000000F2
:10EEF800000000000000000000000000000000000A
:10EF080000000000000000000000000000000000F9
:10EF18000000000000002000200020000000000089
:10EF280000000000000000000000000000000000D9
:10EF38000000000000000000000000000000840045
:10EF4800B313BA14BB0CDB0CBB14BB14DC0CBB0C2A
:10EF58007B149B14991CCF0A63000000000000007A
:10EF680000000000000000002100AE0ADA14DC14E2
:10EF7800DC14BB14BA14BB14BC14BB14BB0CDA14D9
:10EF8800B313C500000000000000000000080000E6
:10EF98000000000000000000000000000000000069
:10EFA8000000000000000000000000000000000059
:10EFB8000000000000000000000000000000000049
:10EFC8000000000000000000000000000000000039
:10EFD8000000000000000000000000000000000029
:10EFE8000000000000000000000000000000000019
:10EFF8000000000000000000000000000000000009
:10F00800200000002100EC01791CBB0CDC14BB0CB7
:10F01800BB14BA14DB0CDB0CBB14BB1C171CE600BE
:10F0280001000000000000000000000000000000D7
:10F03800000047013614BB149B14DB14BA14BB142C
:10F048009C14BB14BB0CDB0CD91CF0122200010071
:10F0580000000000000800000000000000000000A0
:10F068000000000000000000000000000000000098
:10F078000000000000000000000000000000000088
:10F088000000000000000000000000000000000078
:10F098000000000000000000000000000000000068
:10F0A8000000000000000000000000000000000058
:10F0B8000000000000000000000000000000000048
:10F0C8000000000000080000210000002709372484
:10F0D8009B1CBB14BB0CBC14BB14BA14BA0CDB0CC1
:10F0E800DB0C9A1CB0124200000000000000000077
:10F0F800000000000000000000002100D00A7A246F
:10F10800BB1CBA14BA14BB149C14BB14DB14BA0C81
:10F11800BB14571CCB09430021002100000800083C
:10F1280000000000000000000000000020000000B7
:10F1380000000000000000000000000000000000C7
:10F1480000000000000000000000000000000000B7
:10F1580000000000000000000000000000000000A7
:10F168000000000000000000000000000000000097
:10F178000000000000000000000000000000000087
:10F188000000000000000000000000000000210056
:10F198000100A400110BBB249B14BA14DB0CBC1493
:10F1A800BA14BA14BA14BA0CBA0C372428090000D5
:10F1B8000000000000000000000000000000000047
:10F1C80000002100070157349A1CBB14BB14BB0C68
:10F1D800BB14BB14BA14BB14BB149A143724AA0169
:10F1E80043002100000000000000000000000000B3
:10F1F8000000000000000000000000000000000007
:10F2080000000000000000000000000000000000F6
:10F2180000000000000000000000000000000000E6
:10F2280000000000000000000000000000000000D6
:10F2380000000000000000000000000000000000C6
:10F2480000000000000000000000000000000000B6
:10F2580000000000200001008400311379149B1481
:10F268009B14BB14BB0CBB14BB0CBB14BB149A146F
:10F27800B91CD0122200200000000000000000008D
:10F2880000000000000000000000210042002C0ADD
:10F29800581CBB14BB14BB0CDB0CDB0CBB149B1441
:10F2A800BC14BC14BB141534060142002000000035
:10F2B8000000000000000000000000000000000046
:10F2C8000000000000000000000000000000000036
:10F2D8000000000000000000000000000000000026
:10F2E8000000000000000000000000000000000016
:10F2F8000000000000000000000000000000000006
:10F3080000000000000000000000000000000000F5
:10F31800000000000000000000002000000821009C
:10F328004D12991CDB0C9B149B14BB0CDA0CBB1400
:10F33800DB0CBB149B149A1C9413060121002000BB
:10F3480000000000000000000000000000000000B5
:10F3580000000000210064009323BA24BB14BB0CF6
:10F36800DB0CBB0CBB14BB14BB14BB14DC0CB91CEE
:10F37800F0126400210000080008000000000000EE
:10F388000100010000000000000000000000000073
:10F398000000000000000000000000000000000065
:10F3A8000000000000000000000000000000000055
:10F3B8000000000000000000000000000000000045
:10F3C8000000000000000000000000000000000035
:10F3D800000000000000000000000000000800001D
:10F3E8000000000021006901161CBA14BB14BB14EC
:10F3F800BB14BB14BB149B14DC14BB0CBA1C7724C1
:10F40800CB01220000000000000000000000000006
:10F4180000000000000000000000000000004200A2
:10F428002801D61BDB14BA14DB14FC14BB14BB1460
:10F43800BB14BB0CBB0CBA14981CF112640021005D
:10F44800000800002000200000000000000000006C
:10F4580000000000000000000000000000000000A4
:10F468000000000000000000000000000000000094
:10F478000000000000000000000000000000000084
:10F488000000000000000000000000000000000074
:10F498000000000000000000000000000000000064
:10F4A8000000000000000000200001006801151C99
:10F4B8009A14BB14BB14BB14BC14BB14BB14BB14EC
:10F4C8009B14DC0C99146E0A6400000000002000F4
:10F4D8000000000000000000000000000000000024
:10F4E800000020000000210043002D0A9A24991CE6
:10F4F800DA14BB0CDB14BB14BB14BB14BA14DB1436
:10F50800BB14991CD00AA400210020002000000090
:10F5180000000000000000000000000000000000E3
:10F5280000000000000000000000000000000000D3
:10F5380000000000000000000000000000000000C3
:10F5480000000000000000000000000000000000B3
:10F5580000000000000000000000000000000000A3
:10F568000000000000000000000001002100210050
:10F5780042008901F5239914BB0CBB0CBB14BB14C6
:10F58800BC14BB14BB14BB0CBB14BA0CF51B070191
:10F598000100000800002100000000000000000039
:10F5A80000000000000000000000200020002008EB
:10F5B80000006400B00A7924DA14DB0CDB14BB14F5
:10F5C800BB14BB14BA149B0CBB14BA14D91CB413C7
:10F5D800AA0902000000000020000000000000004E
:10F5E8000000000000000000000000000000000013
:10F5F8000000000000000000000000000000000003
:10F6080000000000000000000000000000000000F2
:10F6180000000000000000000000000000000000E2
:10F6280000000000000000000000000000000000D2
:10F6380020000000010085008E12161CBA1C9B14C5
:10F64800DC14BB0CBB14BB14BB14BB14BB14DB0C09
:10F65800DB143724490102000000000801080000FB
:10F668000000000000000000000000000000000092
:10F678000000200000000000000800006400D423FF
:10F68800BA14DB0CBB0CBB149B14BB14BB0C9B1433
:10F69800BB14BA0CBA14BA1438248B0922002000FF
:10F6A8002000010001000000000000000000000030
:10F6B8000000000000000000000000000000000042
:10F6C8000000000000000000000000000000000032
:10F6D8000000000000000000000000000000000022
:10F6E8000000000000000000000000000000000012
:10F6F8000000000000000000000800008400311332
:10F70800991CBA14BB14BC149B14BA14BA14DB0C9D
:10F71800DB0CBB149B1C9B0CB8240C1222000000B1
:10F7280020000000000000000000000000000000B1
:10F7380000000000000000000000000000000000C1
:10F74800000000002100880936249A0CBC0C9B1488
:10F758009B14BC0CDB0CBB14BB14BB14BB14BB1438
:10F768009B1C37242D0AC50021000100010021003F
:10F778000000000000000000000000000000000081
:10F788000000000000000000000000000000000071
:10F798000000000000000000000000000000000061
:10F7A8000000000000000000000000000000000051
:10F7B8000000000000000000000000000000000839
:10F7C8000100280912139A1CDB0CBB14BB0CBB0CE0
:10F7D800BB149A1CBA14BB0CDC0CBB0CBB149924CC
:10F7E800F01A64000008000000000000000000009B
:10F7F8000000000000000000000000000000000001
:10F8080000000000010001000000000000002100CD
:10F8180088015724BB14BC0CDB14BB14DC0CDB0CB8
:10F82800DB0CBA14BB14BB14DB149A14991C731B9D
:10F83800E600420041000000000000000000000057
:10F8480000000000000000000000000000000000B0
:10F8580000000000000000000000000000000000A0
:10F868000000000000000000000000000000000090
:10F878000000000000000000000000000000000080
:10F888002000200041008400EC015824BC1CBB145B
:10F89800BB14BB14BC14BC0CDB0CDB0CDB0CBC0CAD
:10F8A800BC14BB0CB91CF11265000100200000005B
:10F8B8000000200020000000000000000000000000
:10F8C8000000000000000000000000000000000030
:10F8D8000000000020000000410069011624BB1C44
:10F8E8009A14BB14BB0CDB0CDB0CDB0CBA14BA147B
:10F8F800BB0CDB0C9A14991C5724EF1A2701220021
:10F9080000000000000020000000000000000000CF
:10F9180000000000000000000000000000000000DF
:10F9280000000000000000000000000000000000CF
:10F9380000000000000000000000000000000000BF
:10F948000000000000000000210063000B02D41337
:10F9580099149A14BB149B149B149B14BC14DC0CB0
:10F96800DB04DB0CBC14BC147A0C9924F112A5003E
:10F97800020021000000000000000000000000005C
:10F98800000000000000000000000000010000006E
:10F99800000000000000000000000000200000003F
:10F9A800000022008A01F51BBA14BB14DB14BB1437
:10F9B800BB14BB14BB14BB14DC0CDB14BB14BB148E
:10F9C800BA14B91CD51BCB09640001000000000063
:10F9D800000000000000000000000000000000001F
:10F9E800000000000000000000000000000000000F
:10F9F80000000000000000000000000000000000FF
:10FA080000000000000000000000000000004200AC
:10FA18002701AF12581CBB14BB0CBB14BB149A149F
:10FA2800BB14BB14BB14BB14BB14BB14DB14BA0C3F
:10FA3800B924F01A85000100200000000000000031
:10FA480000000000000000000000000000000000AE
:10FA5800000000000000000000000000000000009E
:10FA68000000000000000000000000002100690103
:10FA78005724BB14BB0CBB14BB14BB14BB14BC0C69
:10FA8800DC149A0CDB0CBB149B0CBC0CDC1C79241E
:10FA98009423AA0143002100000000000000000098
:10FAA800000000000000000000000000000000004E
:10FAB800000000000000000000000000000000003E
:10FAC800000000000000000000000000000020000E
:10FAD80021004200A400AE1A3624791CBB14BC14C1
:10FAE800DC14BC0CDC0CBA0CDA0CDA0CBB149B145E
:10FAF8009B1CBB14BA0CB91CF11284000000000056
:10FB080020000000000000000000010000000000CC
:10FB180000000000000000000000000000000000DD
:10FB280000000000000000000000000000000000CD
:10FB380000000000000002008901F51BDA14BB0C6C
:10FB4800BB0CDB14BB14BA14BB14BB0CDB0CDB0CF6
:10FB5800BB14BB14BB14BB14BA1C581C94136E12F0
:10FB680027014300010021002000000000000000E0
:10FB7800000000000000000000000000000000007D
:10FB8800000000000000000000002000210000002C
:10FB980020000000410083000B0AD0123624791C93
:10FBA8009B14BB14BB14DB0CBB0CBC0CBB0CBB14F4
:10FBB800DA0C9A14BC1C9B0CBC0CBB147924F11AEB
:10FBC8008500210000000000000000000000000087
:10FBD800000000000000000000000000000000001D
:10FBE800000000000000000000000000000000000D
:10FBF80000000000000000000000000000002100DC
:10FC080023008A011524BA1CDB14BB149B0CBB14FB
:10FC1800BB14BA14BB14BB14DB0CDA0CDA14BA0C20
:10FC2800BB14BB14BA14B91C361CF51B4D0A46117B
:10FC38008300420042000000000000002000200075
:10FC480000000000000000000000000001000100AA
:10FC580001002100200041000601AA09521BF613E9
:10FC6800791C9B1C9B149B149B14BA14DA0CBB0CB8
:10FC7800BB149B1CBA14BB14DB0CDB149B0CBC140C
:10FC8800BB14981C10138500010020002000000000
:10FC9800000000000000000000000000000000005C
:10FCA800000000000000000000000000000000004C
:10FCB800000000000000000000000000000000003C
:10FCC8000000000000000000410022000701F10AC6
:10FCD80079249A1CBB14BC14BC14BB14BB14BA14EE
:10FCE800BA14BA14BA149B149B149B14BC14BB14F6
:10FCF8007A0C9A149A1C992C940B5313F01A080135
:10FD080085008400630063002200010002000200F5
:10FD180043006400640084008500CA01511B9313EA
:10FD2800F61B9924BB1C9B14BB14BB14BB14DA141C
:10FD3800BA14BB0CBB0CBB14BA14BA14BB149B1476
:10FD48009B1CDB14DB0CBB147824301BA3002000A5
:10FD5800000000000000000000000000000000009B
:10FD6800000000000000000000000000000000008B
:10FD7800000000000000000000000000000000007B
:10FD88000000000000000000000000000000200843
:10FD980000000000210064008E1278349B14BC0C13
:10FDA800BC0CBB14BB14BB149B149C149B14BB1439
:10FDB800BB14BB149B0CBB14BB149B14BB14BB140B
:10FDC800BA149A1C9924381C37243624162416246D
:10FDD800F1126F0A6F0A6F0AB523162C17245724DD
:10FDE800371C781CBA14BA149A14BB14BB149B148D
:10FDF800BC14BB14DB14DA0CDA14BB14BC14BC0C32
:10FE0800DB0CBB14BB149B1C9B14BA14991CD52384
:10FE180069016300200000000008000000000000E5
:10FE280000000000000000000000000000000000CA
:10FE380000000000000000000000000000000000BA
:10FE480000000000000000000000000000000000AA
:10FE5800000000000000000000000000000000009A
:10FE680063004901D51BBA1CBB0CDB0CBB0CBC0CDA
:10FE7800BC14BC14BB14BB0CDB0CDB0CDA0CBB14C1
:10FE8800BB14BC14BB14BA14BB14BB14BA14BB14F3
:10FE9800BB14BB14BB14BB14BA14BA1CBA14BA14DE
:10FEA800BA14BB14DB14BB0CDC0CDC0CDC0CBB0C78
:10FEB800DB0CDB0CBB0CBB14BB14BB14BB14BB149A
:10FEC800BB14BB149B14BC14DC0CDB0CDB14BA1481
:10FED800BA14771C6E0AC600220020000000000039
:10FEE800000000000000000000000000000000000A
:10FEF80000000000000000000000000000000000FA
:10FF080000000000000000000000000000000000E9
:10FF180000000000000000000000000000000000D9
:10FF2800000000000000200800002200C5006D024B
:10FF380098249B14BC0CBC0CBB0CBB14DB14DA0C53
:10FF4800DA0C9A0CBA14BB14BB14BC0CBB0CBB0C5B
:10FF5800BB14BB14BB14BB14BB14BB14BB0CBB0C31
:10FF6800BB14BB14DA0CDA0CDB0CDB0CBB0CBB0CC3
:10FF7800BB0CBB0CBB0CBB0CBB14BB14BB14BA1422
:10FF8800BA14BA14BA14BB147B0CBC14BB1C9B1453
:10FF98009B0CDB0CFA0CD91CB4138901630001001B
:10FFA8000008000800000000000000000000000039
:10FFB8000000000000000000000000000000000039
:10FFC8000000000000000000000000000000000029
:10FFD8000000000000000000000000000000000019
:10FFE80000000000000000000000000000002000E9
:08FFF80020000000200042007F
:020000040801F1
:1000000089097313991CBA14BA14BB14BA14DB14FB
:100010009B14BB1C9B1C9B1C9B14BC0CBB0CBB0CE7
:10002000BB0CBB14BB14BB14BB14BB0CBB0CBB0C78
:10003000BB14BB14BB14BB14BB14BB14BB14BB1448
:10004000BB14BB14BB14BB14BB14BB14BB14BB1438
:10005000BB14BB0CDB0CBB0CDB0CBB0CBB149B1430
:10006000BB1C9A1C57246E0AE600220021000008DF
:100070000010000800000000000000000000000068
:100080000000000000000000000000000000000070
:100090000000000000000000000000000000000060
:1000A0000000000000000000000000000000000050
:1000B0000000000000000000000000000000200020
:1000C000000021080000000021006300AA09721B43
:1000D000781C9A1CBA14BB14BB0CBB149B149B1445
:1000E000BB14BB0CBB0CBA14BA14BB14BB14BB14AA
:1000F000BB14BB14BB14BB14DB0CDB0CDB0CBB0C48
:10010000BB14BA14BA14BA14BA14BA14BB14BB147C
:10011000BB14BB14BB14BB14BB14BB14BB14BB0C6F
:10012000DA14B914DA14BA1C171C8F12C700430072
:100130000000000000080008000820000000000087
:1001400000000000000000000000000000000000AF
:10015000000000000000000000000000000000009F
:10016000000000000000000000000000000000008F
:10017000000000000000000000000000000000007F
:10018000000000000000000000000000000000006F
:1001900000002000210064004801B41B9924B91418
:1001A000DB0CDB0CBB0CBB14BB14BA14DA14BB1491
:1001B000BB14BB14BB14BB14BB14BB14BB14BB14C7
:1001C000BB14BB14BB14BB14BB14BB14BB14DB0C9F
:1001D000DB0CDB0CDA0CDB0CBB14BB14BB14BB1448
:1001E000BB14BB14BB149B149B149A14571CCF0A4A
:1001F000C6002200000021000000000000000000F6
:1002000000002000000000000000000000000000CE
:1002100000000000000000000000000000000000DE
:1002200000000000000000000000000000000000CE
:1002300000000000000000000000000000000000BE
:1002400000000000000000000000000000000000AE
:10025000000000000000000000000000000000009E
:1002600021008300C9098E0AF61BDA1CDB14BB14BB
:10027000BB14DB14BA14BB14BB14BC0CBB14BA14EF
:10028000BA0CDC0CBB14BB14BB14BB14BB14BB14E6
:10029000BB14BB14BC14BB0CDB0CDA14DB0CBA0CA7
:1002A000BA14BB14BB0CDC0CBB149B14BB1C582C29
:1002B000111B4D0A27014200200000000000000031
:1002C000000000000000000000000000000000002E
:1002D000000000000000000000000000000000001E
:1002E000000000000000000000000000000000000E
:1002F00000000000000000000000000000000000FE
:1003000000000000000000000000000000000000ED
:1003100000000000000000000000000000000000DD
:10032000000000000000000000002000010022008A
:10033000E7006E0A731BB51B992C991CBA14BB14E9
:10034000BB14BC0CBB149A14DB14DC0CBB14BB1424
:10035000BB14BB14BB0CDB0CBA149B1C9C14DC0C34
:10036000DA149914BB0CDB149A1CBB14DB0CBB1401
:100370007924B41B73238A0184002200200020000A
:10038000000000000000000000000000000000006D
:10039000000000000000000000000000000000005D
:1003A000000000000000000000000000000000004D
:1003B000000000000000000000000000000000003D
:1003C000000000000000000000000000000000002D
:1003D000000000000000000000000000000000001D
:1003E000000000000000000000000000000000000D
:1003F0000000210001000108000021002100A500EB
:100400006901B00A772C781C991CDB1CBA1CBA1C39
:100410009A0C9B04BB14BB14BB14BB14BB0CDB0CAD
:10042000BA149B14BC14DC14BA14991CBA1CB92459
:100430005824782C7824F10A8901A4002100220094
:10044000210041000000000000000000000000004A
:10045000000000000000000000000000000000009C
:10046000000000000000000000000000000000008C
:10047000000000000000000000000000000000007C
:10048000000000000000000000000000000000006C
:10049000000000000000000000000000000000005C
:1004A000000000000000000000000000000000004C
:1004B0000000000000000000000000080008000824
:1004C000200020004000200021006300C400A5009F
:1004D00089018F0A9012B10A1714BB14BB149B1424
:1004E000BB14BB14BB14DB0CDA14BB14BB14BB145D
:1004F000380CF10AAF0A6C0AC5008400A40062003F
:10050000000040002000200000002000000800083B
:1005100000000000000000000000000000000000DB
:1005200000000000000000000000000000000000CB
:1005300000000000000000000000000000000000BB
:1005400000000000000000000000000000000000AB
:10055000000000000000000000000000000000009B
:10056000000000000000000000000000000000008B
:10057000000000000000000000000000000000007B
:100580000000000000002000000001002100210008
:10059000210042000709CC190E0A0F0A7924991C80
:1005A0009A14BB14BB14BB14BC14BC14BC14BB14F1
:1005B000BB14BB14BB14BA1C99240E0AED11CB1941
:1005C0008500230001000000000000000000000082
:1005D000000000000000000000000000000000001B
:1005E000000000000000000000000000000000000B
:1005F00000000000000000000000000000000000FB
:1006000000000000000000000000000000000000EA
:1006100000000000000000000000000000000000DA
:1006200000000000000000000000000000000000CA
:1006300000000000000000000000000000000000BA
:1006400000000000000000000000000000000000AA
:1006500000004200C600E800362C982C992479143A
:10066000DB1CDB14BB0CDB14BB0CBC0CBB14BB14C1
:10067000BB14BB0CBB0CBB0CBB14BB14BB14BB0C22
:100680009A0CDB1C9A1C591C992C572C732B0801B3
:10069000E60022002100000001000100000020000F
:1006A000000000000000000000000000000000004A
:1006B000000000000000000000000000000000003A
:1006C000000000000000000000000000000000002A
:1006D000000000000000000000000000000000001A
:1006E000000000000000000000000000000000000A
:1006F00000000000000000000000000000000000FA
:1007000000000000000000000000000000000000E9
:1007100001080100210063008600B423792C791CB4
:100720009A1CBB14BB14BB14DC14BB14BB14BB0C51
:10073000DB0CBB0CBB14BB14BB14BB14DB0CBB1419
:10074000BB14BA14BA14BB14BC149B0C9B0CBB0C8A
:10075000DB0CBA0CBA1CDA24B924D51BAF1A64001E
:100760002200210801000000000800000000000035
:100770000000000000000000000000000000000079
:100780000000000000000000000000000000000069
:100790000000000000000000000000000000000059
:1007A0000000000000000000000000000000000049
:1007B0000000000000000000000000000000000039
:1007C0000000000000000000000000000000000029
:1007D00000002000000020004300EA11CF1A782C0E
:1007E00099249A14BB14BA0CBA0CBB149B14BB14F6
:1007F0009B14BA14BB14BA14BB14BC14BB14BB14A2
:10080000BB14BB14BB14BB14BB14BA14BB14BC1470
:10081000BB14BA14DB14BA0CDB0CBB0CDC149B1439
:100820009B14BB14BA1C782CCF12A91162000100D2
:10083000210800000000000000000000000000008F
:1008400000000000000000000000000000000000A8
:100850000000000000000000000000000000000098
:100860000000000000000000000000000000000088
:100870000000000000000000000000000000000078
:100880000000000000000000000000000000000068
:100890000000000000000000210021004200A9111A
:1008A000B63C771CBA14BB0CDC14BC14BB14BB14D0
:1008B0009A0CDB0CBB14DB149A14BA149A14DB14D4
:1008C0009B14BB14BB14BB14BB14BB14BB14BB14D0
:1008D000BB14BB14BB14BB14BA14BA149A0CDB14AB
:1008E000BB0CDC147B0CBB149B14BB14BB14BA0CE8
:1008F000DA14B824142CCA114300210000000000AF
:1009000000000000000000000000000000000000E7
:1009100000000000000000000000000000000000D7
:1009200000000000000000000000000000000000C7
:1009300000000000000000000000000000000000B7
:1009400000000000000000000000000000000000A7
:100950000000000020000000200000000000000057
:100960006200C6005734991CBA14BA14BB0CDB0CD5
:10097000BC0CBC0CBC14BB14DB14BB0CBB0C7A0C45
:10098000FC1C9B0CDC14DB14DB14BB14BB14BB0C75
:10099000BB0CBB0CBB149B0CDC14BB0CDC149A0C06
:1009A000BB14BB1CBB1CBC14DD14BB0CFC14990C8D
:1009B000BA0CBA14BA14DA14BB0CDB0CBB14991CB5
:1009C0007634A6002200410000000008000000006C
:1009D000000000000008000000000000000000000F
:1009E0000000000000000000000000000000000007
:1009F00000000000000000000000000000000000F7
:100A000000000000000000000000000000000000E6
:100A100000000000000000000000000020000000B6
:100A20000000000041004300932BBA1C9B149B1C48
:100A30009B1C9B14BB14BB14DB14BB14BB14BB1456
:100A4000BB0C9B0CBB14BB14BB14BB0CDB0CBB0C56
:100A50009A14BA1C991C991C991C991C991CBA1CB3
:100A6000991CBA1C9A14DC0CBC0C9B0CBC1C9B146F
:100A7000BC14BB14BB14FB14BB14BB0CBA0CBB14CE
:100A8000BB0CBB0C9A149A1CBB24791C3223440067
:100A90002100200000000000010001000000000013
:100AA0000000000000000000000000000000000046
:100AB0000000000000000000000000000000000036
:100AC0000000000000000000000000000000000026
:100AD0000000000000000000000000000000000016
:100AE0000000000000000100410062008C1AB824E0
:100AF000BA149B1C9B14BB14BB14BB0CBB14BB14BF
:100B00009B149B1CBB14BB14BA0CFA14BA14BA1471
:100B10009A14DB1C991C57248F122D124D1A2D1A72
:100B20002C1A2C1A2C1A4D1A2D1A4D1A1023991CF6
:100B3000DA1CB91CB91CBA1C9A14BB14BB14BB0C2C
:100B4000BB14BB14BC14BC14BB149B1CBB14BB0C4B
:100B5000BA14BA1C9A1C982C8D2242000100200065
:100B60002000010001000000000000000000000063
:100B70000000000000000000000000000000000075
:100B80000000000000000000000000000000000065
:100B90000000000000000000000000000000000055
:100BA000000000000000000000000000000821001C
:100BB000850016349A1C9B14BB0CDB0CBB14BA14B6
:100BC000DB0CBB0CDA0CDA0CBA14BA14BA14BA1473
:100BD000BA149A1CD623522BCE3243004200420054
:100BE000010021002100010001000100210021007D
:100BF0004200220022002200430064000F2B5223F7
:100C00005724991CBA14FC1CBB14BB14BA14BA1494
:100C1000BA14BB0C9B0CBB149B14BB14BA0C9A14D7
:100C20009A1C942368094100000000002000000085
:100C300000000000000000000000000000000000B4
:100C400000000000000000000000000000000000A4
:100C50000000000000000000000000000000000094
:100C60000000000000000000000000000000000084
:100C70002100000842000D1A9A2CBC14BB14BB14AE
:100C8000BB0CDB0C9B149A1CDB149A0CDB149A141F
:100C9000DB14BB14992457349233430043002200E1
:100CA0002000000000000000000000000000000024
:100CB0000000000000000000000000000000000034
:100CC00000000100010002002200640069111434D8
:100CD000B91CBA14BA14DB14BB0CDA14BA149B1482
:100CE000BB1CBB14BA0CBB149B149B1CB924480935
:100CF00020000000210800000000000000000000AB
:100D000000000000000000000000000000000000E3
:100D100000000000000000000000000000000000D3
:100D200000000000000000000000000000000000C3
:100D3000000000000000000041004300B01A5824E9
:100D4000BA14DC0CBB0CDB0CDB0CDB0CBB14BB14D3
:100D5000BC149B14BB0CDB0C78240C1247096300F9
:100D60002200000000000000000000000000000061
:100D70000000000000000000000000000000000073
:100D80000000000000000000000000000000000063
:100D900000000000420064004809CF227824BB1400
:100DA000BB14BB149A0C9A0CBB14BC14BC14BB141B
:100DB000BB149B14DB14782C722B630021000008F9
:100DC0000000000020000000000000000000000003
:100DD0000000000000000000000000000000000013
:100DE0000000000000000000000000000000000003
:100DF00000000000000001000100000000080000E9
:100E0000C600362C9A1CDB149A149A149B149B145B
:100E1000BB14DA0CBB0CBB0CBB149A14992C6E12CD
:100E200064004100000020000000000000000000FD
:100E300000000000000000000000000000000000B2
:100E400000000000000000000000000000000000A2
:100E50000000000020002000000000000000010051
:100E600001002200C6004E12782C9A14BB14BA0C52
:100E7000DB0CDC149B14BB14BB14BB14BB0CDC1CC0
:100E80009A1CF523640000000100200020002000CF
:100E90000000000000000000000000000000000052
:100EA0000000000000000000000000000000000042
:100EB0000000000000000000000000000000010031
:100EC000010800080000E600782CBA1C7A0CBB0C64
:100ED000DB14DB1C9B1C9C14BB14BA14BB14BA1C83
:100EE000972C92234400010000080000000000003D
:100EF00000000000000000000000000000000000F2
:100F000000000000000000000000000000000000E1
:100F100000000000000000000000000000000000D1
:100F20000000000000080000000000000008210090
:100F3000640032235824BA1C9A0CBB0CBB14BB0CA3
:100F4000BB0CBB0CDA149B149B149A14573484000A
:100F5000010001000000200020000000000000004F
:100F60000000000000000000000000000000000081
:100F70000000000000000000000000000000000071
:100F80000000000000000008000801004400B82C28
:100F90009A0CDC1CBB14BA0CFB14DC0CBC0CDB0C78
:100FA000BB149A1C9924111B630020002000000030
:100FB00021080000000020000000000000000000E8
:100FC0000000000000000000000000000000000021
:100FD0000000000000000000000000000000000011
:100FE00000000000000000000000000000004000C1
:100FF0002000000000002000000821006500F62B02
:101000005924BB1CBB0CDA0CDA0CDA0CBA147A1CAF
:10101000BC1CBB0CBA1C773C230021000000000064
:1010200020000000000000000000000000000000A0
:1010300000000000000000000000000000000000B0
:101040000000000000000000000000000008000098
:10105000210084003724DB14BA0CDC1C9B14BB1465
:10106000BA0CDB0CDC0CBC14BA1C972C89114300A5
:10107000000001000000000000000000000000006F
:101080000000000000000000000000000000000060
:101090000000000000000000000000000000000050
:1010A0000000000000000000000000000000000040
:1010B00000000000000020000000000020000000F0
:1010C0000000000000002100080937349A24DB0CDE
:1010D000BB0CDB149B149B14BB14BA149A14BA1CDB
:1010E000D5234300000000000000000020000000A5
:1010F00000000000000000000000000000000000F0
:1011000000000000000000000000000000000000DF
:101110000000000000002100C50098249A0CBB14B8
:10112000BA149B0CBB149B14BB149A149B14991CEB
:101130008F1A83002100010000000100010000005F
:10114000000000000000000000000000000000009F
:10115000000000000000000000000000000000008F
:10116000000000000000000000000000000000007F
:10117000000000000000000000000000000000006F
:10118000000000000000010001000000000020003D
:1011900020004200AF229A1C9C14DC14DC0CDC0CF6
:1011A000DA14BA14BA0CDA0C9A14F52B64000000A5
:1011B000000000002000000000000000000000000F
:1011C000000000000000000000000000000000001F
:1011D0000000000000000000000021002100C60007
:1011E000B834BA14DB14BA14BB1CBB0CBB0CBB1454
:1011F000BB14BA14782C4C224100200000000000DF
:1012000000000000000000000100000000000000DD
:1012100000000000000000000000000000000000CE
:1012200000000000000000000000000000000000BE
:1012300000000000000000000000000000000000AE
:10124000000000000000000000000000000001009D
:101250000000000000000000000020004300102BF0
:101260001834BA149B0C9B0CBB0CDB0CDB0CBA0CBB
:10127000DB149B1478348400000021000100210855
:10128000000000000000000000000000000000005E
:10129000000000000000000000000000000000004E
:1012A000000000004400983CBA1CBB149A14BB1404
:1012B0007A04FB14DB14BB149A14983485002100C3
:1012C00000000000210000000000000000000000FD
:1012D000000000000000000000000000000000000E
:1012E00000000000000000000000000000000000FE
:1012F00000000000000000000000000000000000EE
:1013000000000000000000000000000000000000DD
:10131000000000000000000000002000200000008D
:1013200000002000200040008500562C991CBA14B3
:10133000DB14BC147C14BC14DB14DB14BA1C773C27
:101340006400000000082100000000000000000010
:10135000000000000000000000000000000000008D
:101360000000000000000000200041009323BA1C90
:10137000DB14BA0CBB14BB14DB149A0CBA149A1C01
:10138000F523A500000000000000000000000000A0
:10139000000000000000000000000000000000004D
:1013A000000000000000000000000000000000003D
:1013B000000000000000000000000000000000002D
:1013C000000000000000000000000000000000001D
:1013D000000000000000000000000000000000000D
:1013E00000000000000000000000000000000000FD
:1013F0000100C5005734BA14DB14BB14DC14BC0C58
:10140000BB14BA14BA1C9A1CD52B43000000000070
:1014100000002000000000000000000000000000AC
:1014200000000000000000000000010000000000BB
:1014300021000C1299249B0CDB14DB14DC0CBB1474
:10144000BA14FC14991CD01A850021000008000071
:10145000000000000000000000000000000000008C
:10146000000000000000000000000000000000007C
:10147000000000000000000000000000000000006C
:10148000000000000000000000000000000000005C
:10149000000000000000000000000000000000004C
:1014A000000000000000000000000000000000003C
:1014B0000000000000000000000001008500D012C4
:1014C0009A1CDB0CDB0CBB0CBB14BB149B14BB14B5
:1014D0009A1CCC094200000000000000000000003F
:1014E00000000000000000000000000000000000FC
:1014F00000000008210020008A09BA2CBA1C9B0CAD
:10150000DC149A14BB0CBB149A14FC1CF533430076
:1015100001000000000800000000000000000000C2
:1015200000000000000000000000000000000000BB
:1015300000000000000000000000000000000000AB
:10154000000000000000000000000000000000009B
:10155000000000000000000000000000000000008B
:10156000000000000000000000000000000000007B
:10157000000000000000000000000000000000006B
:101580000100000000006300162CBA14BB14BB1449
:10159000BB14BB0CDB14BB14BB147924080900007A
:1015A000000000000000000000000000000000003B
:1015B00000000000000000000000000820006300A0
:1015C000162CFC14DC0C9B14BB149B0CBC14BA141E
:1015D0009A1C983483000000000000000000000006
:1015E00000000000000000000000000000000000FB
:1015F00000000000000000000000000000000000EB
:1016000000000000000000000000000000000000DA
:1016100000000000000000000000000000000000CA
:1016200000000000000000000000000000000000BA
:1016300000000000000000000000000000000000AA
:10164000000000000000000000000000000000009A
:10165000A40077349A14BB14BC0CBB14BB14BA0C92
:10166000BB149B14B93463000000000000000000AC
:10167000000000000000000000000000000000006A
:10168000000000006200AF1A9924BA0CBB149B142E
:10169000BB14BC14BB14BA1CF5336400200000005A
:1016A000000000000000000000000000000000003A
:1016B000000000000000000000000000000000002A
:1016C000000000000000000000000000000000001A
:1016D000000000000000000000000000000000000A
:1016E00000000000000000000000000000000000FA
:1016F00000000000000000000000000000000000EA
:1017000000000000000000000000000000000000D9
:1017100000000000010000002000C5007734BB1469
:10172000BB0CBB14BA14DA14BA14BB149B1C73237D
:101730002200000000000000000000000000000087
:10174000000000000000000000002100A911992401
:10175000BA14BA149B1CBB14BB0CBB0CBA14B9242E
:1017600044000000200020000000000000000000F5
:101770000000000000000000000000000000000069
:101780000000000000000000000000000000000059
:101790000000000000000000000000000000000049
:1017A0000000000000000000000000000000000039
:1017B0000000000000000000000000000000000029
:1017C0000000000000000000000000000000000019
:1017D00000000000000000000000000000002100E8
:1017E00021000100640037249B14BB0CDB14BA14E5
:1017F000BA14BB14BB14991C280920000000000077
:1018000000000000000000000000000000000100D7
:1018100000006200D5239A14BB14BC0CBB14BB148B
:10182000BB0CBA14DA244D1A22000000000000009C
:1018300000000000000000000000000001000000A7
:101840000000000000000000000000000000000098
:101850000000000000000000000000000000000088
:101860000000000000000000000000000000000078
:101870000000000000000000000000000000000068
:101880000000000000000000000000000000000058
:101890000000000000000000000000000000000048
:1018A0000000000000000000000001002100EF2AFD
:1018B000BA249B0CDB14DB0CBA0CBB14BB0CBA14A3
:1018C00098342200000041000000000000000000E9
:1018D00000000000000001004200B2339A1CBB0C63
:1018E000BB0CBC0CDC0CBB14BB14BA1C0D0A4200B4
:1018F00001000100000000000000000000000000E6
:1019000000000000010000000000000000000000D6
:1019100000000000000000000000000000000000C7
:1019200000000000000000000000000000000000B7
:1019300000000000000000000000000000000000A7
:101940000000000000000000000000000000000097
:101950000000000000000000000000000000000087
:101960000000000000000000000000000000000077
:101970000000000000002100D022BB1CBB14BB14DF
:10198000DB0CBB0CBA14BA149A1C513B210020008A
:101990000000000000080000000001000008000036
:1019A00007099924BB14DB0CBA14BB0CDA14BB1462
:1019B000BB14782CC50800080000200000000000BF
:1019C0000000000000000000000000000000000017
:1019D0000000000000000000000000000000000007
:1019E00000000000000000000000000000000000F7
:1019F00000000000000000000000000000000000E7
:101A000000000000000000000000000000000000D6
:101A100000000000000000000000000000000000C6
:101A200000000000000000000000000000000000B6
:101A300000000000000000000000000000000000A6
:101A4000430098349A14BB14BB14BB14BA14BB0CD7
:101A5000BC143624A40000000100010000000000B6
:101A60000000000000082100B01ABB149B0CBB0C46
:101A7000BA14BA14BA14BA14991CEF2A210000003F
:101A80000000000000000000000000000000000056
:101A90000000000000000000000000000000000046
:101AA0000000000000000000000000000000000036
:101AB0000000000000000000000000000000000026
:101AC0000000000000000000000000000000000016
:101AD0000000000000000000000000000000000006
:101AE00000000000000000000000000000000000F6
:101AF00000000000000000000000000000000000E6
:101B00000000000000002000410068119924BB146F
:101B10009A14DB14BB0CBC14BB14BA140B122100B6
:101B20000000010000000000000000000000C600EE
:101B3000591CBB14BB14BA14BB149B14DC149A14A8
:101B400072232100000001000000000000000000DE
:101B50000000000000000000000000000000000085
:101B60000000000000000000000000000000000075
:101B700000002000000000000100200000004100E3
:101B80000000000000000000000000000000000055
:101B90000000000000000000000000000000200025
:101BA0000000200000000000000000000000000015
:101BB0000000000000000000000000000000000025
:101BC00000000000000000000000000000002100F4
:101BD00000004100D52B9A1CDC14DB0CBB0C9B1CB9
:101BE000BB14DB1C5824840000000000010000002E
:101BF000010000002100AF1ABA1CBB0CBB0CBB14C7
