:020000040800F2
:1000000000000120FD020008692800086B28000894
:100010006D2800086F280008712800080000000003
:10002000000000000000000000000000732800082D
:1000300075280008000000007728000879280008CB
:100040004503000845030008450300084503000870
:1000500045030008450300087B2800084503000805
:1000600093280008450300084503000845030008DD
:100070004503000845030008450300084503000840
:100080004503000845030008450300080000000080
:100090000000000000000000000000004503000810
:1000A0004503000845030008450300084503000810
:1000B000450300086D290008C12900084503000810
:1000C00045030008450300084503000845030008F0
:1000D00045030008FD290008450300080000000052
:1000E000AD28000845030008450300080000000093
:1000F00000000000000000000000000045030008B0
:1001000000000000450300084503000845030008FF
:1001100000000000000000000000000000000000DF
:10012000450300084503000845030008450300088F
:10013000450300080000000000000000000000006F
:10014000000000000000000000000000450300085F
:10015000450300084503000845030008450300085F
:1001600045030008450300080000000000000000EF
:10017000000000000000000000000000000000007F
:10018000000000004503000800000000000000001F
:04019000450300081B
:1001940010B5054C237833B9044B13B10448AFF3BD
:1001A40000800123237010BD6C04002000000000B7
:1001B4006037000808B5034B1BB103490348AFF38C
:1001C400008008BD000000007004002060370008B3
:1001D40070B50D4E0D4D761BB61006D0002455F8A3
:1001E400043B01349847A642F9D1094E094D761BC8
:1001F40003F0B4FAB61006D0002455F8043B0134D9
:100204009847A642F9D170BD58A5010858A5010820
:1002140060A5010858A50108024B13B1024800F07B
:1002240005B87047000000003D02000800230146A5
:100234001A46184600F01AB838B5084B084D5B1B2F
:100244009C1007D0043B1D44013C55F804399847E1
:10025400002CF9D1BDE8384003F086BA64A5010842
:1002640060A50108704700BF704700BF2DE9F04743
:10027400DFF880A00646DAF8000098460F4691465B
:10028400FFF7F0FF1A4B1B68D3F8484124B36568A5
:100294001F2D26DC5EB96B1C0235DAF800006360A2
:1002A40044F82570FFF7E0FF0020BDE8F08704EB79
:1002B40085010123C1F88890D4F88821AB401A4302
:1002C400022EC4F88821C1F80881E4D1D4F88C2125
:1002D4001343C4F88C31DEE703F5A674C3F8484130
:1002E400D5E7DAF80000FFF7BFFF4FF0FF30DCE797
:1002F4007837000828040020002103E00B4B5B58EA
:10030400435004310A480B4B42189A42F6D30A4A26
:1003140002E0002342F8043B084B9A42F9D302F06E
:1003240003FAFFF755FF02F099FA704764A5010834
:10033400000000206C0400206C040020AC040020A9
:10034400FEE730B58BB001214FF4807001F04CFE14
:100354000024069408944FF44033079306A801F050
:1003640059FC00948DF804408DF8054002940494DF
:1003740001258DF81450039404F1804404F590345D
:100384006946204601F01CFC2946204601F058FC31
:100394000BB030BD10B50146094C0723012220469D
:1003A40001F059FC204601F0A2FC0221044801F0AE
:1003B400A6FC0028F9D0024801F09EFC10BD00BF45
:1003C400002001402DE9F04186B00121022001F016
:1003D400EFFD01214FF4804001F006FE0D210120C4
:1003E40001F09AFF0223049303268DF8146000257C
:1003F4008DF8175001248DF81540DFF85C8004A9AE
:10040400404601F0DBFC8DF814508DF816508DF841
:1004140017404FF4005704978DF8155004A940462F
:1004240001F0CCFC01978DF80A408DF80850102398
:100434008DF8093001A801F069FC8DF80F402823DC
:100444008DF80C308DF80D608DF80E4003A801F086
:1004540075FB06B0BDE8F0810004024038B5002405
:10046400254606E00920FFF795FF0544ADB20134A7
:10047400E4B2102CF6D107EE905AF8EE677A9FEDAD
:10048400077A67EE877A9FED067A87EE870ADFEDB3
:10049400057A20EE270A30EE000A38BD0000803DC0
:1004A40000F07F4500604C4530B587B00121084617
:1004B40001F07EFD01214FF4804001F095FD0C21F7
:1004C400002001F029FF00248DF814408DF8164017
:1004D4004FF4805504958DF817408DF8154004A904
:1004E4000E4801F06BFC019501258DF80A508DF83A
:1004F400084010238DF8093001A801F007FC2823D7
:100504008DF80C308DF80F5003238DF80D308DF8D5
:100514000E4003A801F012FB07B030BD00000240FA
:1005240070B586B00121082001F042FD01214FF48D
:10053400804001F059FD0221032001F0EDFE002569
:100544008DF814508DF816500426049601248DF865
:10055400174002238DF8153004A90F4801F02EFC32
:1005640001968DF80A408DF808500C238DF8093057
:100574000DEB060001F0CAFB08238DF80C308DF852
:100584000F408DF80D508DF80E4003A801F0D6FAF7
:1005940000F02EFF06B070BD000C0240F0B585B02F
:1005A40000F04AFF2A2001F007F800F08DFF032035
:1005B40001F002F800F088FF00F03EFF2B2000F06D
:1005C400FBFF00F081FF012001F02EF805468DF8B5
:1005D4000400012001F028F806468DF805000120EA
:1005E40001F022F804468DF80600012001F01CF801
:1005F40007468DF8070000F043FF2D0205F47065EF
:100604003543240204F470643C43EF2D07D8B4F559
:100614008C7F04D2ADF80850ADF80A4005E04FF6DF
:10062400FF73ADF80830ADF80A30029B0393002045
:10063400BDF80C3063F30F00BDF80E3063F31F40B8
:1006440005B0F0BD08B5FFF7A9FF3F4B1880C0F314
:100654000F4058803D4B1B789BB93B4A1188A1F150
:10066400460292B2642A10D882B2952A0DD9FA2988
:100674000BD8374A13700120344B187000F0FEFA7F
:1006840003E0012B09D0022B32D0304B187801F053
:10069400C5F9642000F0C0F808BD2B4A1188A1F107
:1006A4000A0292B2642A05D8274A5288952A01D9A7
:1006B400FA2915D9244B1A88A2F182039BB2642B20
:1006C400E3D8214B5B88952BDFD9FA2ADDD81F4B61
:1006D40019781F4A11700020187000F0CFFAD4E77F
:1006E4001B4A13700220194B187000F0C7FAE1E797
:1006F400154A1188A1F10A0292B2642A05D8124A55
:100704005288952A01D9FA2915D90F4B1A88A2F1D2
:1007140082039BB2642BB8D80B4B5B88952BB4D95E
:10072400FA2AB2D8094B1978094A117000201870B6
:1007340000F0A4FAA9E7064A13700120034B1870CD
:1007440000F09CFAE1E700BF9C040020960400201E
:100754009504002008B56FF0040001F021FA084B5D
:10076400D3ED007AF8EE677ADFED066A87EEA67AB3
:10077400054B83ED007A054B42F604121A8008BD3E
:10078400680400200024F44A8C0400208A04002019
:1007940007EE900AF8EE677A0F4B93ED007A67EE56
:1007A400877AFCEEE77A4FF0E023C3ED057A002266
:1007B4009A611A6942F001021A614FF0E0231B6941
:1007C40003F00113012BF8D04FF0E022136923F05A
:1007D40001031361704700BF8C0400200D4B1B887C
:1007E40003FB00F04FF0E023586100229A611A697C
:1007F40042F001021A614FF0E0231B6903F0011378
:10080400012BF8D04FF0E022136923F001031361A8
:10081400704700BF8A04002038B5840AC0F3090574
:1008240005E04FF48060FFF7D9FF013CE4B2002CEF
:10083400F7D105B938BD2846FFF7D0FFFAE708B568
:1008440000F044FB002000F08FFB08BD38B52DED0F
:10085400088B0AEE100A09EE901A08EE902A09EEA7
:10086400103ABDF830300AEE903ABDF83450F8EE44
:10087400688A33E0B8EEEA8ADFED1D7A88EEA7BA1B
:10088400DFED1C7A2BEE27BAB0EE4B0A02F0FEF82D
:1008940028EE000AF8EECA7A77EE807AF6EE00BA0D
:1008A40077EEAB7AFCEEE77A17EE903A9CB2B0EEB4
:1008B4004B0A02F023F928EE008AF8EEE97A77EE83
:1008C400887A77EEAB7AFCEEE77A2A4617EE903A0E
:1008D40099B2204600F055FB78EEAB8AF8EEC97A5F
:1008E400F4EEE87AF1EE10FAC4DABDEC088B38BD08
:1008F40000003443DA0F49402DE9F04F85B0BDF8CC
:10090400384001948046A2EB000A8946A3EB010B10
:10091400BAF1000F0DDD01220292BBF1000F14DDCC
:1009240001230393DA451CDD564600252F462C4649
:100934001BE0BAF1000F05D0A0EB020A4FF0FF3222
:100944000292EAE7CDF808A0E7E7BBF1000F05D073
:10095400A1EB030B4FF0FF330393E3E7CDF80CB0A7
:10096400E0E75E46E1E70134A4B2731C9C4213DC69
:10097400019A1FFA89F11FFA88F000F002FB57442C
:100984005D44BE4202DABF1B029B9844AE42EADADF
:10099400AD1B039B9944E6E705B0BDE8F08F2DE954
:1009A400F04F85B083460C4692469846BDF83850C1
:1009B400BDF83C6000EB05091FFA89F9571BBFB26B
:1009C40000960B463A464846FFF796FF2C44A4B2DD
:1009D400CDF80C80A8EB05081FFA88F8009643466A
:1009E4005A4621465846FFF787FF0096434652462B
:1009F40021465046FFF780FF0096039B3A4619466E
:100A04004846FFF779FF019600954FF48773B422A7
:100A140021464846FFF71AFF01960095B4235A224F
:100A240041464846FFF712FF019600954FF4B47310
:100A34004FF4877221463846FFF708FF0196009568
:100A44005A23002241463846FFF700FF05B0BDE8AF
:100A5400F08F2DE9F04184B005460E46144601237B
:100A64000293102301932523009300234FF4FC6287
:100A74000721AA2000F090FA2F19BFB206EB540305
:100A84004FF6FF78CDF80480002200929BB23A46DC
:100A940031462846FFF783FF07EE906AF8EEE76ACF
:100AA40007EE904AB8EEE77AB4EE005A27EE056AEC
:100AB40076EE865A2B1907EE103AB8EEC77A37EE5F
:100AC400067A04EB440307EE903AF8EEE77A67EE11
:100AD400857A76EEA76AFCEEE66ABCEEC77AFCEE8F
:100AE400E57ACDF8008016EE903A9BB217EE102A04
:100AF40092B217EE901A89B2384600F00EFA04B09A
:100B0400BDE8F081F8B517461E46069D821892B2DC
:100B1400CB189BB2013B013A9BB292B200F0DEF9D2
:100B2400002409E0610015F8140001316B5C40EA0F
:100B3400032000F085FE013406FB07F1A142F1DC3D
:100B4400F8BD00002DE9F04387B006AC04E90C00C1
:100B540084B28DB205F15807BFB204F1200000261B
:100B640003964FF02009CDF808904FF00208CDF815
:100B7400048000964FF6FF739DF81120394680B229
:100B840000F068FB04F140000296CDF804902F2396
:100B9400009333464FF6FF72394680B200F0FCF9F9
:100BA40004F150000396CDF80890CDF80480009627
:100BB4004FF6FF739DF81220394680B200F04AFBCD
:100BC4009DF81020013A02EB420204F180000296E3
:100BD400CDF8049000964FF6FF73274901EB4202CB
:100BE400394680B200F0F8FA7835ADB204F123004A
:100BF40003963C230293CDF8048000964FF6FF73CE
:100C04009DF81420294680B200F024FB9DF816308C
:100C140013F0010F21D104F15F00334602963C2208
:100C240001923A2200924FF6FF72294680B200F0F8
:100C3400B3F904F17D00002303933C2202920222C3
:100C4400019200934FF6FF739DF81520294680B258
:100C540000F000FB07B0BDE8F08304F15F0000235F
:100C640002933C220192202200924FF6FF72294601
:100C740080B200F091F9DCE72C04002000B583B0C9
:100C8400F8B1012830D002282BD12E4B1B78002B31
:100C94004ED10093FA23AA229621462000F03DF972
:100CA400294B009364231A4696218220FFF72AFFDA
:100CB400264B009364231A4696210A20FFF722FF4D
:100CC4000FE000230093FA23E62296210A2000F085
:100CD40024F91E4B009364231A4696214620FFF7FD
:100CE40011FF03B05DF804FB164B1B78BBB90093EE
:100CF400FA23AA229621462000F00FF9124B009302
:100D040064231A4696218220FFF7FCFE104B0093C1
:100D140064231A4696210A20FFF7F4FEE1E7002334
:100D24000093FA236E2296210A2000F0F6F8EDE7EC
:100D340000230093FA236E2296210A2000F0EDF896
:100D4400B6E700BF9504002028B7000868530108DF
:100D54004805010810B52DED028B84B0FFF77EFB2A
:100D6400DFED2D7A30EE670AB5EEC00AF1EE10FA27
:100D74004BD4F1EE0C7AC0EE278AF6EE007A78EEC8
:100D8400A78A9FED268A28EE888AF3EE047AF4EE89
:100D9400E78AF1EE10FA3BD54FF47843DFED207A81
:100DA40078EE277AFCEEE77A0093132317EE902A65
:100DB40092B20621BF2000F0B0F8DFED1A7A38EEC7
:100DC400278AF7EE007A38EE278ABCEEC88A002418
:100DD40000941323DB22062118EE100A80B200F0DF
:100DE4009CF80394102302930223019300944FF47C
:100DF400FC63FCEEE87A17EE902A07219A2000F0B3
:100E040029FA04B0BDEC028B10BD9FED070AB0E7D0
:100E14004FF4FC63C2E700BF00C05A459A99993E5B
:100E240000003F4300003E430000000030B58BB09B
:100E34000121084601F0CAF80121084601F0B8F87A
:100E4400214D01220221284601F017F804230893BA
:100E540002238DF8243000248DF825408DF8264097
:100E64008DF8274008A9284600F0A8FFADF81C40DB
:100E7400ADF816405323ADF814306323069305A947
:100E84004FF0804001F064FA6023ADF80030012592
:100E9400ADF80250ADF80C406423029369464FF05C
:100EA400804001F0AFFA08214FF0804001F0F4FADD
:100EB40029464FF0804001F089FA29464FF08040DE
:100EC40001F092FA0BB030BD0000024008B500F00A
:100ED400AFFCFFF7ABFFFFF723FB08BDF8B50746F0
:100EE4000D4616461C462A2000F06EFC384600F0DB
:100EF400A7FC304600F0A4FC2B2000F065FC05F1B3
:100F0400140080B200F09CFC04F1140080B200F0E4
:100F140097FC2C2000F058FCF8BD2DE9F0418046E8
:100F24000C4617461D46BDF81860824201D3074699
:100F34009046A54202D32B4625461C4623464246EC
:100F440029463846FFF7CAFFA8EB0702651B01359F
:100F540002FB0555002403E0304600F071FC013427
:100F6400AC42F9D1BDE8F08100B583B0009040F205
:100F74001713EF2200210846FFF7CFFF03B05DF8F7
:100F840004FB10B50B4614460246FFF7A7FF2046A4
:100F940000F056FC10BD00002DE9F04F85B0039021
:100FA400009191469B469DF83CA09DF840404FEA35
:100FB4005A0700EB5A0292B20B4653449BB2013BD0
:100FC400013A9BB292B2FFF789FF9DF83830203B7B
:100FD400DBB202930AFB0AF3C3F30713534538BF8A
:100FE40053460193002C74D14FF00008FF25464668
:100FF400B3E0029B03EB4303734A02EB830313F84E
:101004000850002600241DE0704B029A03EB0213E3
:1010140013F808500026F5E76D4B029A03EB821390
:1010240013F8085008F101081FFA88F813F808307B
:1010340045EA03250026E5E76D0845EAC675760806
:101044000134A4B2A7420CD015F0010FF4D008EB80
:101054000B0104EB0900009A89B280B2FFF791FFFB
:10106400EAE708F101081FFA88F8BDF8043043459F
:1010740000F0A680BAF10C0FBBD0BAF1100FC3D0A8
:10108400BAF1200FC8D0BAF13C0FBBD1514A029833
:10109400C0EB001302EB031313F8085008F101012D
:1010A40089B2595C45EA012508F1020189B25B5C09
:1010B40045EA034508F103081FFA88F8C0EB00135A
:1010C40002EB031212F8086045EA066546F3C016FF
:1010D40098E74FF0000845464646DDF800B0CDF8E5
:1010E4000090DDF80C90C0E7029B03EB4303364A03
:1010F40002EB830313F808500026002420E0334B4E
:10110400029A03EB021313F808500026F5E7304B5C
:10111400029A03EB821313F8085008F101081FFA2E
:1011240088F813F8083045EA03250026E5E7584611
:1011340000F086FB6D0845EAC67576080134A4B252
:10114400A74206D015F0010FF1D0484600F078FB15
:10115400F0E708F101081FFA88F8BDF804304345A8
:101164002ED9BAF10C0FBFD0BAF1100FC7D0BAF113
:10117400200FCCD0BAF13C0FBFD1164A0298C0EB75
:10118400001302EB031313F8085008F1010189B2AC
:10119400595C45EA012508F1020189B25B5C45EA24
:1011A400034508F103081FFA88F8C0EB001302EBAB
:1011B400031212F8086045EA066546F3C0169CE778
:1011C40005B0BDE8F08F00BF7C370008F03B000895
:1011D400E0410008A05900082DE9F04784B0044616
:1011E4000D4616469846BDF830A09DF834709DF81B
:1011F400389012E0C7F58B72013295421CDCCDF8B1
:101204000890019700935346424629462046FFF72B
:10121400C3FE04EB5704A4B201363378A3F12000D3
:10122400C0B25E2808D8EF2CE4D9B5F58C7FE1D2A2
:101234003D44ADB20024E2E704B0BDE8F0870246C5
:10124400012002E002FB00F019464B1EDBB200292C
:10125400F8D170472DE9F04F87B08146049190464C
:101264000593BDF840B09DF844509DF848609DF842
:101274004CA000273C461FE0700800FB0490CDF80A
:1012840008A00196302300935B46059A049980B226
:10129400FFF782FE0EE0700800FB0490CDF808A072
:1012A40001963033DBB200935B46059A049980B211
:1012B400FFF772FE0134E4B2AC421AD2291BC9B260
:1012C4000139C9B20A20FFF7BAFFB8FBF0F00A4BA4
:1012D400A3FB0023DB0803EB8303A0EB4303DBB294
:1012E400002FD8D16A1E9442D5DA002BC4D001272E
:1012F400D1E707B0BDE8F08FCDCCCCCC00B583B03E
:101304000121042000F054FE0223009303238DF8EE
:10131400043000238DF8073001238DF80530694629
:10132400024800F04BFD03B05DF804FB00080240E6
:1013340008B50B20FFF72EF807EE900AF8EE677A4F
:10134400B0F5805F01D3DFED057A9FED057A87EE76
:10135400870ADFED047A20EE270A08BD9A3F1C466F
:1013640000F07F4500604C45F0B583B004460D465F
:1013740016461F4640238DF807309DF820308DF81F
:1013840004309DF824308DF805309DF828308DF810
:10139400063001A9012000F0A3FE8DF800708DF83D
:1013A40002608DF801508DF803406946012000F079
:1013B4000BFF03B0F0BD08B501214FF0805000F0E1
:1013C40005FE012000F074FD08BD10B582B004468E
:1013D40001A9002000F0D6FE6946002000F03EFF7F
:1013E4006B4603CB20606160204602B010BD000054
:1013F40010B582B00121022000F0DAFDC023009371
:1014040001238DF8043000228DF806208DF8053074
:101414008DF80730074C6946204600F0CFFC402188
:10142400204600F025FD8021204600F021FD02B079
:1014340010BD00BF0004024010B5104C236823F413
:1014440040432360236843F4804323608021204683
:1014540000F00EFD4021204600F00AFD0420FFF7B5
:1014640097F98021204600F005FD0420FFF790F94C
:101474004021204600F0FEFC10BD00BF00040240E5
:1014840010B5104C236823F440432360236843F4CD
:10149400804323604021204600F0ECFC802120465C
:1014A40000F0E8FC0420FFF773F94021204600F027
:1014B400DFFC8021204600F0DBFC0420FFF768F904
:1014C40010BD00BF0004024038B5164C236823F455
:1014D40040432360236823608021204600F0C8FC39
:1014E4000120FFF755F94021204600F0C1FC0120FE
:1014F400FFF74EF9002480210A4800F0B2FC0546AB
:1015040038B10134E4B2FA2CF5D9FFF7B9FF01255B
:1015140006E0402100F1804000F5013000F0AAFC13
:10152400284638BD0004024010B5104C4021204626
:1015340000F0A0FC236823F440432360236843F4B1
:10154400804323608021204600F094FC0220FFF7B2
:101554001FF94021204600F08BFC0220FFF718F908
:101564004021204600F086FC10BD00BF000402406C
:1015740010B5104C4021204600F07CFC236823F475
:1015840040432360236843F4804323608021204642
:1015940000F06EFC0220FFF7FBF84021204600F02B
:1015A40067FC0220FFF7F4F84021204600F062FCBB
:1015B40010BD00BF0004024070B50446194803681A
:1015C40023F440430360036843F4804303604021F1
:1015D40000F050FC002519E08021124800F04AFC7C
:1015E4006400E4B20220FFF7D3F80E4E40213046E7
:1015F40000F03EFC0220FFF7CBF84021304600F01B
:1016040039FC0220FFF7C4F80135EDB2072D07D8E5
:1016140014F0800FE0D08021024800F029FCDFE7BD
:1016240070BD00BF00040240F8B50746174B1A68A6
:1016340022F440421A601A681A600024254604E025
:101644000120FFF7A5F80135EDB2072D16D80F4E8E
:101654004021304600F00EFC0220FFF799F84021AB
:10166400304600F005FC6400E4B28021304600F00E
:10167400F8FB0028E4D00134E4B2E1E71FB9FFF736
:1016840077FF2046F8BDFFF74FFFFAE7000402405A
:10169400F0B589B00121084600F08AFC01214FF41D
:1016A400805000F0A1FC204E05221146304600F087
:1016B400E4FB05220721304600F0DFFBA02306935C
:1016C40002278DF81C7000248DF81E4003238DF82A
:1016D4001D3001258DF81F5006A9304600F06EFB21
:1016E4004FF44043ADF804304FF48273ADF8063044
:1016F400ADF80840ADF80A70ADF80C504FF4007323
:10170400ADF80E30ADF81040ADF812400723ADF837
:101714001430064C01A9204600F0C0FD294620469D
:1017240000F0E3FD09B0F0BD0000024000300140CC
:1017340010B504460221054800F0E7FD0028F9D061
:101744002146024800F0DFFD10BD00BF003001401B
:1017540010B582B00121032000F02AFC022300937B
:1017640001238DF8043000248DF8064003228DF8FF
:1017740005208DF807306946064800F01FFB4FF43A
:10178400007300938DF805406946034800F016FB8A
:1017940002B010BD000002400004024010B5094C24
:1017A4004FF40071204600F065FB7820FFF734F811
:1017B4004FF40071204600F05BFB7820FFF72CF813
:1017C40010BD00BF0004024010B5044602210348C6
:1017D40000F050FB2046FFF7ABFF10BD00000240B5
:1017E40010B504460221034800F042FB2046FFF7EF
:1017F4009FFF10BD0000024008B5FFF7CFFF212076
:10180400FFF7E2FF2620FFF7DFFF0420FFF7E8FFE2
:101814003A20FFF7D9FF5520FFF7E2FF1120FFF729
:10182400D3FF0520FEF7F8FF2920FFF7CDFF08BD01
:1018340008B5FFF72DFFFFF78BFFFFF7DDFF08BDAE
:1018440010B504460221054800F012FB200AFFF7F8
:101854006FFFE0B2FFF76CFF10BD00BF0000024055
:1018640070B586B00121084600F0A2FB01214FF4B7
:10187400804000F0B9FB0021084600F04DFD002532
:101884008DF814508DF816500124049402268DF816
:1018940017608DF8155004A9104800F08FFA0194D0
:1018A4008DF80A408DF808500C238DF8093001A8F2
:1018B40000F02CFA0A4A136823F00103136006238C
:1018C4008DF80C308DF80F4003238DF80D308DF812
:1018D4000E6003A800F032F906B070BD00000240AB
:1018E400003C014008B5012000F0FEFA012000F0A0
:1018F400E5FA00F0E9FA08BD30B585B0012104200D
:1019040000F064FB4AF20F43029340F2CF73ADF848
:1019140004300024ADF80640ADF80C400E4D01A98A
:10192400284600F015FD1E238DF8003002238DF8A3
:1019340001308DF8024001248DF80340684600F020
:10194400FDF822462146284600F0ADFD21462846F2
:1019540000F04AFD05B030BD0008004030B585B048
:101964000121022000F032FB40F61F5302937C2336
:10197400ADF804300024ADF80640ADF80C400C4D31
:1019840001A9284600F0E4FC1D238DF800308DF8F1
:1019940001408DF8024001248DF80340684600F0B0
:1019A400CDF82146284600F01FFD05B030BD00BF2C
:1019B4000004004008B50F2000F0A6F808BD08B5E3
:1019C400F02000F0A1F808BD10B582B08DED010A39
:1019D400002408E004F108036B4413F8040C00F03D
:1019E40093F80134E4B2042CF4D102B010BD08B56C
:1019F4002DED028BF0EE408AB0EE608AFFF7DAFF3D
:101A0400B0EE680AFFF7E0FFB0EE480AFFF7DCFF2C
:101A1400FFF7D5FFBDEC028B08BD000008B520B16F
:101A240001280BD002280FD008BD0022012109484B
:101A340000F039FD084B00221A60F5E70122114637
:101A4400044800F030FDEFE700220121014800F0D6
:101A54002AFDE9E7000400409804002070B588B02E
:101A64000121084600F0A4FA0121102000F0BCFA7C
:101A7400244E07220921304600F0FFF907220A21EB
:101A8400304600F0FAF94FF4C063069302238DF850
:101A94001C3000248DF81D408DF81E4001258DF862
:101AA4001F5006A9304600F089F94FF4E133029340
:101AB400ADF80C40ADF80E40ADF81040ADF8144050
:101AC4000C23ADF81230A6F5704602A9304600F09A
:101AD40007FD25238DF804308DF807508DF8055047
:101AE4008DF8064001A800F029F82946304600F098
:101AF4005DFD2A4640F22551304600F06DFD08B0E8
:101B040070BD00BF0000024010B5044680210548A6
:101B140000F07DFD0028F9D02146024800F054FD74
:101B240010BD00BF0010014040F0BF6040F4003021
:101B3400014BD860704700BF00ED00E0C378FBB1F3
:101B4400154BDB68DB43C3F30222C2F10401C9B2C3
:101B54000F23134142788A40D2B281780B40134359
:101B64001B01DBB202780D490A4482F80033037882
:101B740003F01F005B090122824041F823207047D3
:101B8400037803F01F015B0901228A4020330349D3
:101B940041F82320704700BF00ED00E000E100E0C1
:101BA400042806D04FF0E022136923F004031361E4
:101BB40070474FF0E022136943F004031361704748
:101BC40010B4426822F0407222F4807291F804C08A
:101BD4000B6843EA0C231343436083680C4A1A409E
:101BE4000B69CC6823438C68234391F805C043EA0E
:101BF4004C0313438360C36A23F470030A7D013AE0
:101C0400D2B243EA0253C3625DF8044B704700BF8B
:101C1400FDF7FFC010B408494B68084A1A4003682E
:101C24004468234384682343C068034313434B60DD
:101C34005DF8044B704700BF00230140E030FCFF17
:101C440021B1836843F0010383607047836823F004
:101C540001038360704710B509291DD9C468A1F137
:101C64000A0C0CEB4C0C4FF0070E0EFA0CFE24EA97
:101C74000E0403FA0CF32343C360062A1BD8436BF8
:101C8400013A02EB82021F24944023EA040301FA7E
:101C940002F21A43426310BD046901EB410E4FF096
:101CA400070C0CFA0EFC24EA0C0C03FA0EF34CEAB3
:101CB40003030361E1E70C2A0CD8036B073A02EB38
:101CC40082021F24944023EA040301FA02F21A4315
:101CD4000263E0E7C36A0D3A02EB82021F249440D8
:101CE40023EA040301FA02F21A43C262D3E78368C7
:101CF40043F0804383607047C06C80B270470368D0
:101D0400194201D001207047002070478379002BCD
:101D140036D010B4204B1A68016822EA01021A6016
:101D24005A68016822EA01025A60027902F180428B
:101D340002F59E3211680468214311609A680168B3
:101D440022EA01029A60DA68016822EA0102DA6092
:101D54004379102B0AD003F1804303F59E331A68AC
:101D640001680A431A605DF8044B70470A4B9A688D
:101D740001680A439A60DA6801680A43DA60F2E7A4
:101D8400037903F1804303F59E331A68016822EA5C
:101D940001021A60704700BF003C0140034B5B69BD
:101DA400034201D00120704700207047003C0140ED
:101DB400014B5861704700BF003C014000230F2BCA
:101DC4004ED830B516E0C2681FFA83FE4FEA4E04BF
:101DD4004FF0030E0EFA04FE22EA0E02C260C2683D
:101DE40091F807E00EFA0CFC42EA0C02C2600133DF
:101DF4000F2B34D801229A400C68A243F7D104680F
:101E04004FEA430C032202FA0CF26FEA020E24EAB0
:101E14000202026002680C7904FA0CF422430260A4
:101E24000A79013AD2B2012ACDD882680EEA0202B6
:101E3400826082684C7904FA0CF42243826044681C
:101E44009DB24FF0010E0EFA05FE24EA0E04446022
:101E540044688A79AA4092B222434260B3E730BD13
:101E640070470369194201D0012070470020704770
:101E74008161704709048161704700B501F007036F
:101E84009B0002FA03FCC908083150F821204FF0E6
:101E94000F0E0EFA03F322EA030340F8213050F840
:101EA400212042EA0C0240F821205DF804FB0000E6
:101EB400014B1862704700BF00000E42014BC3F88B
:101EC400A000704700000E42054A136843F0020365
:101ED4001360044A136943F00403136130BF70476D
:101EE4000070004000ED00E0024A136843EA8003FA
:101EF400136070470070004010B4294B9B6803F0D6
:101F04000C03042B23D0082B24D013B1254B0360DE
:101F140001E0244B0360224CA368C3F3031322495A
:101F2400CB5CDAB20368D3404360A268C2F3822276
:101F34008A5CD2B223FA02F28260A268C2F342320D
:101F44008A5CD2B2D340C3605DF8044B7047174B30
:101F54000360E0E7124B59685A6802F03F0211F43B
:101F6400800F12D0114BB3FBF2F30D4A5268C2F347
:101F7400881202FB03F30A4A5268C2F30142013297
:101F84005200B3FBF2F30360C5E7064BB3FBF2F375
:101F9400034A5268C2F3881202FB03F3EBE700BF63
:101FA400003802400024F4005804002000127A0093
:101FB40021B1054A136B184310637047024A136B2F
:101FC40023EA0000106370470038024021B1054A3B
:101FD400136C184310647047024A136C23EA000020
:101FE400106470470038024021B1054A536C18430D
:101FF40050647047024A536C23EA000050647047EF
:1020040000380240002303E00133DBB20A38C0B2D7
:102014000928F9D81B01DBB218437047030903EB05
:10202400830300F00F0000EB4300C0B270470000D0
:1020340082B000230193114BDB6813F0400F17D1DA
:102044000E4B4FF0FF32DA600C4BDA6802F04002BC
:10205400019B01330193019BB3F5803F01D0002A1A
:10206400F2D0064BDB6813F0400F04D0012000E0EF
:10207400012002B070470020FBE700BF00280040A9
:10208400024AD36823F08003D360704700280040DD
:1020940082B000230193114BCA225A6253225A621E
:1020A400DA6822F0A002DA600C4BDA6802F020024F
:1020B400019B01330193019BB3F5003F01D0002A3A
:1020C400F2D0064BDB6813F0200F05D00120034B40
:1020D400FF225A6202B070470020F8E7002800404F
:1020E40038B50D460346E8B9254A926812F0400F08
:1020F40001D10022CA70EBB12B786C78240244EA37
:102104000344A8780443E87844EA00441C4BCA22F8
:102114005A6253225A62FFF78BFFE0B9184BFF2231
:102124005A6238BD164A926812F0400FE3D1002279
:10213400CA70E0E72878FFF765FF04046878FFF7C2
:1021440061FF44EA0024A878FFF75CFF0443E878C1
:1021540044EA0044DAE704F07F3424F0FE44084DF6
:102164002C60FFF78DFFAB6813F0200F01D0012026
:10217400D4E7FFF78DFF0028D0D00120CEE700BFC1
:102184000028004070B50C460E4B1D68C5F306428E
:10219400C5F305412170C5F30626667005F07F0579
:1021A400A57002F04003E37058B90846FFF736FF04
:1021B40020703046FFF732FF60702846FFF72EFF8D
:1021C400A07070BD0028004038B50D46024638B9ED
:1021D4004B7813F0100F03D003F0EF030A334B7066
:1021E400AAB1EB786C78240244EA0344A878044347
:1021F400287844EA4034184BCA225A6253225A625D
:10220400FFF716FFA0B9144BFF225A6238BDE878D5
:10221400FFF7F8FE04046878FFF7F4FE44EA0024AC
:10222400A878FFF7EFFE0443287844EA4034E2E755
:1022340024F07F4424F0C004074D6C60FFF720FFB6
:10224400AB6813F0200F01D00120DCE7FFF720FF7B
:102254000028D8D00120D6E70028004070B50E4BE6
:102264005B68C3F30742CA70C3F304264E7003F0DD
:102274003F058D70C3F342330B7060B90C461046B2
:10228400FFF7CCFEE0703046FFF7C8FE60702846CA
:10229400FFF7C4FEA07070BD002800402DE9F04196
:1022A400038803F441520F88B1F802808E88CD88E8
:1022B4000C89B1F80AE0B1F80CC0CB8947EA0807E9
:1022C4003E4335432C434EEA040E4CEA0E0C43EADB
:1022D4000C0313430380838B9BB223F400639BB2F0
:1022E40083830B8A0382BDE8F08129B103889BB202
:1022F40043F040030380704703889BB223F04003FC
:102304009BB203807047818170470389194201D0D1
:10231400012070470020704710B401F003029200BE
:102324000F2404FA02FC8908084B023153F82140B7
:1023340024EA0C0443F8214053F82140904004431C
:1023440043F821405DF8044B704700BF003801405A
:1023540003889BB21B4A904212D002F580629042DD
:102364000ED0B0F1804F0BD0A2F58032904207D04E
:1023740002F58062904203D002F58062904203D15C
:1023840023F070034A8813430F4A904208D002F5A1
:102394008062904204D023F440739BB20A891343B1
:1023A40003804B68C3620B880385064B984203D0B5
:1023B40003F58063984201D18B7A038601238382DB
:1023C400704700BF000001400010004029B103889D
:1023D4009BB243F080030380704703889BB223F0D1
:1023E40080039BB20380704729B103889BB243F0FA
:1023F40001030380704703889BB223F001039BB25F
:102404000380704700B5038C9BB223F480739BB2A6
:102414000384038C9BB2B0F804E01FFA8EFEB0F87C
:102424001CC01FFA8CFC2CF0730C0A884CEA020CBA
:1024340023F400738A89120292B21A434B881B0256
:102444009BB21343134A904203D002F58062904238
:1024540017D123F40063CA89120292B2134323F4FE
:1024640080628B881B029BB213432EF4405E0A8A5F
:10247400120192B24EEA020E4A8A120192B242EA62
:102484000E0EA0F804E0A0F81CC08A68C26303849E
:102494005DF804FB00000140838B9BB223F008032A
:1024A4000B438383704722B183899BB21943818193
:1024B40070478389C94389B2194081817047028A70
:1024C40083890B40114202D01BB9002070470020C1
:1024D400704701207047C94389B2018270470000E8
:1024E40030B585B004460D46038A9BB223F44053AD
:1024F400CA881343038283899BB223F4B05323F025
:102504000C03898828896A8901430A431343A381F8
:10251400A38A9BB223F44073AA891343A382684617
:10252400FFF7EAFC1F4B9C4205D003F580639C42F5
:1025340001D0029B00E0039BA28912F4004F1FD13B
:1025440003EB830303EB83032A689200B3FBF2F3E8
:10255400154AA2FB031252091101642002FB103335
:10256400A28912F4004F14D11B0132330E4AA2FB8C
:102574000323C3F343130B439BB2238105B030BD44
:1025840003EB830303EB83032A685200B3FBF2F3E8
:10259400DEE7DB003233044AA2FB0323C3F3421316
:1025A4000B43E9E7001001401F85EB5129B18389F2
:1025B4009BB243F400538381704783899BB223F415
:1025C40000539BB283817047C1F308018180704737
:1025D4008088C0F308007047C1F3421C01F01F015A
:1025E400012303FA01F19C4508D0BCF1020F07D086
:1025F40014303AB103681943016070470C30F8E7AE
:102604001030F6E7036823EA01010160704703888C
:10261400194201D00120704700207047C1F34212D3
:1026240001F01F0C012303FA0CF3012A0FD0022A34
:1026340011D0828A92B21340090A012202FA01F1EE
:10264400028892B20A4053B15AB900207047828975
:1026540092B21340F0E7028A92B21340ECE70020F2
:10266400704701207047000082B00023019300935B
:10267400294A136843F480331360274B1B6803F41F
:1026840000330093019B01330193009B1BB9019B11
:10269400B3F5A04FF1D1204B1B6813F4003F06D0D3
:1026A40001230093009B012B04D002B07047002348
:1026B4000093F7E7184B1A6C42F080521A641749DA
:1026C4000A6842F440420A609A689A609A689A607A
:1026D4009A6842F480529A60114A5A601A6842F029
:1026E40080721A600C4B1B6813F0007FFAD00D4BFC
:1026F40040F202721A60A3F580639A6822F0030222
:102704009A609A6842F002029A60034B9B6803F055
:102714000C03082BF9D1C8E70038024000700040D0
:1027240008544107003C024010B5104CD4F88830DE
:1027340043F47003C4F888300D4B1A6842F0010268
:102744001A60002199601A6822F0847222F480329F
:102754001A60084A5A601A6822F480221A60D96002
:10276400FFF782FF4FF00063A36010BD00ED00E0AF
:10277400003802401030002400B583B04FF4A0604C
:10278400FFF7D2F9FDF7E6FFFEF715FEFFF766F94E
:10279400FFF7E4F8FDF7D5FDFFF762F8FDF784FED7
:1027A400FDF710FEFEF7AAFDFEF749F8FFF7A4F8BF
:1027B4001E220521BE20FEF74CF94FF400511F489C
:1027C400FFF74FFB20BB1E4B00930F23082207216A
:1027D400B520FEF797F94FF480511A48FFF741FBF3
:1027E400F8B1194B00930F231A460A210846FEF745
:1027F40089F9164B01221A70154B1878FEF73EFA28
:10280400144A136843F00103136003B05DF804FB3A
:10281400002300931923BD220721B520FEF77DFB79
:10282400D9E70D4B00930F231A460A210846FEF7F9
:1028340069F9064B00221A70DEE700BF000402406B
:1028440038B6000800000240B0B20008940400202A
:1028540096040020003C014074B4000808B5FFF75A
:102864008BFFFEE77047FEE7FEE7FEE7FEE77047F3
:1028740070477047704708B50120FFF78FFA18B901
:102884000120FFF795FA08BDFFF72CF8F8E708B523
:102894000420FFF783FA18B90420FFF789FA08BD6A
:1028A400FDF7D0FEF8E7000000B583B04FF4805088
:1028B400FFF774FA38B94FF40050FFF76FFA40BBD2
:1028C40003B05DF804FB4FF480512048FFF7C9FAC8
:1028D40078B11F4B00930F231A460A210846FEF7CE
:1028E40011F91C4B01221A704FF48050FFF760FA63
:1028F400E1E7194B00930F231A460A210846FEF715
:1029040001F90022134B1A7001211448FFF7CBFD83
:10291400EAE74FF400511248FFF7A3FA60B9114BEC
:1029240000930F2308220721B520FEF7EBF84FF49C
:102934000050FFF73DFAC3E7002300931923BD229B
:102944000721B520FEF7E9FAF1E700BF00000240D5
:10295400B0B200089404002074B4000800040040DD
:102964000004024038B6000810B501210F48FFF7F3
:10297400A6FD20B901210D48FFF7ADFD10BDFEF7FE
:10298400D7FC9FED0B7AC0EE070A0A4BC3ED000A91
:10299400094CD4ED007AB8EE670A80EE070AFFF717
:1029A40026F8236805332360E4E700BF00040040F1
:1029B40000007A44900400209804002010B582B0EE
:1029C40001210C48FFF77BFD28B901210948FFF7D5
:1029D40082FD02B010BD6C462046FEF7F6FCFEF701
:1029E400B9F994E80C006FF031010A20FEF7AAF857
:1029F400EBE700BF0008004000B585B040F2255168
:102A04001F48FFF70BFE10B905B05DF804FB1C4826
:102A1400FFF7DEFDC2B2742A02D01A4B1B783BB317
:102A2400184801784B1CDBB20370174842540A2B38
:102A3400EAD1037A0D2B02D1437A0A2B07D0FF2166
:102A44000F48FFF7C1FD0F4B00221A70DCE7C37972
:102A5400029383790193437900930379C27881784F
:102A64004078FEF781FCAA210548FFF7ADFDEAE7AF
:102A7400044B00221A70C1B20148FFF7A5FDC3E759
:102A840000100140AA040020A004002010EE103A17
:102A9400184A23F0004393421BDDB3F1FF4F02DBDE
:102AA40030EE400A704700B583B0684600F060F825
:102AB40000F003000128DDED010A9DED000A0CD0B1
:102AC400022812D070B1012000F040FD03B05DF87F
:102AD40004FBDFED090A00F07DB900F037FDB1EE2B
:102AE400400AF3E700F076F9F0E700F073F9B1EE8D
:102AF400400AEBE7D80F493F0000000010EE103AFF
:102B0400194A23F0004393421CDDB3F1FF4F02DB6B
:102B140030EE400A704700B583B0684600F028F8EC
:102B240000F003000128DDED010A9DED000A0ED03E
:102B3400022813D070B100F04DF9B1EE400A03B091
:102B44005DF804FBDFED090A002000F0FFBC00F093
:102B540041F9F4E7012000F0F9FCF0E7012000F06E
:102B6400F5FCB1EE400AEAE7D80F493F0000000047
:102B740070B510EE103A894A23F00044944286B0AE
:102B8400054670DD864A944210EE106A22DC002B62
:102B9400DFED847A844A24F00F04B0EE407A40F3E7
:102BA400E480944270EE677A09BFDFED806A9FED9E
:102BB400807A9FED807A77EEE67A012077EEC76A15
:102BC40077EEE67AC5ED006A77EEC77AC5ED017A4D
:102BD40006B070BD784A944254DDB4F1FF4F49DA2F
:102BE400E215863AA4EBC25307EE903ABDEEE77ABB
:102BF400DFED726AB8EEC77A77EEC77A8DED037AA5
:102C040067EEA67ABDEEE77AB8EEC77A77EEC77AB2
:102C14008DED047A67EEA67AF5EE407AF1EE10FABD
:102C2400CDED057A40F09080B5EE407AF1EE10FAE1
:102C340014BF02230123624901910221009103A8D8
:102C4400294600F049F9002EC2DA95ED007AD5ED57
:102C5400017AB1EE477AF1EE677A85ED007AC5ED37
:102C6400017A4042B4E7002285ED000A4260002068
:102C740006B070BD70EE407A0020C5ED017AC5ED56
:102C8400007AA5E700F0AAFC9FED4E7A9FED456A15
:102C9400F6EE007AE0EE077A9FED457AFDEEE77AEC
:102CA40017EE900AF8EEE76A1F28A6EEC60A66EE4B
:102CB400877AB1EE666A1EDC434A411E24F0FF03A4
:102CC40052F82120934216D030EE677A85ED007ACF
:102CD40030EE470A002E30EE670A85ED010ABFF692
:102CE40077AFB1EE477AB1EE400A85ED007A85ED13
:102CF400010A40426CE730EE677AE21517EE103AAB
:102D0400C3F3C753C3EBD454082CDFDDDFED277ABC
:102D14009FED287AF0EE405AE6EE275A30EE650A27
:102D2400A6EE270AF0EE407AD6EE877A35EEE77AF9
:102D340017EE103AC3F3C753D21A192A06DCB0EEC1
:102D4400650A85ED007AC3E7032374E79FED1F7AD4
:102D54009FED1F5AB0EE650AA6EE070A75EEC07A1B
:102D6400E6EE077AD6EE857AAEE7944270EE277ADD
:102D740009BFDFED0E6A9FED0E7A9FED0E7A77EEB6
:102D8400A67A4FF0FF3077EE876A77EEE67AC5EDE4
:102D9400006A77EE877AC5ED017A19E7D80F493FC3
:102DA400E3CB1640800FC93FD00FC93F00443537ED
:102DB4004344353708A3852E800F494300008043E0
:102DC40008A2010884F9223F88A1010800A3852EE6
:102DD40032318D2410EE103A23F00043B3F1485FF2
:102DE4002CDAFDEEC07A17EE903A002B60D020EE7C
:102DF400007ADFED317A9FED315ADFED315A9FEDE4
:102E0400316ADFED316AA7EE275ADFED307AE7EE5B
:102E1400055AA7EE256AE7EE067AE7EE276A67EE1B
:102E2400266A60EEC00AF6EE007AE7EE260AB7EEEE
:102E3400000AD7EE270A30EE600A704720EE007AC7
:102E4400DFED1D7A9FED1D5ADFED1D5A9FED1D6AC2
:102E5400DFED1D6A1E4AA7EE275A9342DFED1B7A67
:102E6400E5EE075AA5EE876AE6EE077AE7EE876A8B
:102E740066EE876AD5DD174A934214DC03F17F437B
:102E840007EE903AB7EE006A36EE676A60EEC00A63
:102E9400F6EE005AD7EE257AE7EE260A77EEE00A38
:102EA40036EE600A7047B6EE076AF5EE027AEDE791
:102EB400B7EE000A704700BF4ED747ADF6740F3126
:102EC4007CF293B4010DD037ABAA2A3D610BB6BA9C
:102ED4009999993E0000483F2DE9F04F2DED048B60
:102EE400DBB01C4603930691A24B6899089253F8F1
:102EF4002150111D824604F1FF38C0F2A382D31E73
:102F040048BF131DDB1002930133DB000793DDE997
:102F140007239B1A0593029B15EB0801A3EB0803F7
:102F240016D401319FED947A699819441EAA002B96
:102F3400A4BF50F8234007EE904A03F10103ACBF4D
:102F4400F8EEE77AF0EE477A8B42E2EC017AEED1C2
:102F5400002DC0F2E782039B1EAA02EB830446AE57
:102F64004FEA830C4046EF180AEB8301B8F1000FD7
:102F7400DFED817A09DB22465346F3EC016A32ED38
:102F8400017A8B42E6EE877AF7D10130B842E6EC5B
:102F9400017A04F10404E9D109AB0AAF03EB850912
:102FA40007EB8503083B9FED769ADFED748A05985D
:102FB40004930AEB0C0446AE00955AAB03EB85036D
:102FC400002D13ED140A4FEA850B16DD06EB85037D
:102FD4003A4660EE097AB0EE407AFDEEE77A73ED98
:102FE400016AF8EEE77AB342A7EEE87A37EEA60A6A
:102FF400BDEEC77AA2EC017AEBD1019000F03CFB64
:10300400B0EE408AB4EE000A28EE000A00F0EEFAB0
:10301400F2EE007AA0EE678A01980028FDEEC89AC5
:10302400F8EEE97A38EE678A79DD05F1FF3EC0F102
:10303400080357F82E1041FA03FC0CFA03F3CB1AD9
:10304400C0F1070219EE901A43FA02F26144002A11
:1030540047F82E3009EE901A69DCB5EE408AF1EE9D
:1030640010FA40F0C080009B05F1FF3B5B4510DC8B
:1030740005F18043013B07EB83030021944653F899
:1030840004294B4541EA0201F9D16246002940F086
:10309400F280009B013B57F82330002B40F0E7807F
:1030A400049B4FF0010C53F804290CF1010C002A85
:1030B400F9D06B1CAC449E46039A5119029A02EB58
:1030C400030B0BF1804B699A0BF1FF3B06EB830575
:1030D4001EAB02EB8B0B03EB8101DBED017A9FED61
:1030E400267AF8EEE77AB8F1000F0BF1040BC1ED84
:1030F400007A0A4601F1040109DB534601E072ED4E
:10310400017AF3EC016AA342A6EEA77AF7D10EF195
:10311400010EE645A5EC017ADFDD65464DE740F09A
:103124009C806B1E57F82320D211002A95DD19EEDE
:10313400903A002D03F1010309EE903A40F398818F
:10314400396800297FD1012D26D03B464FF0010C70
:1031540053F8041F00297AD00CF10103C1F58071E2
:103164009D4247F82C1016DD57F82310BB4407EB9B
:1031740083030AE04CA5010800000000000080431E
:103184000000803B0000C93F1968C1F1FF0143F80A
:10319400041B5B45F8D1012100280CDD012800F057
:1031A4004881022807D105F1FF3C57F82C3003F081
:1031B4003F0347F82C30022A7FF44FAFB7EE000AE2
:1031C40030EE488A00293FF448AF0992019000F09C
:1031D40053FA38EE408A099A0198B5EE408AF1EE26
:1031E40010FA3FF440AF0292DDE90732B0EE480A2C
:1031F400981A0195009D00F03FFA1FED207AB4EE75
:10320400C70AF1EE10FADDE90132C0F259815FED2F
:10321400247A059960EE277A0831FDEEE77A059164
:10322400F8EEE77A03F1010BA7EEC70AFDEEE77AA1
:10323400BDEEC00A10EE101A47F8231017EE903AAC
:1032440047F82B302EE001234FF0000C86E70CF1F9
:10325400010CAC457FF47CAF9EE7F6EE007AB4EE49
:10326400E78AF1EE10FA80F2F2800022F5E66B1C98
:103274009E469C4620E70599A1F1080057F82B10BB
:1032840005902B46009D69B903F18043023B07EB8F
:103294008303014653F804090BF1FF3B0839002866
:1032A400F8D0059105980092B7EE000A00F0E4F911
:1032B400BBF1000F009AC0F228814FEA8B0E46AB97
:1032C40003EB0E060EF1040C1FED537A07EB0C030F
:1032D400311D73ED017AF8EEE77ABB4267EE807A2E
:1032E40020EE070A61ED017AF3D1002D1FED5B6A30
:1032F4004FF0000420DB9348DFED937AB0EE467A7A
:103304003146002303E09C4208DBB0EC017AF1EC87
:10331400016A01339D42E6EE877AF4DA5AAB03EB95
:103324008403A34543ED287AA6F1040604F10103BE
:1033340005D0002D1C46DEDADFED837AEEE76899CE
:1033440002291CDC002900F395800FD132ABDFED9C
:103354007E7A9C443CED017A634577EE877AF9D115
:103364000AB1F1EE677A069BC3ED007A19EE903A42
:1033740003F007005BB0BDEC048BBDE8F08F689BE5
:10338400032BF3D1BBF1000F00F0D4800EF5B4731E
:103394006B4432A913ED287A01EB8B0373ED017AA8
:1033A400F0EE476A37EE277A994277EEC77A83EDD3
:1033B400007A77EEA67AC3ED017AEFD1BBF1010F63
:1033C40040F3B8800BF1804B0EF5B4730BF1FF3B67
:1033D4000DEB030E4FEA8B0B0BF104031EED287A61
:1033E4000B4433A873ED017AF0EE476A37EE277A7F
:1033F400984277EEC77A83ED007A77EEA67AC3ED2A
:10340400017AEFD10BF1080BDFED4F7A01EB0B03DF
:10341400083133ED017A994277EE877AF9D1002A9F
:1034240056D10699329A339B0A604B60C1ED027AF9
:103434009CE705F1FF3C57F82C3003F07F0347F875
:103444002C30B8E608230793002302935FE519EEB6
:10345400903A002D03F1010309EE903AC8BF02220D
:103464003FF76EAEF7EE007A37EEC88A0222F4E533
:10347400002191E632A9DFED347A01EB830333EDC9
:10348400017A994277EE877AF9D19DED327A8ABB37
:10349400069BBBF1000FC3ED007A77EE677A0BDD74
:1034A40033A90123B1EC017A01339B4577EE877A86
:1034B400F8DA0AB1F1EE677A069BC3ED017A55E7B3
:1034C400BDEEC00A9B4610EE101A47F82310E9E639
:1034D400DDED326A9DED337A069BF1EE666AB1EE5C
:1034E400477AF1EE677AC3ED006A83ED017AC3EDA2
:1034F400027A3BE7069BF1EE676ABBF1000F77EEB9
:10350400677AC3ED006ACBDCD4E7689B022B0DDC41
:10351400002B14DC7FF42AAFDFED0B7A002A3FF492
:1035240022AF1EE7039B4FEA830C35E5689B032B10
:103534007FF41CAFDFED047A002AC9D171E7DFED17
:10354400027AA2E724A501080000000010EE103A58
:1035540023F00043B3F1485F04DAFDEEC07A17EEBE
:10356400903A5BB360EE007A9FED157ADFED155A61
:103574009FED156ADFED156AE7EE875A9FED147A21
:10358400A5EEA76A20EE275AE6EE276AA6EEA77AEA
:1035940030B9DFED106AE7EE876AA6EE850A704758
:1035A40027EE457AF6EE006AA0EEA67ADFED0A6A07
:1035B400D7EE270AE5EE260A30EE600A704700BF10
:1035C400D3C92E2F342FD7B21BEF3836010D50B983
:1035D4008988083CABAA2ABEABAA2A3E10EE103A50
:1035E40023F0004300EE103A704700BF10EE102A9B
:1035F400C2F3C7537F3B162B22F0004128DC002B7B
:1036040018DB1A4919410A4221D0DFED197A70EE0C
:10361400277AF5EEC07AF1EE10FA18DD002A04DA02
:103624004FF4000040FA03F31A4422EA010300EEC7
:10363400103A7047DFED0E7A70EE277AF5EEC07A15
:10364400F1EE10FA03DD002A08DB9FED0A0A704749
:10365400B1F1FF4FFBD330EE000A7047FFEE007A62
:10366400002918BFB0EE670A704700BFFFFF7F0054
:10367400CAF249710000000082B08DED010A019B7D
:1036840033F000422AD0B2F1FF4F23D213F0FF4FA0
:1036940028D19DED017ADFED2A7A2A4B67EE277A4D
:1036A4009842CDED017A37DB019BC3F3C752193A37
:1036B4000244FE2A1ADD9FED240A9FED247A019B21
:1036C400002BF0EE407AB8BFB0EE470A20EE270A8E
:1036D40002B0704730EE000A02B070479DED010A57
:1036E40002B07047D20D0244FE2AE4DC002A0BDC4F
:1036F40012F1160F17DA4CF250339842DBDC9FEDCF
:10370400140A9FED147ADAE723F0FF4343EAC25325
:1037140000EE103A02B070479FED0D0ADDED017A1C
:1037240027EE800AD8E7193223F0FF4343EAC25355
:10373400DFED097A07EE103A27EE270ACCE700BF3F
:103744000000004CB03CFFFFCAF24971CAF249F1D3
:103754006042A20D6042A28D00000033F8B500BFA4
:10376400F8BC08BC9E467047F8B500BFF8BC08BC5E
:043774009E467047B6
:103778000000002000000000000000000000000021
:103788000008080808080800000808000014140ABF
:1037980000000000000000000014143E141414146B
:1037A800143E141400081C2A2A0C18282A2A1C085B
:1037B80000242A1A140808142C2A120000040A0AE1
:1037C80004042A2A12122C00000C0804000000002D
:1037D800000000000010080804040404040808108D
:1037E8000004080810101010100808040000000851
:1037F8002A2A1C2A2A0800000000000808083E0897
:10380800080800000000000000000000000C080488
:103818000000000000001E00000000000000000082
:1038280000000000000C0C00002020101008080800
:103838000404020200000C121212121212120C00DE
:103848000000080C080808080808080000000C1206
:103858001210080404021E0000000C1212100C10B2
:1038680012120C0000001018181414123E10100048
:1038780000001E02020E121012120C0000000C12A0
:1038880012020E1212120C0000001E101008080876
:103898000404040000000C1212120C1212120C0084
:1038A80000000C1212121C1012120C000000000072
:1038B8000C0C0000000C0C00000000000C0C0000B8
:1038C800000C08040000201008040204081020005E
:1038D800000000001E00001E00000000000002049E
:1038E800081020100804020000000C12121008082A
:1038F8000008080000001C222E2A2A2E12221C0072
:1039080000000808141414223E22220000001E227F
:1039180022221E2222221E0000001C222202020253
:1039280022221C0000000E122222222222120E0045
:1039380000003E0202021E0202023E0000003E0299
:1039480002021E020202020000001C2222020232AF
:1039580022322C000000222222223E222222220091
:1039680000001C080808080808081C0000001010BF
:103978001010101012120C00000012120A0A060A87
:103988000A121200000002020202020202023E00B3
:10399800000022223636362A2A2A2A000000222649
:1039A800262A2A2A3232220000001C22222222221F
:1039B80022221C0000001E2222221E0202020200F5
:1039C80000001C22222222222A122C0000001E2281
:1039D80022221E122222220000001C222204081089
:1039E80022221C0000003E080808080808080800F1
:1039F800000022222222222222221C00000022224F
:103A0800221414140808080000002A2A2A2A2A1452
:103A18001414140000002222141408141422220082
:103A280000002222141408080808080000003E209C
:103A38001010080404023E000038080808080808A6
:103A4800080808380002020404080808101020209A
:103A5800000E0808080808080808080E00081400DE
:103A6800000000000000000000000000000000004E
:103A78000000003F000408000000000000000000F3
:103A880000000000000C121C12122C0000000202A0
:103A9800021E222222221E0000000000001C220218
:103AA80002221C0000002020203C222222223C006E
:103AB80000000000001C223E02221C000000180426
:103AC800040E04040404040000000000002C120C7E
:103AD800021C221C00000202021E222222222200B4
:103AE800000008080008080808080800000008087E
:103AF8000008080808080806000002020222120A44
:103B08000E12220000000808080808080808080023
:103B18000000000000162A2A2A2A2A0000000000B5
:103B2800001E22222222220000000000001C222265
:103B380022221C0000000000001E2222221E020277
:103B480000000000003C2222223C2020000000004F
:103B580000340C040404040000000000001C220CC3
:103B680010221C0000000404040E040404041800BD
:103B7800000000000022222222223C000000000057
:103B8800002222141408080000000000002A2A2A33
:103B98001414140000000000002214080814220065
:103BA800000000000022221414080806000000008B
:103BB800003E201008043E00001808080808040801
:103BC800080808180808080808080808080808085D
:103BD800000C0808080810080808080C002C120037
:103BE80000000000000000000000000000000000CD
:103BF8000000000000000000000808080808080885
:103C080008080000181800006C24120000000000CA
:103C1800000000000000000000242424247F121269
:103C280012123F1212121200081C2A49490A0C18D3
:103C3800284849492A1C080000464929291610081D
:103C480004344A4A49310000000C121212120C04C2
:103C58002A291111294600000C0C08040000000054
:103C680000000000000000002010080804040404FC
:103C7800040404080810200002040808101010109A
:103C8800101010080804020000000008492A1C0847
:103C98001C2A490800000000000000000808087FEE
:103CA80008080800000000000000000000000000F4
:103CB8000000000C0C080400000000000000003E9A
:103CC80000000000000000000000000000000000EC
:103CD800000000000C0C00000040402020101008DC
:103CE8000404020201010000000C122121212121FB
:103CF80021212121120C000000080E0808080808DC
:103D08000808080808080000000C122121201010DB
:103D180008040402013F0000000C12212120100CAD
:103D280010202121120C0000001010181814141271
:103D380012113F1010100000003F0101010D132166
:103D480020202021120C0000000C122121010D134B
:103D580021212121120C0000003F20201010100802
:103D68000808040404040000000C12212121120C8C
:103D780012212121120C0000000C122121212132D4
:103D88002C202121120C000000000000000C0C0067
:103D98000000000C0C00000000000000000C0C00EB
:103DA8000000000C0C0804000000201008040201A8
:103DB800020408102000000000000000003E00007F
:103DC800003E00000000000000000102040810206E
:103DD8001008040201000000000C12212120100824
:103DE800040400000C0C0000001C224159555555D4
:103DF80055553901423C00000008081414141422D7
:103E080022223E4141410000001F21414141211F22
:103E180021414141211F0000001C224141010101B3
:103E280001014141221C0000001F21414141414143
:103E380041414141211F0000007F01010101013F73
:103E480001010101017F0000007F01010101013F23
:103E58000101010101010000001C22414101010191
:103E680071414141625C0000004141414141417F53
:103E78004141414141410000001C08080808080868
:103E880008080808081C0000002020202020202006
:103E980020202121120C00000041212111090905CF
:103EA8000B11112141410000000101010101010133
:103EB80001010101017F0000004141636363635513
:103EC8005555554949490000004141434345454935
:103ED8004951516161410000001C22414141414169
:103EE80041414141221C0000001F21414141211F45
:103EF8000101010101010000001C22414141414131
:103F080041414951225C0000001F21414141211FCC
:103F18001111212141410000001C224141010618D4
:103F280020404141221C0000007F080808080808BA
:103F38000808080808080000004141414141414182
:103F480041414141221C00000041414122222222DC
:103F580014141408080800000049494949555555E2
:103F68005522222222220000004141222214140854
:103F78001414222241410000004141222214140855
:103F88000808080808080000007F402020101008D2
:103F980004040202017F00003E0202020202020241
:103FA8000202020202023E00004141222214143E93
:103FB80008083E08080800003E2020202020202075
:103FC8002020202020203E000814220000000000AD
:103FD80000000000000000000000000000000000D9
:103FE80000000000000000FF0408100000000000AE
:103FF80000000000000000000000000000001E217A
:10400800203C2221316E00000001010101011D2325
:1040180041414141231D00000000000000003C42D6
:1040280001010101423C00000040404040405C6208
:1040380041414141625C00000000000000001C2278
:10404800417F0101423C00000018040404041F04DD
:1040580004040404040400000000000000005C22C2
:10406800221C023E41413E000001010101011D23C5
:104078004141414141410000000008080000080892
:1040880008080808080800000000080800000808D8
:1040980008080808080806000001010101012111AB
:1040A80009050B1121410000000808080808080844
:1040B8000808080808080000000000000000354B48
:1040C80049494949494900000000000000001D23F2
:1040D80041414141414100000000000000001C2214
:1040E80041414141221C00000000000000001D2346
:1040F800414141231D0101000000000000005C62F5
:10410800414141625C404000000000000000740C26
:1041180004040404040400000000000000003E4100
:1041280001063840413E00000000040404041F0456
:1041380004040404041800000000000000004141C9
:1041480041414141625C0000000000000000414123
:104158002222141408080000000000000000494949
:10416800495555222222000000000000000041228B
:10417800140808142241000000000000000041411A
:1041880022221414080403000000000000007F200D
:1041980010080402017F000038080808080808040D
:1041A800080808080808380008080808080808085F
:1041B80008080808080808080E0808080808081069
:1041C8000808080808080E0026190000000000006A
:1041D80000000000000000000000000000000000D7
:1041E80000000000000000000000000000000000C7
:1041F80000000000000000000000000000000000B7
:1042080000000000000000000000000000000000A6
:104218000000000000000000000000000000000096
:1042280000000000C003C003C003C003C003C003F4
:10423800800380018001800180018001800180016C
:1042480080010000000000008001C003C00380015D
:10425800000000000000000000000000C018E01C82
:10426800E01C700E300618038C018400000000006A
:104278000000000000000000000000000000000036
:104288000000000000000000000000000000000026
:104298000000000000000000000000000000000016
:1042A8000000000020102010201020102010FE7F99
:1042B800FE7FFE7F1008100810081008100810086C
:1042C800FE7FFE7FFE7F180C08040804080408041B
:1042D80000000000000000000000000000000000D6
:1042E80080008000C003B00C90189818981C981C87
:1042F800B800B000F000E000C0038007800F800C19
:10430800801C80189C189C188C188C0C9806E0034C
:104318008000800080000000000000000000000015
:10432800000000001C0836082204630463026302CC
:104338006302630163012201B61C9C36402240637C
:104348004063206320631063106310220836081C42
:104358000000000000000000000000000000000055
:1043680000000000F00098008C018C018C018C0189
:104378008C00CC005C0038001C3E3C0832087308F6
:104388006304E304C3048303834306678C3E781CF9
:104398000000000000000000000000001C003C00BD
:1043A8003C003000300010000C0006000000000047
:1043B80000000000000000000000000000000000F5
:1043C80000000000000000000000000000000000E5
:1043D8000000000000000000000000000040002075
:1043E80000100018000C000400060002000300037F
:1043F80080018001800180018001800180018001AD
:10440800800100030003000200060004000C0018ED
:10441800001000200040000000000000020004001E
:10442800080018003000200060004000C000C000F4
:10443800800180018001800180018001800180016C
:104448008001C000C000C0006000200030001800DB
:104458000800040002000000000000000000000046
:1044680000000000000000000003800380030C63CC
:104478001C713839600D80038003600D38391C7158
:104488008C618003800380030000000000000000AE
:104498000000000000000000000000000000000014
:1044A8000000000000000000000000010001000101
:1044B8000001000100010001FC7F00010001000172
:1044C80000010001000100010000000000000000E0
:1044D80000000000000000000000000000000000D4
:1044E80000000000000000000000000000000000C4
:1044F80000000000000000000000000000000000B4
:1045080000000000000000001C003C003C003000DF
:10451800300010000C000600000000000000000041
:104528000000000000000000000000000000000083
:104538000000000000000000FE7F000000000000F6
:104548000000000000000000000000000000000063
:104558000000000000000000000000000000000053
:104568000000000000000000000000000000000043
:104578000000000000000000000000000000000033
:10458800000000000000000018003C003C0018007B
:1045980000000000000000000000000000000040D3
:1045A800006000200030001000180008000C000413
:1045B800000600020003000180018000C0004000E6
:1045C8006000200030001000180008000C000400F3
:1045D80006000200000000000000000000000000CB
:1045E80000000000C0036004300C181818181810D8
:1045F8000C300C300C300C300C300C300C300C30D3
:104608000C300C30181018181818300C6004C0033F
:104618000000000000000000000000000000000092
:104628000000000000018001F80180018001800184
:10463800800180018001800180018001800180016A
:10464800800180018001800180018001C003F81F82
:104658000000000000000000000000000000000052
:1046680000000000E007101C0818043004300C306B
:104678000C30003000180018000C00060003800100
:10468800C00040002020102008200430FC1FFC1F20
:104698000000000000000000000000000000000012
:1046A80000000000E00318060C0C0C180C180C187D
:1046B80000180018000C0006C003000E00180010B7
:1046C800003000300C300C300C100C18180CE003C3
:1046D80000000000000000000000000000000000D2
:1046E800000000000006000600070007800680069C
:1046F8004006200620061006100608060C060406CA
:104708000206FE3F00060006000600060006C03F3F
:104718000000000000000000000000000000000091
:1047280000000000F03FF03F080008000800080003
:1047380008000800C807280C1818081000300030B6
:10474800003000300C300C3004180418180CE0034A
:104758000000000000000000000000000000000051
:1047680000000000800760183018101818000800B2
:1047780008000C00CC076C0C1C181C100C300C30FA
:104788000C300C300C30183018103018700CC00772
:104798000000000000000000000000000000000011
:1047A80000000000F83FF83F08100C080408040453
:1047B80000040002000200020001000180008000E5
:1047C80080008000C000C000C000C000C000C00061
:1047D80000000000000000000000000000000000D1
:1047E80000000000E007300C18180C300C300C30BA
:1047F8001C301C107818F004E003180F0C1E0C1C59
:10480800063806300630063006300C18180CE0035F
:104818000000000000000000000000000000000090
:1048280000000000E00318040C080C1806100630FD
:1048380006300630063006300E380C341836F031A3
:1048480000300018001800080C0C0C060C03F001CE
:104858000000000000000000000000000000000050
:104868000000000000000000000000000000000040
:1048780000008001C003C0038001000000000000A8
:1048880000000000000000008001C003C003800198
:104898000000000000000000000000000000000010
:1048A8000000000000000000000000000000000000
:1048B80000000000C001C001C001000000000000AD
:1048C80000000000000000000000C001C001C0019D
:1048D8008001C000C00000000000000000000000CF
:1048E8000000000000200010000800040002000181
:1048F8008000400020001000080008001000200080
:1049080040008000000100020004000800100020A0
:10491800000000000000000000000000000000008F
:10492800000000000000000000000000000000007F
:104938000000FE7F00000000000000000000FE7F75
:10494800000000000000000000000000000000005F
:10495800000000000000000000000000000000004F
:104968000000000004000800100020004000800043
:1049780000010002000400080010001000080004F4
:104988000002000180004000200010000800040020
:10499800000000000000000000000000000000000F
:1049A80000000000C0073018183008600C601C6058
:1049B8001C601C6000300018000E0003000100019C
:1049C80000010001000000008001C003C003800155
:1049D80000000000000000000000000000000000CF
:1049E80000000000C0076008301018200C2B8C4D08
:1049F800844CC64CC644664466446644664666268D
:104A080066266417CC0C0C40082018303018C007F4
:104A1800000000000000000000000000000000008E
:104A280000000000C001C001C001C0012003200334
:104A38002003200330021006100610061804F80F91
:104A4800080C080C080C04180418041806381F7CF5
:104A5800000000000000000000000000000000004E
:104A680000000000FE07181C1818183018301830FD
:104A7800183018301818180CF8071818183018209B
:104A88001860186018601860186018301818FE0F41
:104A9800000000000000000000000000000000000E
:104AA80000000000C0076038103018600C400C404F
:104AB8000C000600060006000600060006000600B8
:104AC800060006000C400C40082018103008C007EB
:104AD80000000000000000000000000000000000CE
:104AE80000000000FE03180E1818181018301830AF
:104AF80018601860186018601860186018601860EE
:104B08001860182018301830181818181806FE03DE
:104B1800000000000000000000000000000000008D
:104B280000000000FE3F18301820184018401800F8
:104B3800180018081808180CF80F180C1808180886
:104B48001800180018001840184018201830FE3FA8
:104B5800000000000000000000000000000000004D
:104B680000000000FE3F18381820184018401800B0
:104B7800180018081808180CF80F180C1808180846
:104B880018081800180018001800180018007E00EF
:104B9800000000000000000000000000000000000D
:104BA80000000000C003300C100818180C100C107E
:104BB800040006000600060006000600067E061829
:104BC800061804180C180C18081818183004E003F4
:104BD80000000000000000000000000000000000CD
:104BE800000000003FFC0C300C300C300C300C3056
:104BF8000C300C300C300C30FC3F0C300C300C30CE
:104C08000C300C300C300C300C300C300C303FFCBD
:104C1800000000000000000000000000000000008C
:104C280000000000F81F80018001800180018001E0
:104C38008001800180018001800180018001800164
:104C48008001800180018001800180018001F81FBE
:104C5800000000000000000000000000000000004C
:104C680000000000E07F00060006000600060006BF
:104C780000060006000600060006000600060006FC
:104C880000060006000600060006000600060006EC
:104C98000E060E038E01FC0000000000000000005C
:104CA800000000007E3E180C1804180618021801AF
:104CB800180198009800D800B801B8011803180323
:104CC80018061806180C180C180C181818187E7CDA
:104CD80000000000000000000000000000000000CC
:104CE800000000007E0018001800180018001800C6
:104CF80018001800180018001800180018001800EC
:104D08001800180018001840184018201830FE3FE6
:104D1800000000000000000000000000000000008B
:104D2800000000000FF01C381C381C381C381C34DC
:104D380034343434343434323432643264326432A5
:104D480064314431C431C431C430C43084308FFC40
:104D5800000000000000000000000000000000004B
:104D6800000000000FF81C201C2034203420642090
:104D78006420C420C420842184210423042304261D
:104D88000426042C042C04380438043004301F2072
:104D9800000000000000000000000000000000000B
:104DA80000000000C003300C181808100C300C303C
:104DB80006200660066006600660066006600660FB
:104DC800066004600C300C3008101818300CC00352
:104DD80000000000000000000000000000000000CB
:104DE80000000000FE0F18181830186018601860CE
:104DF80018601860186018301818F807180018009C
:104E080018001800180018001800180018007E0074
:104E1800000000000000000000000000000000008A
:104E280000000000C003300C181808100C300C30BB
:104E3800066006600660066006600660066006603A
:104E480006600660E4211C331C36181E300EC007AD
:104E5800004C003C0038000000000000000000008A
:104E680000000000FE07181C1818183018301830F9
:104E7800183018301818180CF807180318031806F3
:104E880018061806180C180C180C181818187E781C
:104E9800000000000000000000000000000000000A
:104EA80000000000F013181E0C1806180610061053
:104EB80006000E003C00F800E003800F001E0018FA
:104EC800003802300230063004300C181C0CE4079D
:104ED80000000000000000000000000000000000CA
:104EE80000000000FC3F8C218461824182418001E6
:104EF80080018001800180018001800180018001A2
:104F08008001800180018001800180018001E0072B
:104F18000000000000000000000000000000000089
:104F2800000000003F7C0C100C100C100C100C1032
:104F38000C100C100C100C100C100C100C100C1089
:104F48000C100C100C100C100C1018083804E0038E
:104F58000000000000000000000000000000000049
:104F6800000000003E78183018101810181030088B
:104F780030083008300830046004600460046002BF
:104F8800C002C002C002C001800180018000800010
:104F98000000000000000000000000000000000009
:104FA80000000000CFF386618621842104210C23B0
:104FB8008C238C238C138C1388134812581658167C
:104FC800580E380E300E300E300C30041004100419
:104FD80000000000000000000000000000000000C9
:104FE800000000003E7C18101808300830046004E7
:104FF8006002C002C001800180018001800340037B
:1050080040062006200E100C100C181808383E7C9C
:105018000000000000000000000000000000000088
:10502800000000007E7C1C1018101808300830089A
:10503800300460046004C002C002C0018001800125
:105048008001800180018001800180018001E007EA
:105058000000000000000000000000000000000048
:1050680000000000F87F383018300C180418000CC5
:10507800000600060003000380018001C000C00094
:10508800600060003000184018600C200C38FE3FAB
:105098000000000000000000000000000000C03F09
:1050A800C000C000C000C000C000C000C000C000F8
:1050B800C000C000C000C000C000C000C000C000E8
:1050C800C000C000C000C000C000C000C000C000D8
:1050D800C000C03F00000000000000000000000009
:1050E8000000180018001000300020006000600068
:1050F8004000C00080008001800100010003000220
:1051080000060006000C000C000C00180018003007
:105118000030003000600000000000000000FC03C8
:10512800000300030003000300030003000300035F
:10513800000300030003000300030003000300034F
:10514800000300030003000300030003000300033F
:105158000003FC030000000000000000C003C007BB
:1051680060041008000000000000000000000000BB
:105178000000000000000000000000000000000027
:105188000000000000000000000000000000000017
:105198000000000000000000000000000000000007
:1051A80000000000000000000000000000000000F7
:1051B80000000000000000000000000000000000E7
:1051C80000000000000000000000000000000000D7
:1051D800000000000000FFFF000000007800C00091
:1051E80000010000000000000000000000000000B6
:1051F80000000000000000000000000000000000A7
:105208000000000000000000000000000000000096
:105218000000000000000000000000000000000086
:105228000000000000000000000000000000000076
:105238000000E007180C0C180C180C18001CE01BD8
:1052480038180C1806180618061806980C9EF871D7
:105258000000000000000000000000000000000046
:10526800000010001E001800180018001800180090
:1052780018009807581C381838301830183018306B
:10528800183018301830183018103818380CC8076B
:105298000000000000000000000000000000000006
:1052A80000000000000000000000000000000000F6
:1052B8000000C0077008301818180C180C000C00F3
:1052C8000C000C000C000C20182018103008C00727
:1052D80000000000000000000000000000000000C6
:1052E80000000010001E0018001800180018001810
:1052F8000018E01B301C181818180C180C180C187B
:105308000C180C180C180C180818181C307AE0091E
:105318000000000000000000000000000000000085
:105328000000000000000000000000000000000075
:105338000000C003300C101818100C300C300C3062
:10534800FC3F0C000C000C00182018107018C00747
:105358000000000000000000000000000000000045
:1053680000000000003E80618060C060C000C00096
:10537800C000FC1FC000C000C000C000C000C000CA
:10538800C000C000C000C000C000C000C000F80FCE
:105398000000000000000000000000000000000005
:1053A80000000000000000000000000000000000F5
:1053B8000000C077306C1018181818181818101832
:1053C800300CF00718001800F803F01F18380C30DC
:1053D8000C300C301818E007000000000000000036
:1053E800000010001E00180018001800180018000F
:1053F80018009807580C381818181818181818187A
:1054080018181818181818181818181818187E7E48
:105418000000000000000000000000000000000084
:10542800000000008001C0038001000000000000AF
:105438000001F80180018001800180018001800164
:105448008001800180018001800180018001F81FB6
:105458000000000000000000000000000000000044
:1054680000000000001C001E000C000000000000EE
:105478000008C00F000C000C000C000C000C000C05
:10548800000C000C000C000C000C000C000C000CB4
:10549800000C18061802F0010000000000000000CF
:1054A800000010001E00180018001800180018004E
:1054B8001800183E180C1804180218019801D80191
:1054C800780338031806180C180C181818387E7C3E
:1054D80000000000000000000000000000000000C4
:1054E80000000001F8018001800180018001800135
:1054F800800180018001800180018001800180019C
:105508008001800180018001800180018001F81FF5
:105518000000000000000000000000000000000083
:105528000000000000000000000000000000000073
:105538000400F73C8E6386618661866186618661B8
:105548008661866186618661866186618661CFF340
:105558000000000000000000000000000000000043
:105568000000000000000000000000000000000033
:10557800000090075E0C3818181818181818181812
:1055880018181818181818181818181818187E7EC7
:105598000000000000000000000000000000000003
:1055A80000000000000000000000000000000000F3
:1055B8000000C003300C1018181808300C300C30DC
:1055C8000C300C300C300C3018181818300CC00384
:1055D80000000000000000000000000000000000C3
:1055E80000000000000000000000000000000000B3
:1055F800000090075E0C3818181018301830183052
:10560800183018301830183018183818780C9807CF
:105618001800180018007E000000000000000000BC
:105628000000000000000000000000000000000072
:105638000000C013301E181C18180C180C180C1871
:105648000C180C180C180C180818181C301EE01927
:10565800001800180018007E00000000000000007C
:105668000000000000000000000000000000000032
:10567800000060387E666061E001E0006000600064
:105688006000600060006000600060006000FE076D
:105698000000000000000000000000000000000002
:1056A80000000000000000000000000000000000F2
:1056B8000000C02760383030302030207000E00310
:1056C800800F001E00380830083018303818C80F0E
:1056D80000000000000000000000000000000000C2
:1056E8000000000000000000800080008000C00072
:1056F800E000FC1FC000C000C000C000C000C00027
:10570800C000C000C000C000C020C0208011000F31
:105718000000000000000000000000000000000081
:105728000000000000000000000000000000000071
:1057380010101E1E181818181818181818181818E5
:1057480018181818181818181818181C307AE0099A
:105758000000000000000000000000000000000041
:105768000000000000000000000000000000000031
:1057780000003E7C18301810181830083008200433
:1057880060046004C002C002C00380018001800080
:105798000000000000000000000000000000000001
:1057A80000000000000000000000000000000000F1
:1057B8000000DFF3866184218C218C218C138813EF
:1057C80058135812580E700E300E300C3004200446
:1057D80000000000000000000000000000000000C1
:1057E80000000000000000000000000000000000B1
:1057F80000007C3E300870086004C002C0028001CE
:105808008001800340062006200C101818183E7EE0
:105818000000000000000000000000000000000080
:105828000000000000000000000000000000000070
:1058380000003E7C1818180810083008200460047E
:1058480060044002C0028002800180018000800064
:10585800800040007C003C000000000000000000C8
:105868000000000000000000000000000000000030
:105878000000FC1F0C1C0C0C04060407000380012C
:10588800C001C00060007020302018300C18FC1FC8
:1058980000000000000000000000000000300008C8
:1058A80000040004000400040004000400040004D0
:1058B8000004000400040003800100020004000446
:1058C80000040004000400040004000400040004B0
:1058D8000004000800300000000100010001000180
:1058E80000010001000100010001000100010001A8
:1058F8000001000100010001000100010001000198
:105908000001000100010001000100010001000187
:105918000001000100010001000000001800200043
:10592800400040004000400040004000400040006F
:10593800400040004000800100038000400040001B
:10594800400040004000400040004000400040004F
:10595800400020001800000000007800C4008241C8
:1059680002410027001C00000000000000000000A9
:10597800000000000000000000000000000000001F
:10598800000000000000000000000000000000000F
:1059980000000000000000000000000000000000FF
:1059A80000000000000000000000000000000000EF
:1059B80000000000000000000000000000000000DF
:1059C80000000000000000000000000000000000CF
:1059D80000000000000000000000000000000000BF
:1059E80000000000000000000000000000000000AF
:1059F800000000000000000000000000000000009F
:105A0800000000000000000000000000000000008E
:105A1800000000000000000000000000000000007E
:105A2800000000000000000000000000000000006E
:105A3800000000000000000000000000000000005E
:105A4800000000000000000000000000000000004E
:105A5800000000000000000000000000000000003E
:105A6800000000000000000000000000000000002E
:105A7800000000000000000000000000000000001E
:105A8800000000000000000000000000000000000E
:105A980000000000000000000000000000000000FE
:105AA80000000000000000000000000000000000EE
:105AB80000E0010000F0030000F0030000F0030024
:105AC80000F0030000F0030000F0030000F0030002
